S01800004C696E65626F7454656D706C617465312E73726563D2
S11300000C9485010C94A6010C94A6010C94A601F1
S11300100C94A6010C94A6010C94A6010C94A601C0
S11300200C94A6010C94A6010C94A6010C94A601B0
S11300300C94A6010C94A6010C94D2080C94A6016D
S11300400C94A6010C94A6010C94A6010C94A60190
S11300500C9452090C94A6010C94A6010C94A601CC
S11300600C94A6010C94A6010C94A6010C94A60170
S11300700C94A6010C94A6010C94A6010C94A60160
S11300800C94A6010C94A6010C94A6010C94A60150
S11300900C94A6010C94A6010C94A6010C94A60140
S11300A00C94A6010C94A6010C94A6010C94A60130
S11300B00C94A6010C94A6010C9427030C94A6019D
S11300C00C94A6010C94A6010C94A6010C94A60110
S11300D00C94A6010C94A6010C94A6010C94A60100
S11300E00C94A6010C94A6010C94A6010C94A601F0
S11300F00C94A6010C94A6010C94A6010C94A601E0
S11301000C94A6010C94A6010C94A6010C94A601CF
S11301100C94A6010C94A6010C94A6010C94A601BF
S11301200C94A6010C94A6010C94A6010C94A601AF
S11301300C94A6010C94A6010C94A6010C94A6019F
S11301400C94A6010C94A6010C94A6010C94A6018F
S11301500C94A6010C94A6010C94A6010C94A6017F
S11301600C94A6010C94A6010C94A6010C94A6016F
S11301700C94A6010C94A6010C94A6010C94A6015F
S11301800C94A6010C94A6010C94A6010C94A6014F
S11301900C94A6010C94A6010C94A6010C94A6013F
S11301A00C94A6010C94A6010C94A6010C94A6012F
S11301B00C94A6010C94A6010C94A6010C94A6011F
S11301C00C94A6010C94A6010C94A6010C94A6010F
S11301D00C94A6010C94A6010C94A6010C94A601FF
S11301E00C94A6010C94A6010C94A6010C94A601EF
S11301F00C94A6010C94A6010C94A6010C94BB03C8
S11302000C94E0030C94800E6E616E00696E6600BF
S113021000407A10F35A00A0724E18090010A5D4B9
S1130220E80000E87648170000E40B54020000CA16
S11302309A3B000000E1F50500008096980000005C
S113024040420F000000A0860100000010270000BB
S11302500000E803000000006400000000000A0041
S1130260000000000100000000002C76D888DC6744
S11302704F0823DFC1DFAE59E1B1B796E5E3E4539C
S1130280C63AE651997696E8E6C28426EB898C9BB9
S113029062ED407C6FFCEFBC9C9F40F2BAA56FA559
S11302A0F490055A2AF75C936B6CF9676DC11BFCDB
S11302B0E0E40D47FEF520E6B500D0ED902E0300F6
S11302C0943577050080841E080000204E0A000043
S11302D000C80C333333330F986E12831141EF8D02
S11302E02114893BE65516CFFEE6DB18D1844B3842
S11302F01BF77C1D901DA4BBE424203284725E2273
S11303008100C9F124ECA1E53D2711241FBECFEFE4
S1130310CDBFDFE9DEBF00E00CBF10E2A0E0B0E239
S1130320E8ECF3E300E00BBF02C007900D92A23BA0
S1130330B107D9F721E6A2EBB0E201C01D92AE33BA
S1130340B207E1F70E94B9120C94E2190C94000070
S1130350CF93DF93CDB7DEB70000DF91CF9108953F
S1130360CF93DF93CDB7DEB70000DF91CF9108952F
S1130370CF93DF93CDB7DEB72597CDBFDEBF8C8398
S11303809D8380EA9AE0FC018381898380EA9AE074
S1130390FC0184818A8380EA9AE0FC0185818B8355
S11303A01DC080EA9AE02C813D81F9012081FC0185
S11303B02083000080EA9AE0FC018181882F90E08C
S11303C080749927892BB1F380EA9AE020E4FC0138
S11303D021838C819D8101968C839D838C819D8159
S11303E0FC0180818823E9F680EA9AE02981FC01F6
S11303F0238380EA9AE02A81FC01248380EA9AE03C
S11304002B81FC01258300002596CDBFDEBFDF9143
S1130410CF910895CF93DF93CDB7DEB70000DF917E
S1130420CF9108958BEC8093520088E08093500024
S11304308091510083FFFCCF82EC8093550088E1CA
S1130440809350008091510084FFFCCF88ED84BFDD
S113045084E08093400080E00895CF93DF93CDB78C
S1130460DEB71092BB2080E896E028E1FC01208BE7
S113047080E896E028E1FC01218B80EA94E028E7FB
S1130480FC01218380EA94E023E2FC01258380EAD5
S113049094E021E0FC0124830000DF91CF910895D2
S11304A0CF93DF931F92CDB7DEB780EA94E0FC01CF
S11304B0848189838981882F90E084709927892B8E
S11304C021F084E08093BC2003C083E08093BC20AF
S11304D080EA94E029812860FC0124831092BB20E7
S11304E000000F90DF91CF910895CF93DF9300D058
S11304F01F92CDB7DEB78091B72089838091B82051
S11305008A8380EA94E0FC018481882F90E08071E2
S11305109927892B59F080EA94E023E0FC01238396
S113052085E08093BC201092BB2034C09091B92008
S113053089819817C0F42091B3203091B420809120
S1130540B920882F90E0820F931FFC0180818B8358
S113055080EA94E02B81FC0127838091B9208F5F8E
S11305608093B92017C09091BA208A81981750F4CB
S11305708091B22081608C8380EA94E02C81FC011C
S1130580268308C080EA94E023E0FC01238381E011
S11305900E94170300002496CDBFDEBFDF91CF91E8
S11305A00895CF93DF931F921F92CDB7DEB780914A
S11305B0BA208032C0F480EA94E0FC018781898308
S11305C02091B5203091B6208091BA20882F90E0F8
S11305D0820F931F2981FC0120838091BA208F5FB1
S11305E08093BA2008C080EA94E023E0FC012383CE
S11305F082E00E9417038091B8208A839091BA20E8
S11306008A81981730F480EA94E022E0FC01238385
S113061008C080EA94E027E0FC01238381E00E9483
S1130620170300000F900F90DF91CF910895CF939F
S1130630DF931F92CDB7DEB7898389818093BC2075
S11306401092BB2000000F90DF91CF9108951F926C
S11306500F9200903F000F92112400903B000F92E4
S11306602F933F934F935F936F937F938F939F93B6
S1130670AF93BF93EF93FF93CF93DF931F92CDB7C5
S1130680DEB780EA94E0FC01848189838981882F24
S113069090E088709927892B39F48981882F90E01C
S11306A084709927892B19F00E94500213C0898104
S11306B0882F90E080749927892B19F00E94750285
S11306C009C0898188231CF40E94D10203C086E0FA
S11306D00E9417038091BB2000000F90DF91CF91FF
S11306E0FF91EF91BF91AF919F918F917F916F9106
S11306F05F914F913F912F910F9000923B000F908B
S113070000923F000F901F901895CF93DF93CDB7C1
S1130710DEB780E896E028E0FC01218380E896E0DB
S113072024E0FC01228380EA9AE0FC01138280EA3F
S11307309AE028E1FC01248380EA9AE023E0FC01AA
S1130740258380EA9AE025EEFC01268380EA9AE07C
S11307502CEBFC01278380E090E280933A61909334
S11307603B6180E090E280933861909339610000AE
S1130770DF91CF910895CF93DF9300D0CDB7DEB74B
S113078089836A837B8380EA9AE02981FC01208340
S1130790000080EA9AE0FC018181882F90E0807457
S11307A09927892BB1F380EA9AE020E4FC012183A4
S11307B080E090E02396CDBFDEBFDF91CF91089516
S11307C0CF93DF931F921F92CDB7DEB789839A83AD
S11307D0000080EA9AE0FC0181818823D4F780EA52
S11307E09AE0FC018081882F90E00F900F90DF91B8
S11307F0CF910895CF93DF93CDB7DEB72E97CDBFBA
S1130800DEBF8D879E871D821E820E94840B80918D
S1130810C560882329F40E94550581E08093C56052
S11308208D859E85892B41F084E090E02D853E8561
S1130830820F931F8D879E878D859E85892B09F452
S1130840B8C08D859E858F3F9F4308F0B2C08DEB65
S113085090E68B839C838091BD609091BE60898378
S11308609A830BC089819A818B839C8389819A8125
S1130870FC018081918189839A8389819A81FC0119
S1130880228133818D859E852817390738F4898123
S11308909A81FC0180819181892B21F789819A8138
S11308A0815C904609F485C08B819C81FC01208188
S11308B0318184E090E0820F931F8D839E83898130
S11308C09A81FC01208131818B819C81FC012083F0
S11308D0318389819A81FC01228133818D859E85B2
S11308E0281B390B84E090E0880F991F8217930727
S11308F008F04EC029813A818D859E85820F931F11
S113090089879A8789819A81FC01228133818D8527
S11309109E85281B390B89859A85FC0122833383A4
S113092089819A812D853E85FC01228333838985C3
S11309309A85FC01828193818B879C878DEB90E65D
S11309408F83988707C08F819885FC01808191816E
S11309508F8398878F819885FC0180819181FC0128
S1130960228133818B859C852817390760F38F8119
S11309709885FC012081318189859A85FC01208339
S113098031838F81988529853A85FC0120833183C1
S113099020910E2030910F2089819A81FC0182815F
S11309A09381A901481B590BCA0180930E2090938F
S11309B00F200E94910B8D819E81892B11F40E943E
S11309C0580F8D819E812E96CDBFDEBFDF91CF91D2
S11309D00895CF93DF93CDB7DEB72A97CDBFDEBF9F
S11309E089879A8789859A858B839C8389859A854B
S11309F0892B09F453C084E090E091958195910985
S1130A002B813C81820F931F8B839C838B819C81E0
S1130A108D839E830E94840B8D819E81FC01828143
S1130A2093818F8398878DEB90E689839A8307C09F
S1130A3089819A81FC018081918189839A8389814A
S1130A409A81FC0180819181FC01228133818F8113
S1130A5098852817390760F389819A81FC012081E0
S1130A6031818D819E81FC012083318389819A812A
S1130A702D813E81FC01208331838D819E81FC0187
S1130A802281338180910E2090910F20820F931F39
S1130A9080930E2090930F200E94910B00002A96C1
S1130AA0CDBFDEBFDF91CF910895CF93DF9300D008
S1130AB01F92CDB7DEB78EEB90E289839A8389814A
S1130AC09A818093BD609093BE601092BF60109233
S1130AD0C0608FEF9FE38093C3609093C4601092D3
S1130AE0C1601092C26089819A818B839C838B81BF
S1130AF09C812FEF3FE3FC01228333838B819C8114
S1130B0021EC30E6FC012083318300002496CDBF24
S1130B10DEBFDF91CF910895CF93DF931F921F9291
S1130B20CDB7DEB789839A8389819A819C012D5F31
S1130B303F4F89819A81FC012183328389819A8183
S1130B402FEF3FEFFC012383348389819A819C0139
S1130B502D5F3F4F89819A81FC01258336838981EA
S1130B609A819C012D5F3F4F89819A81FC012783E3
S1130B70308789819A81FC01108200000F900F90C8
S1130B80DF91CF910895CF93DF931F921F92CDB73A
S1130B90DEB789839A8389819A81FC011086118644
S1130BA000000F900F90DF91CF910895CF93DF93C2
S1130BB000D000D0CDB7DEB78B839C836D837E835A
S1130BC08B819C81FC018181928189839A838D81AF
S1130BD09E8129813A81FC012283338389819A8110
S1130BE0FC01248135818D819E81FC012483358320
S1130BF089819A81FC01848195812D813E81FC014A
S1130C002283338389819A812D813E81FC0124834F
S1130C1035838D819E812B813C81FC012087318726
S1130C208B819C81FC01808121E0280F8B819C8138
S1130C30FC01208300002696CDBFDEBFDF91CF915B
S1130C400895CF93DF9300D01F92CDB7DEB78B8387
S1130C509C838B819C81FC018085918589839A8307
S1130C608B819C81FC01828193812B813C81F901E0
S1130C7024813581FC01248335838B819C81FC0193
S1130C80848195812B813C81F90122813381FC018E
S1130C902283338389819A81FC01218132818B8172
S1130CA09C812817390751F48B819C81FC01248194
S1130CB0358189819A81FC01218332838B819C81D6
S1130CC0FC011086118689819A81FC0180812FEFB5
S1130CD0280F89819A81FC01208389819A81FC01F2
S1130CE080812496CDBFDEBFDF91CF910895CF934D
S1130CF0DF93CDB7DEB72897CDBFDEBF8B839C8350
S1130D006D837E834F8358878B819C8121E1FC0115
S1130D1020838B819C8101978B839C838B819C8115
S1130D2022E2FC0120838B819C8101978B839C832D
S1130D308B819C8123E3FC0120838B819C8101971F
S1130D408B839C838D819E8189839A8329818B8166
S1130D509C81FC0120838B819C8101978B839C83E4
S1130D6089819A81892F992789839A8329818B8103
S1130D709C81FC0120838B819C8101978B839C83C4
S1130D8089819A81892F992789839A8329818B81E3
S1130D909C81FC0120838B819C8101978B839C83A4
S1130DA08B819C81FC0110828B819C8101978B83B8
S1130DB09C838B819C8120E8FC0120838B819C8116
S1130DC001978B839C838B819C81FC0110828B8196
S1130DD09C8101978B839C838B819C8122E0FC0105
S1130DE020838B819C8101978B839C838B819C8145
S1130DF023E0FC0120838B819C8101978B839C835E
S1130E008B819C8124E0FC0120838B819C81019750
S1130E108B839C838B819C8125E0FC0120838B81C7
S1130E209C8101978B839C838B819C8126E0FC01B0
S1130E3020838B819C8101978B839C838B819C81F4
S1130E4027E0FC0120838B819C8101978B839C8309
S1130E508B819C8128E0FC0120838B819C810197FC
S1130E608B839C838B819C8129E0FC0120838B8173
S1130E709C8101978B839C838B819C8120E1FC0165
S1130E8020838B819C8101978B839C838B819C81A4
S1130E9021E1FC0120838B819C8101978B839C83BE
S1130EA08B819C8122E1FC0120838B819C810197B1
S1130EB08B839C838B819C8123E1FC0120838B8128
S1130EC09C8101978B839C838B819C8124E1FC0111
S1130ED020838B819C8101978B839C838B819C8154
S1130EE025E1FC0120838B819C8101978B839C836A
S1130EF08B819C8126E1FC0120838B819C8101975D
S1130F008B839C838B819C8127E1FC0120838B81D3
S1130F109C8101978B839C838B819C8128E1FC01BC
S1130F2020838B819C8101978B839C838B819C8103
S1130F3029E1FC0120838B819C8101978B839C8315
S1130F408B819C8120E2FC0120838B819C81019711
S1130F508B839C838B819C8121E2FC0120838B8188
S1130F609C8101978B839C838B819C8122E2FC0171
S1130F7020838B819C8101978B839C838B819C81B3
S1130F8023E2FC0120838B819C8101978B839C83CA
S1130F908F81988589839A8329818B819C81FC0127
S1130FA020838B819C8101978B839C8389819A8187
S1130FB0892F992789839A8329818B819C81FC01BC
S1130FC020838B819C8101978B839C838B819C8163
S1130FD026E2FC0120838B819C8101978B839C8377
S1130FE08B819C8127E2FC0120838B819C8101976A
S1130FF08B839C838B819C8128E2FC0120838B81E1
S11310009C8101978B839C838B819C8129E2FC01C9
S113101020838B819C8101978B839C838B819C8112
S113102020E3FC0120838B819C8101978B839C832B
S11310308B819C8121E3FC0120838B819C8101971E
S11310408B839C838B819C812896CDBFDEBFDF91EF
S1131050CF910895CF93DF93CDB7DEB70E94B9083F
S1131060A091C660B091C760CD91CDBFDD91DEBFC8
S1131070FF91EF91DF91CF91BF91AF919F918F91AC
S11310807F916F915F914F913F912F911F910F919C
S1131090FF90EF90DF90CF90BF90AF909F908F9094
S11310A07F906F905F904F903F902F901F900F9084
S11310B00FBE0F90089581E0DF91CF9108950F92B4
S11310C00FB6F8940F921F9211242F923F924F92D1
S11310D05F926F927F928F929F92AF92BF92CF92C4
S11310E0DF92EF92FF920F931F932F933F934F93AF
S11310F05F936F937F938F939F93AF93BF93CF939C
S1131100DF93EF93FF93A091C660B091C7600DB6D3
S11311100D920EB60D920E94260DA091C660B0915C
S1131120C760CD91CDBFDD91DEBFFF91EF91DF911F
S1131130CF91BF91AF919F918F917F916F915F916B
S11311404F913F912F911F910F91FF90EF90DF905E
S1131150CF90BF90AF909F908F907F906F905F9053
S11311604F903F902F901F900F900FBE0F900895B7
S11311700000CF93DF93CDB7DEB780E098E021E0A5
S1131180FC01208380E098E021E0FC01268380E0DC
S113119098E020E03DE7FC0126A337A30000DF919F
S11311A0CF9108950F920FB6F8940F921F921124C5
S11311B02F923F924F925F926F927F928F929F9263
S11311C0AF92BF92CF92DF92EF92FF920F931F9351
S11311D02F933F934F935F936F937F938F939F933B
S11311E0AF93BF93CF93DF93EF93FF93A091C66028
S11311F0B091C7600DB60D920EB60D9280E098E0E6
S1131200FC0186A197A19C0140E050E080913461EB
S113121090913561A0913661B0913761820F931F2F
S1131220A41FB51F8093346190933561A0933661F8
S1131230B09337610E94310C0E94260DA091C660C4
S1131240B091C760CD91CDBFDD91DEBFFF91EF912D
S1131250DF91CF91BF91AF919F918F917F916F91CA
S11312605F914F913F912F911F910F91FF90EF90BC
S1131270DF90CF90BF90AF909F908F907F906F90B2
S11312805F904F903F902F901F900F900FBE0F9044
S113129018950000CF93DF93CDB7DEB70000DF9140
S11312A0CF9108951F920F9200903F000F92112446
S11312B0CF93DF93CDB7DEB70000DF91CF910F90CE
S11312C000923F000F901F9018958F929F92AF92BB
S11312D0BF92CF92DF92EF92FF920F931F93CF931F
S11312E0DF93CDB7DEB76097CDBFDEBF8E839F831C
S11312F0688779874A875B872C873D870E87EF86C7
S1131300F88A8A859B850E94FA038C839D838C814D
S11313109D81892BB9F08EE290E00E94FA038983C3
S11313209A8389819A81892B41F089819A812C81C0
S11313303D81FC01278B308F07C08C819D810E94E9
S1131340E90402C019821A8289819A81892B09F1E0
S11313508A859B85CC01A0E0B0E009811A814F8584
S113136058892C853D8568857985EE81FF81812C9E
S1131370912C58016A01EE8489019C01AD01CF01D1
S11313800E94DC0989819A810E94BE0A81E08B83D4
S113139002C08FEF8B838B816096CDBFDEBFDF9160
S11313A0CF911F910F91FF90EF90DF90CF90BF905E
S11313B0AF909F908F9008958F929F92AF92BF921B
S11313C0CF92DF92EF920F931F93CF93DF93CDB71A
S11313D0DEB76497CDBFDEBF8C839D836E837F832E
S11313E0288739874A875B870C871D87EE86CF86D7
S11313F0D88AA98ABA8A8B8A9C8A8E819F81892BF2
S113140031F460E673E080E190E20E948411288563
S1131410398589899A89FC018789908DA90165EAB2
S113142070E00E94FF1889899A89FC012789308D10
S1131430888599850197820F931F8A839B831982DC
S113144021C08981882F90E02981222F30E04E81AC
S11314505F81240F351FF901408129893A89820F60
S1131460931F4996FC0140838981882F90E02E8147
S11314703F81820F931FFC018081882339F0898189
S11314808F5F898389818830E0F201C000008989F7
S11314909A89FC0110A28E85843010F083E08E8737
S11314A089899A892E85FC01268B89899A892E85BA
S11314B0FC0123A389899A89FC0114A289899A8948
S11314C002960E94C30589899A890C960E94C305D5
S11314D089899A8929893A89FC01208731878E85EF
S11314E0882F90E024E030E0281B390B89899A8901
S11314F0FC012487358789899A8929893A89FC01DD
S1131500228B338B89899A89FC0115A216A217A212
S113151010A689899A89FC0111A612A613A614A6FD
S113152089899A89FC0115A64C855D852C813D81AC
S11315308A819B81B9010E9477069C0189899A89D5
S1131540FC01208331838F859889892B39F08F851D
S1131550988929893A89FC012083318300006496A3
S1131560CDBFDEBFDF91CF911F910F91EF90DF9040
S1131570CF90BF90AF909F908F900895CF93DF93BB
S11315801F921F92CDB7DEB789839A830FB6F89462
S11315900F9280911E618F5F80931E618091C6605F
S11315A09091C760892B69F489819A818093C66080
S11315B09093C76080911E618130C9F40E94930E9C
S11315C016C080912261882391F48091C660909125
S11315D0C760FC01268989819A81FC01868982176A
S11315E030F089819A818093C6609093C76080911E
S11315F026618F5F809326612091266189819A817B
S1131600FC0121A389819A81FC0196898091216141
S1131610891730F489819A81FC018689809321613C
S113162089819A81AC014E5F5F4F89819A81FC0167
S11316308689282F30E0C901880F991F880F991FC8
S1131640880F991F820F931F88539F49BA010E94E4
S1131650D6050F900FBE80912261882371F080918E
S1131660C6609091C760FC01268989819A81FC013A
S11316708689281710F40E945F0800000F900F90CD
S1131680DF91CF910895EF92FF920F93CF93DF9361
S11316901F92CDB7DEB70F2EF9E2EF2EF1E6FF2E43
S11316A0F02D00E020E030E040E051E064E270E240
S11316B080E89EE00E94650989838981813099F4DC
S11316C0F8948FEF9FEF809327619093286181E0D6
S11316D08093226110921F61109220610E944A0936
S11316E00E942A0809C089818F3F31F467E078E0BD
S11316F080E190E20E94841100000F90DF91CF916D
S11317000F91FF90EF900895CF93DF93CDB7DEB79D
S113171080912B618F5F80932B610000DF91CF91CB
S11317200895CF93DF9300D01F92CDB7DEB719820F
S11317301A821B8280912B61882331F46CE678E055
S113174080E190E20E9484110FB6F8940F92809188
S11317502B61815080932B6180912B61882309F048
S113176077C080911E61882309F472C049C08091BA
S1131770076190910861FC018681978189839A832E
S113178089819A810C960E94210689819A81029608
S11317900E94210689819A81FC01968980912161A8
S11317A0891730F489819A81FC01868980932161AB
S11317B089819A81AC014E5F5F4F89819A81FC01D6
S11317C08689282F30E0C901880F991F880F991F37
S11317D0880F991F820F931F88539F49BA010E9453
S11317E0D60589819A81FC0126898091C6609091F1
S11317F0C760FC018689281718F081E08093246172
S113180080910261882309F0B2CF89819A81892B62
S113181011F00E94200F809123618C838C81882396
S113182079F00E94310C882319F081E080932461BF
S11318308C8181508C838C81882399F71092236149
S113184080912461882321F081E08B830E945F08CA
S11318500F900FBE8B812496CDBFDEBFDF91CF9159
S11318600895CF93DF93CDB7DEB72997CDBFDEBF01
S1131870198280912B61882309F0D6C080911F6161
S11318809091206101968A839B838A819B818093B6
S11318901F61909320618A819B81892B49F58091F6
S11318A0FE609091FF60FC018081882331F066E640
S11318B07AE080E190E20E9484118091FE60909130
S11318C0FF608C839D83809100619091016180937E
S11318D0FE609093FF608C819D8180930061909362
S11318E00161809125618F5F809325610E94200FA3
S11318F080912761909128612A813B8128173907BB
S113190008F478C08091FE609091FF60FC018081B2
S1131910882339F48FEF9FEF809327619093286198
S113192069C08091FE609091FF60FC018581968181
S1131930FC01868197818E839F838E819F81FC0128
S113194082819381888799872A813B8188859985BB
S11319502817390738F488859985809327619093EF
S1131960286148C08E819F8102960E9421068E8143
S11319709F81FC0184899589892B29F08E819F811F
S11319800C960E9421068E819F81FC01968980918C
S11319902161891730F48E819F81FC0186898093AF
S11319A021618E819F81AC014E5F5F4F8E819F814B
S11319B0FC018689282F30E0C901880F991F880F00
S11319C0991F880F991F820F931F88539F49BA014B
S11319D00E94D6058E819F81FC0126898091C66074
S11319E09091C760FC018689281708F48BCF81E0A9
S11319F0898388CF8091C6609091C760FC018689F5
S1131A00282F30E0C901880F991F880F991F880F6C
S1131A10991F820F931F88539F49FC018081823054
S1131A2040F081E0898305C0809123618F5F8093BA
S1131A30236180912461882311F081E08983898165
S1131A402996CDBFDEBFDF91CF910895AF92BF92AB
S1131A50CF92DF92EF92FF920F931F93CF93DF9376
S1131A60CDB7DEB72997CDBFDEBF80912B61882328
S1131A7021F081E08093246134C11092246180E0DC
S1131A8098E0FC0180A191A19C0140E050E080918C
S1131A90346190913561A0913661B0913761820FC4
S1131AA0931FA41FB51F8093306190933161A0935D
S1131AB03261B09333612091306130913161409152
S1131AC032615091336180912C6190912D61A0918C
S1131AD02E61B0912F6182179307A407B50750F5C3
S1131AE06091C6607091C760FB0125A136A147A132
S1131AF050A5E0903061F090316100913261109115
S1131B00336180912C6190912D61A0912E61B091EF
S1131B102F6157016801A81AB90ACA0ADB0AD6015B
S1131B20C501820F931FA41FB51FFB0185A396A3B4
S1131B30A7A3B0A78091306190913161A0913261E7
S1131B40B091336180932C6190932D61A0932E61A9
S1131B50B0932F618091C6609091C760FC01878922
S1131B60908D8A839B8385EA95EADC018C839D832F
S1131B70AE83BF838A819B81FC01208131814281B4
S1131B8053818C819D81AE81BF81281739074A0713
S1131B905B0799F58A819B810496FC012081318140
S1131BA0428153818C819D81AE81BF812817390781
S1131BB04A075B0711F58A819B810896FC01208105
S1131BC03181428153818C819D81AE81BF812817EF
S1131BD039074A075B0789F48A819B810C96FC01CB
S1131BE020813181428153818C819D81AE81BF816D
S1131BF0281739074A075B0771F08091C6609091F6
S1131C00C7609C01275E3F4F8091C6609091C7607A
S1131C10B9010E9458108091216189830CC0898187
S1131C20882331F46CE87BE080E190E20E94841127
S1131C308981815089838981282F30E0C901880FE7
S1131C40991F880F991F880F991F820F931F88531C
S1131C509F49FC018081882311F38981282F30E07A
S1131C60C901880F991F880F991F880F991F820F28
S1131C70931F88539F498887998788859985FC0194
S1131C8081819281FC012281338188859985FC01BF
S1131C902183328388859985FC012181328188855D
S1131CA0998503962817390769F488859985FC0175
S1131CB081819281FC012281338188859985FC018F
S1131CC02183328388859985FC0181819281FC017D
S1131CD0868197818093C6609093C7608981809341
S1131CE0216100002996CDBFDEBFDF91CF911F9106
S1131CF00F91FF90EF90DF90CF90BF90AF90089539
S1131D00CF93DF931F921F92CDB7DEB789839A8357
S1131D100E94D50E8091C860823010F00E945F0846
S1131D200E94500FF5CFCF93DF931F92CDB7DEB74C
S1131D30198213C08981282F30E0C901880F991FA7
S1131D40880F991F880F991F820F931F88539F49EB
S1131D500E948C0589818F5F89838981843050F347
S1131D608CEE90E60E948C0585EF90E60E948C052F
S1131D7082E091E60E948C058BE091E60E948C053E
S1131D8085E191E60E948C058CEE90E68093FE60DE
S1131D909093FF6085EF90E68093006190930161DA
S1131DA000000F90DF91CF910895CF93DF931F929E
S1131DB01F92CDB7DEB721C00FB6F8940F92809171
S1131DC0106190911161FC018681978189839A83C6
S1131DD089819A8102960E94210680911E61815018
S1131DE080931E61809114618150809314610F90DF
S1131DF00FBE89819A810E94070F80911461882304
S1131E00D9F600000F900F90DF91CF910895CF93F2
S1131E10DF931F921F92CDB7DEB789839A8389819E
S1131E209A81FC018789908D0E94E90489819A81B5
S1131E300E94E90400000F900F90DF91CF91089564
S1131E40CF93DF931F921F92CDB7DEB78091FE60D0
S1131E509091FF60FC018081882339F48FEF9FEF1C
S1131E60809327619093286115C08091FE609091C2
S1131E70FF60FC0185819681FC01868197818983BD
S1131E809A8389819A81FC0182819381809327615D
S1131E909093286100000F900F90DF91CF910895E7
S1131EA0CF93DF93CDB7DEB70000DF91CF910895D4
S1131EB0CF93DF93CDB7DEB76C97CDBFDEBFF89479
S1131EC083E590E20E94B80180E096E020E8FC01FE
S1131ED0218380E096E020E8FC01258380E090E007
S1131EE0A8ECB2E489839A83AB83BC8320E030E01E
S1131EF04AEF55E469817A818B819C810E94D913D0
S1131F00DC01CB018B8B9C8BAD8BBE8B20E030E056
S1131F1040E85FE36B897C898D899E890E94531315
S1131F2088232CF481E090E08F8B988F3FC020E0D1
S1131F303FEF4FE757E46B897C898D899E890E9426
S1131F40D41318164CF520E030E040E251E46981E6
S1131F507A818B819C810E94D913DC01CB01BC0165
S1131F60CD010E945813DC01CB018F8B988F0FC0D9
S1131F7080E293E0898F9A8F898D9A8D0197F1F78A
S1131F80898F9A8F8F89988D01978F8B988F8F89DE
S1131F90988D892B69F714C06B897C898D899E89FA
S1131FA00E945813DC01CB018F8B988F8F89988DF9
S1131FB08B8F9C8F8B8D9C8D0197F1F78B8F9C8FD2
S1131FC080E096E020E8FC01268380E090E0A8EC25
S1131FD0B2E48D839E83AF83B88720E030E04AEF7C
S1131FE055E46D817E818F8198850E94D913DC012F
S1131FF0CB0189879A87AB87BC8720E030E040E833
S11320005FE369857A858B859C850E9453138823B9
S11320102CF481E090E08D879E873FC020E03FEF65
S11320204FE757E469857A858B859C850E94D41394
S113203018164CF520E030E040E251E46D817E81D9
S11320408F8198850E94D913DC01CB01BC01CD019D
S11320500E945813DC01CB018D879E870FC080E25C
S113206093E08F87988B8F8598890197F1F78F87F5
S1132070988B8D859E8501978D879E878D859E85FE
S1132080892B69F714C069857A858B859C850E94A4
S11320905813DC01CB018D879E878D859E85898BA6
S11320A09A8B89899A890197F1F7898B9A8B11CF39
S11320B0CF93DF93CDB7DEB7C05AD109CDBFDEBF12
S11320C09E0123563F4FF90180839183CE018156AF
S11320D09F4FFC0160837183F89480E096E020E8D0
S11320E0FC012183CE0181569F4FFC0121812F9356
S11320F0FC0180818F9385E790E2892F8F9385E798
S113210090E28F931F9280E88F93CE014D96292FF2
S11321102F938F930E944D198DB79EB70896CDBF0C
S1132120DEBFCE014D960E94B80180E096E020E823
S1132130FC01258380E090E0AAEFB3E489839A83CD
S1132140AB83BC8320E030E04AEF55E469817A81B7
S11321508B819C810E94D913DC01CB018B8B9C8BDE
S1132160AD8BBE8B20E030E040E85FE36B897C8977
S11321708D899E890E94531388232CF481E090E07A
S11321808F8B988F3FC020E03FEF4FE757E46B8978
S11321907C898D899E890E94D41318164CF520E001
S11321A030E040E251E469817A818B819C810E9414
S11321B0D913DC01CB01BC01CD010E945813DC0111
S11321C0CB018F8B988F0FC080E293E0898F9A8F19
S11321D0898D9A8D0197F1F7898F9A8F8F89988DC0
S11321E001978F8B988F8F89988D892B69F714C0ED
S11321F06B897C898D899E890E945813DC01CB01EF
S11322008F8B988F8F89988D8B8F9C8F8B8D9C8DC6
S11322100197F1F78B8F9C8F80E096E020E8FC011A
S1132220268380E090E0AAEFB3E48D839E83AF839E
S1132230B88720E030E04AEF55E46D817E818F81DC
S113224098850E94D913DC01CB0189879A87AB87D3
S1132250BC8720E030E040E85FE369857A858B85C0
S11322609C850E94531388232CF481E090E08D8791
S11322709E873FC020E03FEF4FE757E469857A85AA
S11322808B859C850E94D41318164CF520E030E011
S113229040E251E46D817E818F8198850E94D9133B
S11322A0DC01CB01BC01CD010E945813DC01CB0140
S11322B08D879E870FC080E293E08F87988B8F85F0
S11322C098890197F1F78F87988B8D859E85019763
S11322D08D879E878D859E85892B69F714C06985B6
S11322E07A858B859C850E945813DC01CB018D87F0
S11322F09E878D859E85898B9A8B89899A8901977A
S1132300F1F7898B9A8B11CFCF93DF93CDB7DEB7DB
S1132310C05AD109CDBFDEBF9E0123563F4FF901FC
S113232080839183CE0181569F4FFC01608371832A
S1132330F89480E096E020E8FC012183CE018156E8
S11323409F4FFC0121812F93FC0180818F93CE014B
S113235083569F4FFC0121812F93FC0180818F9331
S113236081E990E2892F8F9381E990E28F931F9204
S113237080E88F93CE014D96292F2F938F930E943F
S11323804D198DB79EB70A96CDBFDEBFCE014D96CF
S11323900E94B80180E096E020E8FC01258380E0FB
S11323A090E0A8ECB2E489839A83AB83BC8320E0F9
S11323B030E04AEF55E469817A818B819C810E94E7
S11323C0D913DC01CB018B8B9C8BAD8BBE8B20E0B6
S11323D030E040E85FE36B897C898D899E890E94A7
S11323E0531388232CF481E090E08F8B988F3FC0A7
S11323F020E03FEF4FE757E46B897C898D899E8904
S11324000E94D41318164CF520E030E040E251E469
S113241069817A818B819C810E94D913DC01CB0173
S1132420BC01CD010E945813DC01CB018F8B988F26
S11324300FC080E293E0898F9A8F898D9A8D0197DE
S1132440F1F7898F9A8F8F89988D01978F8B988F49
S11324508F89988D892B69F714C06B897C898D8944
S11324609E890E945813DC01CB018F8B988F8F8932
S1132470988D8B8F9C8F8B8D9C8D0197F1F78B8F13
S11324809C8F80E096E020E8FC01268380E090E0C9
S1132490AAEFB3E48D839E83AF83B88720E030E056
S11324A04AEF55E46D817E818F8198850E94D9130E
S11324B0DC01CB0189879A87AB87BC8720E030E0B9
S11324C040E85FE369857A858B859C850E94531378
S11324D088232CF481E090E08D879E873FC020E024
S11324E03FEF4FE757E469857A858B859C850E9489
S11324F0D41318164CF520E030E040E251E46D812D
S11325007E818F8198850E94D913DC01CB01BC01A7
S1132510CD010E945813DC01CB018D879E870FC02B
S113252080E293E08F87988B8F8598890197F1F7E4
S11325308F87988B8D859E8501978D879E878D8546
S11325409E85892B69F714C069857A858B859C855E
S11325500E945813DC01CB018D879E878D859E8553
S1132560898B9A8B89899A890197F1F7898B9A8B40
S113257011CFCF93DF93CDB7DEB72E97CDBFDEBF9C
S11325800E9412020E9485030E942D020E94B00143
S11325900E940A020E946E140E94A80181E00E9417
S11325A0721480EA90E027E0FC012283789480E0B2
S11325B090E0A0E2B1E489839A83AB83BC8320E0FA
S11325C030E04AEF55E469817A818B819C810E94D5
S11325D0D913DC01CB018D839E83AF83B88720E0C0
S11325E030E040E85FE36D817E818F8198850E94B1
S11325F0531388232CF481E090E089879A873FC0A5
S113260020E03FEF4FE757E46D817E818F8198850D
S11326100E94D41318164CF520E030E040E251E457
S113262069817A818B819C810E94D913DC01CB0161
S1132630BC01CD010E945813DC01CB0189879A8724
S11326400FC080E293E08B879C878B859C850197E4
S1132650F1F78B879C8789859A85019789879A8763
S113266089859A85892B69F714C06D817E818F8154
S113267098850E945813DC01CB0189879A87898544
S11326809A858D879E878D859E850197F1F78D8725
S11326909E870E94430B80E090E02E96CDBFDEBF64
S11326A0DF91CF9108950E94871308F481E0089583
S11326B00E94B31388F09F5798F0B92F9927B75108
S11326C0B0F0E1F0660F771F881F991F1AF0BA95D2
S11326D0C9F714C0B13091F00E94CD13B1E0089550
S11326E00C94CD13672F782F8827B85F39F0B93F42
S11326F0CCF3869577956795B395D9F73EF4909585
S11327008095709561957F4F8F4F9F4F0895990FD6
S11327100008550FAA0BE0E8FEEF16161706E807A7
S1132720F907C0F012161306E407F50798F0621BC8
S1132730730B840B950B39F40A2661F0232B242B9D
S1132740252B21F408950A2609F4A140A6958FEFBC
S1132750811D811D089557FD9058440F551F59F050
S11327605F3F71F04795880F97FB991F61F09F3F7A
S113277079F087950895121613061406551FF2CFA3
S11327804695F1DF08C0161617061806991FF1CFF3
S113279086957105610508940895E894BB2766271A
S11327A07727CB0197F908950E94871308F48FEFD8
S11327B008950E94EC130C945D140E944F1438F099
S11327C00E94561420F0952311F00C9446140C9496
S11327D04C1411240C94CE130E94AB1370F3959FE8
S11327E0C1F3950F50E0551F629FF001729FBB2704
S11327F0F00DB11D639FAA27F00DB11DAA1F649FA0
S11328006627B00DA11D661F829F2227B00DA11D52
S1132810621F739FB00DA11D621F839FA00D611DD8
S1132820221F749F3327A00D611D231F849F600DF9
S1132830211D822F762F6A2F11249F5750409AF022
S1132840F1F088234AF0EE0FFF1FBB1F661F771FAE
S1132850881F91505040A9F79E3F510580F00C9479
S113286046140C94CE135F3FE4F3983ED4F386955C
S113287077956795B795F795E7959F5FC1F7FE2B19
S1132880880F911D9695879597F9089597F99F67F5
S113289080E870E060E008959FEF80EC08950024E4
S11328A00A941616170618060906089500240A94B1
S11328B012161306140605060895092E0394000C37
S11328C011F4882352F0BB0F40F4BF2B11F460FFC6
S11328D004C06F5F7F4F8F4F9F4F089580E28093B6
S11328E041060895811104C080E28093460608954C
S11328F080E28093450608952F923F924F925F9213
S11329006F927F928F929F92AF92BF92CF92DF92FB
S1132910EF92FF920F931F93CF93DF93CDB7DEB760
S11329206097CDBFDEBF7C011B016A01FC011682EA
S11329301782838181FF44C39E012F5F3F4F39017A
S1132940F7019381F10193FD859193FF81911F011B
S1132950882309F431C3853239F493FD859193FFBB
S113296081911F01853239F4B70190E00E94111959
S113297056016501E5CF10E0512C912CFFE1F915CA
S1132980D8F08B3279F038F4803279F08332A1F4C4
S1132990F92DF0612EC08D3261F0803369F4292D58
S11329A021602DC0392D3260932E892D8460982E9C
S11329B02AC0E92DE86015C097FC2DC020ED280F32
S11329C02A3088F496FE06C03AE0139F200D1124A5
S11329D0122F19C08AE0589E200D1124522EE92D81
S11329E0E0629E2E10C08E3231F496FCE5C2F92DC1
S11329F0F0649F2E08C08C3621F4292D2068922E75
S1132A0002C0883641F4F10193FD859193FF8191D1
S1132A101F018111B3CF9BEB980F933020F4992DB4
S1132A209061805E07C09BE9980F933008F066C1FF
S1132A30992D9F7E96FF16E09F73992E853619F483
S1132A409064992E08C0863621F4392F3068932E6D
S1132A5002C01111115097FE07C01C3350F44424D6
S1132A604394410E27E00BC0183038F027E017E0FC
S1132A7005C027E09CE3492E02C0212F412C5601BA
S1132A8084E0A80EB11CF60160817181828193817A
S1132A90042DA3010E941C186C01F981FC87F0FF2E
S1132AA002C0F3FF06C091FC06C092FE06C000E21D
S1132AB005C00DE203C00BE201C000E08C858C7000
S1132AC019F001115AC29BC297FE10C04C0CFC8530
S1132AD0F4FF04C08A81813309F44A94141474F510
S1132AE028E0241578F588E0482E2CC096FC2AC0EE
S1132AF0812F90E08C159D059CF03CEFC3163FEFB1
S1132B00D30674F0892D8068982E0AC0E2E0F0E0C4
S1132B10EC0FFD1FE10FF11D8081803319F411507A
S1132B201111F4CF97FE0EC044244394410E812F1B
S1132B3090E0C816D9062CF41C1904C0442443940C
S1132B4001C010E097FE06C01C141D0434F4C60135
S1132B50019605C085E090E002C081E090E001119B
S1132B600196112331F0212F30E02F5F3F4F820F68
S1132B70931F252D30E08217930714F4581A01C0CF
S1132B80512C892D897049F4552039F0B70180E220
S1132B9090E00E9411195A94F7CF002329F0B7014D
S1132BA0802F90E00E94111993FC09C0552039F040
S1132BB0B70180E390E00E9411195A94F7CF97FE71
S1132BC04CC04601D7FE02C0812C912CC601881945
S1132BD09909F301E80FF91FED87FE87960124197F
S1132BE031092F87388B012F10E0119501951109B8
S1132BF03FEF8316930629F4B7018EE290E00E941A
S1132C001119C814D9044CF08F8598898815990531
S1132C1024F4ED85FE85818101C080E3F1E08F1A03
S1132C2091082D853E852F5F3F4F2D873E87801667
S1132C3091062CF0B70190E00E941119D9CFC81465
S1132C40D90441F49A81963320F4953319F43C85E0
S1132C5034FF81E3B70190E04EC08A81813319F0DB
S1132C609C859F7E9C87B70190E00E9411191111E9
S1132C7005C094FC18C085E690E017C0B7018EE249
S1132C8090E00E9411191E5F82E001E0080FF30139
S1132C90E80FF11D8081B70190E00E941119802F87
S1132CA00113F3CFE6CF85E490E0B7010E94111938
S1132CB0D7FC06C0C114D10441F4EC85E4FF05C07F
S1132CC0D194C194D1088DE201C08BE2B70190E0A8
S1132CD00E94111980E32AE0C216D1042CF08F5F00
S1132CE0FAE0CF1AD108F7CFB70190E00E9411198A
S1132CF0B701C601C0960E94111954C1833631F040
S1132D00833779F0833509F056C020C0560132E08C
S1132D10A30EB11CF6018081898301E010E06301F8
S1132D2012C05601F2E0AF0EB11CF601C080D18092
S1132D3096FE03C0612F70E002C06FEF7FEFC60103
S1132D400E9406198C01F92DFF7714C0560122E068
S1132D50A20EB11CF601C080D18096FE03C0612F83
S1132D6070E002C06FEF7FEFC6010E94F4188C017F
S1132D70F92DF0689F2EF3FD1AC0852D90E00817F9
S1132D801907A8F4B70180E290E00E9411195A943F
S1132D90F4CFF60197FC859197FE81916F01B701FD
S1132DA090E00E94111951105A9401501109011513
S1132DB0110579F7F7C0843611F0893661F55601AB
S1132DC097FE09C024E0A20EB11CF6016081718156
S1132DD0828193810AC0F2E0AF0EB11CF6016081DA
S1132DE07181072E000C880B990BF92DFF769F2E0D
S1132DF097FF09C090958095709561957F4F8F4F8F
S1132E009F4FF0689F2E2AE030E0A3010E948419AE
S1132E10C82EC6183FC0092D853721F40F7E2AE03D
S1132E2030E01DC0097F8F3691F018F4883559F0D1
S1132E30C3C0803719F0883711F0BEC0006104FFA9
S1132E4009C0046007C094FE08C0066006C028E0FC
S1132E5030E005C020E130E002C020E132E056015C
S1132E6007FF09C084E0A80EB11CF60160817181DE
S1132E708281938108C0F2E0AF0EB11CF60160813B
S1132E80718180E090E0A3010E948419C82EC618C5
S1132E900F77902E96FE0BC0092D0E7FC11650F4AD
S1132EA094FE0AC092FC08C0092D0E7E05C0DC2CDD
S1132EB0092D03C0DC2C01C0D12E04FF0DC0FE017E
S1132EC0EC0DF11D8081803311F4097E09C002FFED
S1132ED006C0D394D39404C0802F867809F0D39489
S1132EE003FD11C000FF06C01C2DD51480F4150D80
S1132EF01D190DC0D51458F4B70180E290E00E946A
S1132F001119D394F7CFD51410F45D1801C0512CC6
S1132F1004FF10C0B70180E390E00E94111902FF82
S1132F2017C001FD03C088E790E002C088E590E087
S1132F30B7010CC0802F867859F001FF02C08BE2E4
S1132F4001C080E207FD8DE2B70190E00E941119F3
S1132F50C11638F4B70180E390E00E9411191150B2
S1132F60F7CFCA94F301EC0DF11D8081B70190E015
S1132F700E941119C110F5CF15C0F4E0F51560F5E4
S1132F8084E0581A93FE1FC0011127C02C8523FF2B
S1132F902AC008E012E0392D3071932EF801849193
S1132FA0811124C0552009F4E4CCB70180E290E0FB
S1132FB00E9411195A94F6CFF7018681978126C091
S1132FC08FEF9FEF23C0B70180E290E00E941119B8
S1132FD05A945110F8CFD8CF512CB701802F90E0DC
S1132FE00E941119D3CF0CE012E0D5CF911080527A
S1132FF0B70190E00E9411190F5F1F4FCFCF23E05C
S1133000251510F483E0BDCF512CC0CF6096CDBF01
S1133010DEBFDF91CF911F910F91FF90EF90DF9072
S1133020CF90BF90AF909F908F907F906F905F9064
S11330304F903F902F900895283008F027E03327D1
S1133040DA01990F311D87FD9160009661057105C4
S113305039F432602E5F3D9330E32A95E1F7089509
S11330609F3F30F080387105610509F03C5F3C5F9B
S11330703D93913008F08068911DDF93CF931F93A7
S11330800F93FF92EF92192F987F9695E92F9695BB
S11330909695E90FFF27E659FD4F99273327EE242C
S11330A0FF24A701E70105900894079428F4360F3C
S11330B0E71EF81E491F511D660F771F881F991FB1
S11330C00694A1F70590079428F4E70EF81E491F0B
S11330D0561FC11D770F881F991F661F0694A1F7FD
S11330E00590079428F4F80E491F561FC71FD11DD9
S11330F0880F991F661F771F0694A1F70590079400
S113310020F4490F561FC71FD81F990F661F771F3A
S1133110881F0694A9F784911095177041F0D695ED
S1133120C79557954795F794E7941A95C1F7E0E149
S1133130F2E06894159015913591659195910590FB
S11331407FE27395E118F10A430B560BC90BD009C2
S1133150C0F7E10CF11E431F561FC91FD01D7EF49A
S1133160703311F48A95E6CFE894015030F0080FDB
S11331700AF40027021708F4202F2395022F7A332C
S113318028F079E37D932A95E9F710C07D932A9579
S113319089F6069497956795379517951794E118CE
S11331A0F10A430B560BC90BD00998F023957E9175
S11331B073957A3308F070E37C932013B8F77E910B
S11331C070617D9330F0839571E37D9370E32A956C
S11331D0E1F71124EF90FF900F911F91CF91DF91B0
S11331E0992787FD90950895FC01059061507040E2
S11331F00110D8F7809590958E0F9F1F0895DC01DC
S113320001C06D9341505040E0F70895FC016150B6
S1133210704001900110D8F7809590958E0F9F1FF4
S113322008950F931F93CF93DF93FB01238121FD17
S113323003C08FEF9FEF2CC022FF16C04681578139
S1133240248135814217530744F4A081B1819D0143
S11332502F5F3F4F208331838C93268137812F5FEB
S11332603F4F2683378314C08B01EC01FB0100849C
S1133270F185E02D1995892BE1F6D80116968D91EB
S11332809C911797019616968D939C931797CE0150
S1133290DF91CF911F910F9108950F931F93CF93B7
S11332A0DF93CDB7DEB72E97CDBFDEBF0E891F8962
S11332B0888D998D26E02C8309831A8397FF02C099
S11332C080E090E801978D839E83AE01445E5F4F5A
S11332D06A8D7B8DCE0101960E947C144D815E81A6
S11332E057FD0AC02F813885421753070CF49A0101
S11332F0F801E20FF31F10822E96CDBFDEBFDF91DF
S1133300CF911F910F910895FA01AA27283051F106
S1133310203181F1E8946F936E7F6E5F7F4F8F4F02
S11333209F4FAF4FB1E03ED0B4E03CD0670F781F61
S1133330891F9A1FA11D680F791F8A1F911DA11D46
S11333406A0F711D811D911DA11D20D009F468947F
S11333503F912AE0269F11243019305D3193DEF627
S1133360CF010895462F4770405D4193B3E00FD0DD
S1133370C9F7F6CF462F4F70405D4A3318F0495DC8
S113338031FD4052419302D0A9F7EACFB4E0A695AB
S11333909795879577956795BA95C9F700976105CD
S11333A0710508959B01AC010A2E06945795479523
S11333B037952795BA95C9F7620F731F841F951F18
S10B33C0A01D0895F894FFCF4D
S11333C80000000300000000BB03E0030000FF3F0F
S11333D82E2E2F4672656552544F532F7461736BAA
S11333E8732E630049444C45000925630925750972
S11333F825750925750D0A0009256C750909256CBB
S11334087525250D0A0009256C7509093C31252502
S11334180D0A004552524F523A206D656D6F72790C
S113342820616C6C6F636174696F6E206661696C8E
S113343865640D0A00535441434B206F76657266E8
S11334486C6F7720696E207461736B2025730D0A85
S11334580041737365727420696E2066696C652017
S113346825732C206C696E65206E722025640D0A04
S105347800004E
S9030000FC
