S01800004C696E65626F7454656D706C617465312E73726563D2
S11300000C9491010C94B2010C94B2010C94B201C1
S11300100C94B2010C94B2010C94B2010C94B20190
S11300200C94B2010C94B2010C94B2010C94B20180
S11300300C94B2010C94B2010C943F060C94B201DE
S11300400C94B2010C94B2010C94B2010C94B20160
S11300500C94B3060C94B2010C94B2010C94B2014A
S11300600C94B2010C94B2010C94B2010C94B20140
S11300700C94B2010C94B2010C94B2010C94B20130
S11300800C94B2010C94B2010C94B2010C94B20120
S11300900C94B2010C94B2010C94B2010C94B20110
S11300A00C94B2010C94B2010C94B2010C94B20100
S11300B00C94B2010C94B2010C94E5020C94B201BC
S11300C00C94B2010C94B2010C94B2010C94B201E0
S11300D00C94B2010C94B2010C94B2010C94B201D0
S11300E00C94B2010C94B2010C948D030C94B201E3
S11300F00C94BE030C94B2010C94B2010C94B201A2
S11301000C94B2010C94B2010C94B2010C94B2019F
S11301100C94B2010C94B2010C94B2010C94B2018F
S11301200C94B2010C94B2010C94B2010C94B2017F
S11301300C94B2010C94B2010C94B2010C94B2016F
S11301400C94B2010C94B2010C94B2010C94B2015F
S11301500C94B2010C94B2010C94B2010C94B2014F
S11301600C94B2010C94B2010C94B2010C94B2013F
S11301700C94B2010C94B2010C94B2010C94B2012F
S11301800C94B2010C94B2010C94B2010C94B2011F
S11301900C94B2010C94B2010C94B2010C94B2010F
S11301A00C94B2010C94B2010C94B2010C94B201FF
S11301B00C94B2010C94B2010C94B2010C94B201EF
S11301C00C94B2010C94B2010C94B2010C94B201DF
S11301D00C94B2010C94B2010C94B2010C94B201CF
S11301E00C94B2010C94B2010C94B2010C94B201BF
S11301F00C94B2010C94B2010C94B2010C949514B9
S11302000C9426030C9468140C943C030C94450A37
S11302100C948B136E616E00696E660000407A1058
S1130220F35A00A0724E18090010A5D4E80000E8A3
S11302307648170000E40B54020000CA9A3B000001
S113024000E1F505000080969800000040420F0090
S11302500000A08601000000102700000000E80351
S1130260000000006400000000000A00000000001C
S11302700100000000002C76D888DC674F0823DFDB
S1130280C1DFAE59E1B1B796E5E3E453C63AE651AE
S1130290997696E8E6C28426EB898C9B62ED407CD5
S11302A06FFCEFBC9C9F40F2BAA56FA5F490055A71
S11302B02AF75C936B6CF9676DC11BFCE0E40D4796
S11302C0FEF520E6B500D0ED902E030094357705B9
S11302D00080841E080000204E0A000000C80C3371
S11302E03333330F986E12831141EF8D2114893B00
S11302F0E65516CFFEE6DB18D1844B381BF77C1D80
S1130300901DA4BBE424203284725E228100C9F1D2
S113031024ECA1E53D276364696E6F7073757858AA
S11303205B0011241FBECFEFCDBFDFE9DEBF00E0CD
S11303300CBF11E2A0E0B0E2EAECFCE300E00BBF8A
S113034002C007900D92A833B107D9F723E6A8E3BA
S1130350B1E201C01D92A53EB207E1F70E9460130D
S11303600C94631E0C9400000F92DF93D8E0E8E332
S1130370F1E2619371938193219331934193E192DB
S1130380F1920193A192B192C192E8E3F1E2E8E320
S1130390F1E2D09366065FEF63E05A95F1F76A9550
S11303A0E1F704E013E0D0936506219138E0D0939F
S11303B065060000000000000000000000000000CE
S11303C027FFD093660600000000220F59E05A95DB
S11303D0F1F7D09366060000000000000000000062
S11303E000003A9521F71A95F1F60A95D9F6D093BB
S11303F06506DF910F901124089508950895FC0176
S11304002091A30A3091A40A4091A50A90819923CE
S113041069F0319680E49093A00A9091A10A96FF26
S1130420FCCF8093A10A91919111F5CF2093A30A57
S11304303093A40A4093A50A0895E0E2F6E087E029
S1130440818380E4808B818B828BE0E0F6E090E80E
S11304509183878B0895982F9770909324068295A3
S11304608078809304060895E0E0F6E080E48183D8
S11304708683E0E6F6E088E08183858308959F9291
S1130480AF92BF92CF92DF92EF92FF920F931F939E
S1130490CF93DF93C0E0D6E0E0E49E2E9D820E94DD
S11304A0B4019E82DF91CF911F910F91FF90EF9045
S11304B0DF90CF90BF90AF909F9008958BEC809386
S11304C0520088E0809350008091510083FFFCCF5C
S11304D082EC8093550088E1809350008091510014
S11304E084FFFCCF88ED84BF84E08093400080E0EB
S11304F0089510924421E0E8F6E088E1808B818B36
S1130500E0EAF4E088E7818383E2858381E0848301
S1130510089590914821209147218091A40484FD5D
S113052008C080914621891750F080914521821797
S1130530B8F083E08093A30410924421089580913D
S11305404621E0914B21F0914C21E80FF11D80816F
S11305508093A704809146218F5F8093462108955C
S113056080914D2181608093A60408958091452156
S11305708032E0F48091A70490914521E0914921D3
S1130580F0914A21E90FF11D8083809145218F5F0D
S1130590809345219091472180914521891788F0C6
S11305A087E08093A30410924421089583E080930C
S11305B0A3041092442190914721809145218917E9
S11305C078F782E08093A30408951F920F920FB6E8
S11305D00F9211240BB60F922F933F934F935F9377
S11305E06F937F938F939F93AF93BF93EF93FF93F7
S11305F08091A404982F9C7039F486FD21C087FD56
S113060022C01092442107C08091A4048860809382
S1130610A4041092442180914421FF91EF91BF9151
S1130620AF919F918F917F916F915F914F913F9186
S11306302F910F900BBE0F900FBE0F901F90189527
S11306400E948902E8CF0E94B602E5CFCF93DF93E0
S11306501F92CDB7DEB74FEF5FEFBE016F5F7F4FE5
S11306608091C5639091C6630E943D09898190E0A1
S11306700F90DF91CF910895CF93DF931F92CDB761
S1130680DEB7898320E04FEF5FEFBE016F5F7F4FDE
S11306908091C7639091C8630E9413088091A10A56
S11306A085FF0AC04FEF5FEF60EA7AE08091C7638D
S11306B09091C8630E943D090F90DF91CF910895F6
S11306C0E0E8F6E088E0818384E08283E0EAFAE00F
S11306D084E1838388E1848383E0858385EE868354
S11306E08CEB8783EFEDF3E680E090E282839383E3
S11306F08083918340E061E08AE00E94CF07809389
S1130700C5639093C66340E061E08AE00E94CF072E
S11307108093C7639093C86308951F920F920FB696
S11307200F9211240BB60F922F933F934F935F9325
S11307306F937F938F939F93AF93BF93EF93FF93A5
S113074020E040E050E060EA7AE08091C563909157
S1130750C6630E94E208FF91EF91BF91AF919F9110
S11307608F917F916F915F914F913F912F910F9056
S11307700BBE0F900FBE0F901F9018951F920F92F3
S11307800FB60F9211240BB60F922F933F934F93F2
S11307905F936F937F938F939F93AF93BF93EF93E5
S11307A0FF9340E050E060EA7AE08091C763909163
S11307B0C8630E94FA09FF91EF91BF91AF919F9195
S11307C08F917F916F915F914F913F912F910F90F6
S11307D00BBE0F900FBE0F901F9018950F931F9391
S11307E0CF93DF93EC010E947E0D80914E21811105
S11307F021C088E591E28093532190935421109273
S11308005521109256218FEF9FE3809351219093AD
S1130810522110924F211092502180935A2190938B
S11308205B218FE491E2809358219093592181E0D8
S113083080934E21209709F464C0AE014C5F5F4F52
S11308402396CE3FDF4308F05CC0E0915321F09142
S11308505421A3E5B1E206C080819181009739F06B
S1130860DF01FC012281338124173507A8F3C1E29B
S1130870EF34FC0709F445C0CD91DC9111978E014A
S11308800C5F1F4F808191818D939C93C901841BC0
S1130890950B8930910500F1BF01640F751FDB01D1
S11308A012968D939C9313974283538312962D91A2
S11308B03C911397A3E5B1E201C0DF01ED91FC91F6
S11308C011978281938182179307B8F3EB01E88330
S11308D0F9836D937C939A0180910E2090910F205F
S11308E0821B930B80930E2090930F200E945E0E28
S11308F00115110541F0C801DF91CF911F910F91AE
S113090008950E945E0E0E94CF1200E010E0C8011C
S1130910DF91CF911F910F910895CF93DF930097AB
S113092021F1EC0124970E947E0D4A815B81A3E5AD
S1130930B1E201C0DF01ED91FC9111972281338175
S113094024173507B8F3E883F983CD93DC938091BA
S11309500E2090910F20480F591F40930E20509362
S11309600F20DF91CF910C945E0EDF91CF9108950B
S1130970FC010396818392832FEF3FEF238334831B
S1130980858396838783908710820895FC0110865F
S113099011860895CF93DF939C01FB01DC0111962E
S11309A0CD91DC911297C283D3838C819D81848302
S11309B095838C819D81DC0112966D937C931397B2
S11309C06C837D8320873187F90180818F5F8083E9
S11309D0DF91CF910895CF93DF93EB014881598143
S11309E04F3F2FEF520701F1DC01139601C0DF01E5
S11309F01296ED91FC911397208131814217530790
S1130A00B0F7EA83FB83C483D583AC83BD8312969A
S1130A10CD93DC93139788879987FC0120812F5FFE
S1130A202083DF91CF910895FC01A781B0851296B0
S1130A30ED91FC911397E5CFCF93DF93FC01A08553
S1130A40B1852281338184819581E9018C839D83E1
S1130A5084819581EC012A833B8311962D913C91ED
S1130A601297E217F30749F0108611868C91815092
S1130A708C938C91DF91CF91089511968D939C93D3
S1130A801297F2CF31E1FC013083319722E22083C7
S1130A903197A3E3A08331976083319770833197B3
S1130AA0108231971082319760E860833197108209
S1130AB0319762E06083319763E06083319764E04B
S1130AC06083319765E06083319766E06083319796
S1130AD067E06083319768E06083319769E0608301
S1130AE0319760E1608331973083319732E130830D
S1130AF0319733E13083319734E13083319735E1F5
S1130B003083319736E13083319737E13083319741
S1130B1038E13083319739E13083319730E23083E3
S1130B20319731E2308331972083319723E2208358
S1130B303197408331975083319726E22083319750
S1130B4027E22083319728E22083319729E220830A
S1130B50319720E32083319721E3208387970895F9
S1130B60E0E0F8E081E08083868380E09DE786A36F
S1130B7097A3A091BF61B091C061CD91CDBFDD912C
S1130B80DEBFFF91EF91DF91CF91BF91AF919F9124
S1130B908F917F916F915F914F913F912F911F9111
S1130BA00F91FF90EF90DF90CF90BF90AF909F9008
S1130BB08F907F906F905F904F903F902F901F90F9
S1130BC00F900FBE0F90089581E008950F920FB615
S1130BD0F8940F921F9211242F923F924F925F929A
S1130BE06F927F928F929F92AF92BF92CF92DF9239
S1130BF0EF92FF920F931F932F933F934F935F9323
S1130C006F937F938F939F93AF93BF93CF93DF9310
S1130C10EF93FF93A091BF61B091C0610DB60D92A7
S1130C200EB60D920E94430FA091BF61B091C061B6
S1130C30CD91CDBFDD91DEBFFF91EF91DF91CF91DB
S1130C40BF91AF919F918F917F916F915F914F91E0
S1130C503F912F911F910F91FF90EF90DF90CF90D4
S1130C60BF90AF909F908F907F906F905F904F90C8
S1130C703F902F901F900F900FBE0F9008950F92EA
S1130C800FB6F8940F921F9211242F923F924F9215
S1130C905F926F927F928F929F92AF92BF92CF9208
S1130CA0DF92EF92FF920F931F932F933F934F93F3
S1130CB05F936F937F938F939F93AF93BF93CF93E0
S1130CC0DF93EF93FF93A091BF61B091C0610DB624
S1130CD00D920EB60D92209126083091270880912E
S1130CE0C9639091CA63A091CB63B091CC63820F26
S1130CF0931FA11DB11D8093C9639093CA63A093F0
S1130D00CB63B093CC630E94840D0E94430FA091E7
S1130D10BF61B091C061CD91CDBFDD91DEBFFF91C8
S1130D20EF91DF91CF91BF91AF919F918F917F917F
S1130D306F915F914F913F912F911F910F91FF9070
S1130D40EF90DF90CF90BF90AF909F908F907F9067
S1130D506F905F904F903F902F901F900F900FBE19
S1130D600F90189508951F920F920FB60F921124A9
S1130D700F900FBE0F901F9018950F931F93CF9352
S1130D80DF93EC01042F1A8D4C8D41110DC0888125
S1130D909981892B09F443C01F5F80E01A8FDF918A
S1130DA0CF911F910F91089550E0011115C08A81D0
S1130DB09B810E949A192C8D8A819B81820F911D9F
S1130DC08A839B832C813D818217930728F3888132
S1130DD099818A839B83E0CF8E819F810E949A1997
S1130DE08C8D90E09195819591092E813F81280FFA
S1130DF0391F2E833F83488159812417350730F4E6
S1130E002C813D81820F931F8E839F83023021F6B4
S1130E10112311F080E0C2CF11E080E0BFCF8C81BC
S1130E209D810E94C1111C821D821F5FB7CFFC01EE
S1130E30CB01448D442391F050E066817781640FA7
S1130E40751F66837783248135816217730720F0C9
S1130E5060817181668377830C949A190895EF9267
S1130E60FF920F931F93CF938C010FB6F8940F92B8
S1130E70FC01C68D1C16C4F4FC0181898823A1F0F1
S1130E807801F1E1EF0EF11C06C0C15069F0F801E0
S1130E908189882349F0C7010E946D0F8823A9F333
S1130EA00E942610C15099F78FEFF801868F0F909A
S1130EB00FBE0FB6F8940F92C58D1C16C4F4F8013A
S1130EC080858823A1F07801F8E0EF0EF11C06C0BC
S1130ED0C15069F0F8018085882349F0C7010E9458
S1130EE06D0F8823A9F30E942610C15099F78FEF44
S1130EF0F801858F0F900FBECF911F910F91FF9036
S1130F00EF9008951F93CF93DF93EC01162F892B55
S1130F1009F43EC00FB6F8940F92488159818B8D25
S1130F206C8D9A01869F200D311D11242C833D83E5
S1130F301A8E4A835B8390E00197689F9001699FB2
S1130F40300D1124CA01820F931F8E839F838FEF6C
S1130F508D8F8E8F111113C08885811107C00F905A
S1130F600FBE81E0DF91CF911F910895CE010896C5
S1130F700E946D0F882399F30E94E605F0CFCE01FD
S1130F8008960E94B804CE0141960E94B804E7CFA7
S1130F9063E071E089E290E20E942613BBCFFF92E6
S1130FA00F931F93CF93DF93182F062FF42E8823CC
S1130FB099F10023D1F0109FC001112481960E9461
S1130FC0EE03EC01009751F08196888399831B8F7F
S1130FD00C8F61E0CE010E948207F8A2CE01DF915E
S1130FE0CF911F910F91FF90089581E290E00E94AC
S1130FF0EE03EC01892B91F3C883D9831B8F0C8FEB
S113100061E0CE010E948207F8A2CE01DF91CF9168
S11310101F910F91FF90089566E771E089E290E2D5
S11310200E942613C6CFBF92CF92DF92EF92FF9217
S11310300F931F93CF93DF93CDB7DEB72597CDBF23
S1131040DEBF8C016B014C835D83B22E892B09F4C6
S1131050B2C0C114D10409F4A2C0F2E0BF1609F46D
S11310607DC0F801838D20E07801F8E0EF0EF11CDB
S113107010C06C817D81C7010E944D0FC8010E9480
S11310802F070E945E0E882309F44AC0F801838D5D
S113109021E00FB6F8940F92F801928D981708F496
S11310A042C0F2E0BF1609F43EC08C819D81892BB9
S11310B009F460C0222359F10F900FBE0E947E0DE7
S11310C00FB6F8940F92F801858D8F3F39F1F8012E
S11310D0868D8F3F09F10F900FBEBE016C5F7F4F6D
S11310E0CE0101960E94CF0F811148C00FB6F8942B
S11310F00F92F801928D0F900FBE838D981709F40B
S1131100B8CFC8010E942F070E945E0EBFCFCE0148
S113111001960E94C40FD0CF168EDDCF158ED7CF87
S11311200E94E605B3CF4B2DB601C8010E94BD064F
S1131130F801918991112CC0811127C00F900FBE25
S113114081E02596CDBFDEBFDF91CF911F910F9136
S1131150FF90EF90DF90CF90BF900895F801838DBA
S1131160813009F480CF63EF72E089E290E20E945B
S1131170261377CF0F900FBE80E0E3CFC8010E9403
S11311802F070E945E0E80E0DCCF0E94E605D6CFDA
S1131190C80141960E946D0F882381F2F6CFF801B1
S11311A0848D882309F459CF62EF72E089E290E2DA
S11311B00E94261352CF61EF72E089E290E20E940E
S11311C0261347CFCF92DF92EF92FF920F931F9394
S11311D0CF93DF93EC018B016A01F22E892B09F482
S11311E045C001151105C1F182E0F81671F09A8D20
S11311F08B8D9817A0F080E0DF91CF911F910F9114
S1131200FF90EF90DF90CF9008958B8D813031F077
S113121065EC73E089E290E20E9426138A8DEE8CDD
S11312204F2DB801CE010E94BD06EFEFEE1621F05E
S1131230E394EE8E81E0E0CF89898823D9F3CE014F
S113124041960E946D0F8823A9F3C114D10491F330
S113125081E0F6018083D0CF8C8D882329F264EC61
S113126073E089E290E20E942613BECF63EC73E040
S113127089E290E20E942613B4CFAF92BF92CF923C
S1131280DF92FF920F931F93CF93DF93CDB7DEB717
S11312902597CDBFDEBF8C015B014C835D83892B19
S11312A009F4A1C0A114B10409F491C020E06801BB
S11312B0F1E1CF0ED11C0FB6F8940F92F801F28C25
S11312C0F1106AC08C819D81892B09F473C022239B
S11312D009F459C00F900FBE0E947E0D0FB6F8940A
S11312E00F92F801858D8F3F09F454C0F801868D63
S11312F08F3F09F44DC00F900FBEBE016C5F7F4F4E
S1131300CE0101960E94CF0F811122C00FB6F8942E
S11313100F92F801828D0F900FBE811112C06C8163
S11313207D81C6010E944D0FC8010E942F070E94B3
S11313305E0E882311F021E0BECF0E94E60521E075
S1131340BACFC8010E942F070E945E0E21E0B3CFDE
S1131350C8010E942F070E945E0E0FB6F8940F92E8
S1131360F801828D0F900FBE8111E5CF2596CDBF78
S1131370DEBFDF91CF911F910F91FF90DF90CF904F
S1131380BF90AF900895CE0101960E94C40FA2CFE2
S1131390168EB1CF158EAACFB501C8010E941707CA
S11313A0FA94F801F28E8085811108C00F900FBE67
S11313B081E0DCCF0F900FBE80E0D8CFC801089643
S11313C00E946D0F882391F30E94E605EFCFF80188
S11313D0848D882309F46ACF64E075E089E290E2A1
S11313E00E94261363CF60E075E089E290E20E94D8
S11313F0261358CFCF92DF92EF92FF920F931F9351
S1131400CF93DF93EC017B016A01892BB9F1E114DD
S1131410F104D1F01A8D11110AC080E0DF91CF914F
S11314201F910F91FF90EF90DF90CF9008950D8D55
S1131430B701CE010E94170711501A8F0F3F71F0A8
S11314400F5F0D8F81E0EACF8C8D882319F36CEF49
S113145076E089E290E20E942613DCCF8885882317
S113146089F3CE0108960E946D0F882359F3C114A5
S1131470D10441F381E0F6018083D0CF6BEF76E0B5
S113148089E290E20E942613C2CF20C00FB6F894DE
S11314900F92E0917861F0917961C681D781CE0194
S11314A002960E941C058091686181508093686156
S11314B0809172618150809372610F900FBE8F8909
S11314C0988D0E948D04CE010E948D0480917261DA
S11314D08111DCCF80919B61823010F00E94E6057F
S11314E00E94CE12F3CFCF93DF93EC010E94B31985
S11314F0FE0101900020E9F73197EC1BFD0BE7306A
S1131500F10560F4EC0FFD1F9E01295F3F4F80E25F
S11315108193E217F307E1F7E7E0F0E0CE018E0FE5
S11315209F1FFC011082DF91CF910895E0918761A4
S1131530F09188610580F681E02D0680F781E02D29
S11315408281938180935E6190935F610895FF929D
S11315500F931F93CF93DF93EC01F62E00916661F6
S1131560109167618091BF619091C06102960E9461
S11315701C05CF3F8FEFD807A9F1C00FD11FE09111
S1131580BF61F091C061C283D3836091BF617091E8
S1131590C061C017D107C8F08091876190918861BC
S11315A06E5F7F4F0E94EB0480915E6190915F615A
S11315B0C817D90720F4C0935E61D0935F61DF91AF
S11315C0CF911F910F91FF90089580918561909123
S11315D086616E5F7F4FDF91CF911F910F91FF90D6
S11315E00C94EB04FF2049F26091BF617091C061DB
S11315F06E5F7F4F89E691E6DF91CF911F910F9146
S1131600FF900C94CA040F931F93CF9310926261BE
S113161020912008309121088091C9639091CA6378
S1131620A091CB63B091CC63820F931FA11DB11D18
S113163000915761109158612091596130915A611C
S1131640081719072A073B07A0F4E091BF61F0913E
S1131650C06145A156A167A170A5401B510B620B47
S1131660730B480F591F6A1F7B1F45A356A367A31B
S113167070A78093576190935861A0935961B09378
S11316805A61E091BF61F091C0610788F08DE02D4F
S113169080819181A281B381853A954AA54AB54A50
S11316A009F44CC06091BF617091C0618091BF61C9
S11316B09091C061675E7F4F0E94EE12C091656198
S11316C08C2F90E09C01220F331F220F331F220F17
S11316D0331FF901E80FF91FE556FE494081411116
S11316E00CC0CC2311F0C150EBCF6CE87BE08DE350
S11316F090E20E942613C150E3CF820F931FDC01B6
S1131700A556BE491196ED91FC9112970280F38182
S1131710E02D1196ED93FC93129782569E49E8179B
S1131720F90759F1868197818093BF619093C061D5
S1131730C0936561CF911F910F9108958481958124
S1131740A681B781853A954AA54AB54A09F0AACF38
S113175080859185A285B385853A954AA54AB54A7F
S113176009F0A0CF84859585A685B785853A954AE5
S1131770A54AB54A09F096CFA1CF0280F381E02DA6
S11317801196ED93FC931297CDCF5F926F927F9257
S11317908F929F92AF92BF92CF92DF92EF92FF927D
S11317A00F931F93CF93DF934C01EB015A0139013F
S11317B0502ECA010E94EE038C01892B09F4DCC06F
S11317C08EE290E00E94EE036C01009709F4D1C010
S11317D0DC0157960D931C935897209709F4CEC0BB
S11317E0C801A50165EA70E00E94A319F1E0AF1AEF
S11317F0B108D60157968D919C915897A80EB91EA1
S1131800F60179969E01285F3F4FDE01899181930D
S11318108C91882319F0C217D307B9F7F60110A2E7
S1131820052D043008F09FC0D60156960C935697A8
S113183093960C93939794961C92E6012296CE016C
S11318400E94C604C6010C960E94C604F601C08616
S1131850D18684E090E0801B910984879587C28AB1
S1131860D38A15A216A217A210A611A612A613A611
S113187014A615A6A301B401C5010E944205D60110
S11318808D939C93E114F10419F0F701C082D18285
S11318900FB6F8940F92809168618F5F80936861AE
S11318A08091BF619091C061892B99F080916461AE
S11318B0811118C0E091BF61F091C061D6015696C4
S11318C08C919689891788F0C092BF61D092C061CB
S11318D00CC0C092BF61D092C061809168618130B8
S11318E009F456C0D60156968C91909160619F5F21
S11318F090936061F60191A390916561981780F1CE
S113190090E09C01220F331F220F331F220F331F3D
S1131910820F931FBE0185569E490E94CA040F90F0
S11319200FBE80916461882351F0E091BF61F09112
S1131930C0619689D60156968C919817B0F081E0D3
S1131940DF91CF911F910F91FF90EF90DF90CF9097
S1131950BF90AF909F908F907F906F905F9008950D
S113196080936561CDCF03E05FCF0E94E60581E0FF
S1131970E7CFC8010E948D048FEFE2CF60E673E0E9
S11319808DE390E20E942613F6018789908D29CF7A
S11319908BE991E60E94B80484EA91E60E94B804B7
S11319A08DEA91E60E94B80486EB91E60E94B804A1
S11319B082E991E60E94B80489E891E60E94B8049D
S11319C08CE791E60E94B80483E791E60E94B8048C
S11319D089E691E60E94B80482E991E680938761E2
S11319E09093886189E891E68093856190938661FC
S11319F0F60186897ACFCF93DF93EC01892B09F422
S1131A003AC08091BF619091C061C817D90779F13C
S1131A100FB6F8940F928A859B8520918761309147
S1131A20886140918561509186610F900FBE821745
S1131A309307A9F08417950791F021E68936920758
S1131A4051F021E68337920771F0892B61F081E030
S1131A50DF91CF9108958C899D89892B99F082E03B
S1131A60DF91CF91089584E0DF91CF91089580E0D4
S1131A70DF91CF9108956CE475E08DE390E20E94CC
S1131A802613BFCF8DA5813051F383E0E1CFEF92D0
S1131A90FF920F938CE5E82E81E6F82E00E020E01B
S1131AA030E040E051E061E570E285E49AE00E94B4
S1131AB0C50B813079F08F3F21F00F91FF90EF90AB
S1131AC0089567E078E08DE390E20F91FF90EF9046
S1131AD00C942613F8942FEF3FEF20935E6130931C
S1131AE05F618093646110926661109267610E94E5
S1131AF0B2060F91FF90EF900C94B00580915B615A
S1131B008F5F80935B610895DF92EF92FF920F9352
S1131B101F93CF93DF9380915B618111B9C0E090F3
S1131B206661F09067618FEFE81AF80AE0926661E7
S1131B30F0926761E114F10449F5E0918761F09155
S1131B40886180818111ABC08091876190918861A7
S1131B5020918561309186612093876130938861FB
S1131B608093856190938661809161618F5F80939A
S1131B706161E0918761F09188618081811196C0F3
S1131B808FEF9FEF80935E6190935F6180915E61C0
S1131B9090915F61D12CE816F90608F453C0E091E6
S1131BA08761F09188618081882309F445C0E091C0
S1131BB08761F09188610580F681E02DC681D78127
S1131BC08A819B81E816F90608F473C08E010E5FC2
S1131BD01F4FC8010E941C058C899D89892B21F007
S1131BE0CE010C960E941C058E8990916561981710
S1131BF010F48093656190E09C01220F331F220F43
S1131C00331F220F331F820F931FB80185569E493D
S1131C100E94CA04E091BF61F091C0619E898689E7
S1131C20981708F4BCCFDD24D394E0918761F09138
S1131C30886180818111BBCF8FEF9FEF80935E61BC
S1131C4090935F61E091BF61F091C061868990E0FB
S1131C50FC01EE0FFF1FEE0FFF1FEE0FFF1F8E0F95
S1131C609F1FFC01E556FE498081823010F0DD247F
S1131C70D39480916261882311F0DD24D3948D2D57
S1131C80DF91CF911F910F91FF90EF90DF90089516
S1131C90809163618F5F80936361D12CEACF66E6A4
S1131CA07AE08DE390E20E9426134ECF0E94960ABA
S1131CB06DCF80935E6190935F61C4CFFF920F9369
S1131CC01F93CF93DF9380915B61882309F477C0DE
S1131CD00FB6F8940F9280915B61815080935B61A1
S1131CE080915B61811162C080916861882309F4ED
S1131CF05DC0C0E0D0E0FF24F39480917C61882330
S1131D00A1F1E0918161F0918261C681D781CE0118
S1131D100C960E941C058E010E5F1F4FC8010E9485
S1131D201C058E8990916561981710F48093656104
S1131D3090E09C01220F331F220F331F220F331F09
S1131D40820F931FB80185569E490E94CA04E091F0
S1131D50BF61F091C0619E898689981770F2F092F4
S1131D60626180917C618111CCCFCD2B69F0E091CF
S1131D708761F0918861808181112CC08FEF9FEF82
S1131D8080935E6190935F61C0916361CC2351F055
S1131D90D1E00E94840D8111D0936261C150C9F7D2
S1131DA01092636180916261811110C080E00F9094
S1131DB00FBEDF91CF911F910F91FF9008956CE6B4
S1131DC078E08DE390E20E94261382CF0E94E6051C
S1131DD081E0EDCF0E94960AD7CF0F931F93CF9344
S1131DE0DF938C01EB01892B09F446C02097E9F1BC
S1131DF080915B61811132C080915B618F5F8093C0
S1131E005B614091666150916761F8012081318185
S1131E10CE01820F931F4217530788F4821793074A
S1131E2088F0F801808391830E945E0E811102C0C4
S1131E300E94E605DF91CF911F910F9108958217BB
S1131E40930718F04817590760F7F80180839183C6
S1131E5060E0841B950B0E94A70AE6CF6CEC74E04B
S1131E608DE390E20E942613C7CF6BEC74E08DE300
S1131E7090E20E942613BCCF6AEC74E08DE390E2FA
S1131E800E942613B3CF80915B61811102C00C9430
S1131E90030B81E08093626108950F931F93CF93A6
S1131EA0DF93EC018B01892B89F06091BF61709104
S1131EB0C061645F7F4FCE010E94EB0461E0C80102
S1131EC0DF91CF911F910F910C94A70A63EA7BE0F5
S1131ED08DE390E20E942613E8CF0F931F93CF93D4
S1131EE0DF93DC011596ED91FC911697C681D7819D
S1131EF0209709F442C08E01045F1F4FC8010E945D
S1131F001C0580915B61811129C00A501109C80127
S1131F100E941C058E8990916561981728F190E0C4
S1131F209C01220F331F220F331F220F331F820FF6
S1131F30931FB80185569E490E94CA04E091BF616F
S1131F40F091C0619E898689891788F481E0809325
S1131F506261DF91CF911F910F910895B8018CE7D1
S1131F6091E60E94CA04EACF80936561D8CF80E0ED
S1131F70DF91CF911F910F9108956EEF7BE08DE378
S1131F8090E20E942613B7CF20916161FC01208367
S1131F9020916661309167612183328308950F93A4
S1131FA01F93CF93DF93EC018B01892B09F440C07D
S1131FB00115110509F443C00FB6F8940F928091EE
S1131FC0666190916761F801208131812F3FFFEFB5
S1131FD03F0761F149815A81609161617881761787
S1131FE019F08417950780F4841B950B82179307C7
S1131FF068F0F8011082118281E00F900FBEDF912A
S1132000CF911F910F91089581E0F7CF281B390BD1
S1132010F8012083318380916161888380916661B6
S11320209091676189839A8380E0E7CF80E0E5CF70
S113203069E67CE08DE390E20E942613B9CF6AE65C
S11320407CE08DE390E20E942613B6CF81E080937A
S113205062610895FF920F931F93CF93DF938C01D6
S1132060EB01F42E892B09F464C008831983C80199
S113207049968A839B83D80156968C9156978E8372
S113208057968D919C9158978C879D8791968C91AA
S113209091978C8393968C9193978F8395968D913A
S11320A09D910D90BC91A02D88879987AA87BB87A5
S11320B0253009F443C08091BF619091C061081735
S11320C0190709F440C02D83233021F1FF20D1F0FA
S11320D0D8015796ED91FC9158978081853AA9F5DE
S11320E0319680E090E0DC010196A11DB11D2191A3
S11320F0253AD1F38E879F87DF91CF911F910F915E
S1132100FF9008951E861F86DF91CF911F910F9136
S1132110FF90089580915B618F5F80935B61F8010C
S113212084899589892B11F082E08D830E945E0E4B
S1132130CDCF0091BF611091C06197CFC8010E94BB
S1132140FB0C8D83C3CF1D82C1CF80E090E0D2CF42
S11321508F929F92AF92BF92CF92DF92EF92FF92B3
S11321600F931F93CF93DF935C018B01D42FDB017B
S11321701196ED91FC9112970280F381E02D119656
S1132180ED93FC9312977B01B3E0EB0EF11CEE157B
S1132190FF05E1F1C680D780C0E016C08680978035
S11321A0B501B0E1CB9F600D711D11242D2F41E0CD
S11321B0C4010E942A10CF5FC814D904C9F0D80101
S11321C01196ED91FC9112970280F381E02DD801D4
S11321D01196ED93FC931297EE16FF06F9F61596F9
S11321E0ED91FC9116971196ED93FC931297D6CF2F
S11321F08C2FDF91CF911F910F91FF90EF90DF9083
S1132200CF90BF90AF909F908F9008950280F381FC
S1132210E02DC0CFEF92FF920F931F93CF93DF93E4
S11322208C017A0180915B618F5F80935B61809107
S11322306861681708F463C0C4E0D0E0C1506C2F33
S113224070E0CB01880F991F880F991F880F991F81
S1132250680F791FFB01E556FE498081811144C056
S113226080E0D80FC111EACFE0918761F0918861D5
S11322708081811146C080E0D80FE0918561F091A2
S113228086618081811150C080E0D80F8091736194
S113229081115AC080E0D80F80916961811165C0B5
S11322A080E0D80FE114F104A9F0209120083091C6
S11322B021088091C9639091CA63A091CB63B091C6
S11322C0CC63820F931FA11DB11DF70180839183FD
S11322D0A283B3830E945E0E8D2FDF91CF911F9155
S11322E00F91FF90EF90089541E0BF01C80120E1F4
S11322F0D29F800D911D11240E94A810B2CFD0E06E
S1132300E9CF42E0BF01C801E0E1DE9F800D911DED
S113231011240E94A810D80FE0918561F091866184
S11323208081882309F4B0CF42E0BF01C801F0E105
S1132330DF9F800D911D11240E94A810D80F809159
S11323407361882309F4A6CF44E063E771E6C8010A
S113235020E1D29F800D911D11240E94A810D80F56
S113236080916961882309F49BCF43E069E671E6B3
S1132370C801E0E1DE9F800D911D11240E94A81088
S113238090CF0F931F93CF93DF930097C9F0EC0185
S11323908091BF619091C061C817D90731F06EE791
S11323A07FE08DE390E20E9426138CA18823C1F183
S11323B081508CA32E899BA1291711F0882331F019
S11323C080E0DF91CF911F910F9108958E010E5FF0
S11323D01F4FC8010E941C052BA12E8B822F90E059
S11323E044E050E0481B590B4C875D873091656190
S11323F0321710F4209365619C01220F331F220FC2
S1132400331F220F331F820F931FB80185569E4935
S11324100E94CA0481E0DF91CF911F910F9108952A
S11324206FE77FE08DE390E20E9426138CA1C0CF7A
S11324302F923F924F925F926F927F928F929F92D0
S1132440AF92BF92CF92DF92EF92FF920F931F93BE
S1132450CF93DF9300D01F92CDB7DEB78C01FC0180
S11324601082F090686180916861F0E18F9FC001F3
S113247011240E94EE035C01009709F479C0AE01B7
S11324804F5F5F4F6F2D0E940A11882E69817A81F8
S11324908B819C8124E630E040E050E00E94951856
S11324A029833A834B835C8321153105410551050A
S11324B009F45BC0882009F458C07501912C83E7A6
S11324C0C82E80E2D82E95E6292E90E2392E26C019
S11324D07F926F925F924F92F70183858F938285EB
S11324E08F9381858F9380858F933F922F921F9333
S11324F00F930E94901ACDBFDEBFF8010190002017
S1132500E9F78F0101501109939490E1E90EF11C50
S1132510891459F129813A814B815C81F7016085E5
S11325207185828593850E94951829013A01F701E6
S113253062817381C8010E94730A8C0141145104A1
S11325406104710429F6F70183858F9382858F9343
S113255081858F9380858F93DF92CF921F930F9302
S11325600E94901ACDBFDEBFC8CFC5010E948D0462
S11325702496CDBFDEBFDF91CF911F910F91FF90C5
S1132580EF90DF90CF90BF90AF909F908F907F900F
S11325906F905F904F903F902F9008950895F89416
S11325A080E890E20E94FF0180E880930106809316
S11325B005062FEF33EC99E0215030409040E1F7CD
S11325C000C00000809306062FEF33EC99E0215001
S11325D030409040E1F700C00000E9CFCF93DF9393
S11325E0CDB7DEB7C058D109CDBFDEBFF89480E8BF
S11325F0809301067F936F9322EA30E23F932F93F7
S11326001F928F938E010F5F1F4F1F930F930E9492
S1132610591AC8010E94FF01CDBFDEBF80E8809334
S113262005063FEF93ED20E3315090402040E1F761
S113263000C00000809306063FEF93ED20E3315085
S113264090402040E1F700C00000E9CFCF93DF9332
S1132650CDB7DEB7C058D109CDBFDEBFF89420E8AE
S1132660209301067F936F939F938F938EEB90E259
S11326709F938F931F922F938E010F5F1F4F1F9372
S11326800F930E94591AC8010E94FF01CDBFDEBFFB
S113269080E8809305063FEF93EC29E031509040A9
S11326A02040E1F700C00000809306063FEF93ED61
S11326B020E3315090402040E1F700C00000E9CF12
S11326C00E945E020E9460030E9479020E94FE0141
S11326D00E941D020E94E7140E94FD0181E00E94F5
S11326E0EB140E94340287E08093A20078942FEFC9
S11326F089EF90E0215080409040E1F700C0000055
S11327000E9454140E94D3140E9481140E94470D05
S113271080E090E00895CEEDD0E21FE088E0F82E4E
S113272001E04091CD635091CE636091CF6370918D
S1132730D0634093D5635093D6636093D76370930B
S1132740D86320912008309121088091C963909129
S1132750CA63A091CB63B091CC63820F931FA11D78
S1132760B11D8093CD639093CE63A093CF63B09358
S1132770D063841B950BA60BB70B4091102050918E
S113278011206091122070911320841B950BA60BCD
S1132790B70B8093D1639093D263A093D363B09328
S11327A0D4639C0197FD6DC04091C1615091C26199
S11327B06091C3617091C461FA0157FD5DC080905E
S11327C0D9639090DA63A090DB63B090DC63E21786
S11327D0F307E4F5E3E08E169104A104B104B0F12B
S11327E0A901330F660B770B4093C1615093C2610B
S11327F06093C3617093C4617F936F935F934F93AE
S1132800BF93AF939F938F93DF93CF930E94011A4B
S113281060911420709115208DED93E60E94ED0EC9
S1132820809116200E942B028091172090911820ED
S11328302DB73EB7265F3F4F2DBF3EBF8130910578
S113284099F0029719F1109316206BCF2FEF821A8B
S1132850920AA20AB20A8092D9639092DA63A09291
S1132860DB63B092DC63C8CF809116208830B1F06E
S1132870880F8093162055CFEE27FF27E41BF50B16
S11328809ECF22273327281B390B8ECF8091162009
S1132890813039F086958093162043CF009316201B
S11328A040CFF09216203DCFEF92FF920F93E12C90
S11328B0F12C02E020E030E040E051E06AEF70E209
S11328C08BE893E10E94C50B0F91FF90EF90089560
S11328D00FB6F8940F92AA24AA94BA2CCA2CD12C1D
S11328E0E12CF12C0FEF10E020E03FEF40E050E04E
S11328F06FEF70E080E090E00E943F020F900FBE07
S1132900E7CFEF92FF920F93E12CF12C01E020E04E
S113291030E040E053E064E071E288E694E10E9434
S1132920C50B0F91FF90EF90089509E110E2CBE001
S1132930D1E283E0A82EB12C92E0C92ED12CEE2452
S1132940E394F12C08C0E0921720F092182085EC53
S113295091E60E94151A1F930F93DF93CF930E9461
S1132960451A85EC91E60E9418126EE071E289E145
S113297090E20E94AA190F900F900F900F90892B4C
S113298011F36EE171E289E190E20E94AA19892BA8
S113299029F4C0921720D0921820D9CFA0921720E2
S11329A0B0921820D4CFEF92FF920F93E12CF12C28
S11329B001E020E030E040E053E06FE271E285E9BD
S11329C094E10E94C50B0F91FF90EF90089580E26F
S11329D0809341060895811104C080E280934606E5
S11329E0089580E28093450608952F923F924F9276
S11329F05F926F927F928F929F92AF92BF92CF928B
S1132A00DF92EF92FF920F931F93CF93DF93CDB793
S1132A10DEB76097CDBFDEBF7C011B016A01FC01FC
S1132A2016821782838181FF44C39E012F5F3F4F2B
S1132A303901F7019381F10193FD859193FF819110
S1132A401F01882309F431C3853239F493FD85913C
S1132A5093FF81911F01853239F4B70190E00E9400
S1132A60C51956016501E5CF10E0512C912CFFE109
S1132A70F915D8F08B3279F038F4803279F083325A
S1132A80A1F4F92DF0612EC08D3261F0803369F428
S1132A90292D21602DC0392D3260932E892D84601B
S1132AA0982E2AC0E92DE86015C097FC2DC020EDB2
S1132AB0280F2A3088F496FE06C03AE0139F200DB2
S1132AC01124122F19C08AE0589E200D1124522E71
S1132AD0E92DE0629E2E10C08E3231F496FCE5C2E0
S1132AE0F92DF0649F2E08C08C3621F4292D20681E
S1132AF0922E02C0883641F4F10193FD859193FF33
S1132B0081911F018111B3CF9BEB980F933020F477
S1132B10992D9061805E07C09BE9980F933008F06F
S1132B2066C1992D9F7E96FF16E09F73992E853678
S1132B3019F49064992E08C0863621F4392F306830
S1132B40932E02C01111115097FE07C01C3350F48C
S1132B5044244394410E27E00BC0183038F027E09A
S1132B6017E005C027E09CE3492E02C0212F412C29
S1132B70560184E0A80EB11CF60160817181828146
S1132B809381042DA3010E94B7186C01F981FC877D
S1132B90F0FF02C0F3FF06C091FC06C092FE06C01F
S1132BA000E205C00DE203C00BE201C000E08C8529
S1132BB08C7019F001115AC29BC297FE10C04C0CC4
S1132BC0FC85F4FF04C08A81813309F44A94141407
S1132BD074F528E0241578F588E0482E2CC096FC7E
S1132BE02AC0812F90E08C159D059CF03CEFC31604
S1132BF03FEFD30674F0892D8068982E0AC0E2E076
S1132C00F0E0EC0FFD1FE10FF11D8081803319F41A
S1132C1011501111F4CF97FE0EC044244394410E79
S1132C20812F90E0C816D9062CF41C1904C0442442
S1132C30439401C010E097FE06C01C141D0434F434
S1132C40C601019605C085E090E002C081E090E0F5
S1132C5001110196112331F0212F30E02F5F3F4FF6
S1132C60820F931F252D30E08217930714F4581A0E
S1132C7001C0512C892D897049F4552039F0B701D0
S1132C8080E290E00E94C5195A94F7CF002329F0FE
S1132C90B701802F90E00E94C51993FC09C055200C
S1132CA039F0B70180E390E00E94C5195A94F7CF38
S1132CB097FE4CC04601D7FE02C0812C912CC60160
S1132CC088199909F301E80FF91FED87FE8796012A
S1132CD0241931092F87388B012F10E011950195A4
S1132CE011093FEF8316930629F4B7018EE290E0B1
S1132CF00E94C519C814D9044CF08F859889881589
S1132D00990524F4ED85FE85818101C080E3F1E01D
S1132D108F1A91082D853E852F5F3F4F2D873E8763
S1132D20801691062CF0B70190E00E94C519D9CF06
S1132D30C814D90441F49A81963320F4953319F4D4
S1132D403C8534FF81E3B70190E04EC08A81813332
S1132D5019F09C859F7E9C87B70190E00E94C5195D
S1132D60111105C094FC18C085E690E017C0B701A6
S1132D708EE290E00E94C5191E5F82E001E0080F18
S1132D80F301E80FF11D8081B70190E00E94C5199D
S1132D90802F0113F3CFE6CF85E490E0B7010E94C2
S1132DA0C519D7FC06C0C114D10441F4EC85E4FF75
S1132DB005C0D194C194D1088DE201C08BE2B70162
S1132DC090E00E94C51980E32AE0C216D1042CF0D9
S1132DD08F5FFAE0CF1AD108F7CFB70190E00E94D5
S1132DE0C519B701C601C0960E94C51954C18336DE
S1132DF031F0833779F0833509F056C020C056018D
S1132E0032E0A30EB11CF6018081898301E010E059
S1132E10630112C05601F2E0AF0EB11CF601C0808E
S1132E20D18096FE03C0612F70E002C06FEF7FEF88
S1132E30C6010E94BA198C01F92DFF7714C05601FE
S1132E4022E0A20EB11CF601C080D18096FE03C020
S1132E50612F70E002C06FEF7FEFC6010E948F19EF
S1132E608C01F92DF0689F2EF3FD1AC0852D90E09A
S1132E7008171907A8F4B70180E290E00E94C51969
S1132E805A94F4CFF60197FC859197FE81916F01D6
S1132E90B70190E00E94C51951105A9401501109CC
S1132EA00115110579F7F7C0843611F0893661F5FB
S1132EB0560197FE09C024E0A20EB11CF601608100
S1132EC07181828193810AC0F2E0AF0EB11CF601D8
S1132ED060817181072E000C880B990BF92DFF7608
S1132EE09F2E97FF09C090958095709561957F4FAF
S1132EF08F4F9F4FF0689F2E2AE030E0A3010E947D
S1132F00B91AC82EC6183FC0092D853721F40F7E83
S1132F102AE030E01DC0097F8F3691F018F488351F
S1132F2059F0C3C0803719F0883711F0BEC0006172
S1132F3004FF09C0046007C094FE08C0066006C010
S1132F4028E030E005C020E130E002C020E132E0BA
S1132F50560107FF09C084E0A80EB11CF601608188
S1132F6071818281938108C0F2E0AF0EB11CF60139
S1132F706081718180E090E0A3010E94B91AC82E9B
S1132F80C6180F77902E96FE0BC0092D0E7FC11622
S1132F9050F494FE0AC092FC08C0092D0E7E05C0B0
S1132FA0DC2C092D03C0DC2C01C0D12E04FF0DC084
S1132FB0FE01EC0DF11D8081803311F4097E09C0FE
S1132FC002FF06C0D394D39404C0802F867809F0FE
S1132FD0D39403FD11C000FF06C01C2DD51480F44A
S1132FE0150D1D190DC0D51458F4B70180E290E0F9
S1132FF00E94C519D394F7CFD51410F45D1801C0FD
S1133000512C04FF10C0B70180E390E00E94C51961
S113301002FF17C001FD03C088E790E002C088E505
S113302090E0B7010CC0802F867859F001FF02C0F0
S11330308BE201C080E207FD8DE2B70190E00E94BF
S1133040C519C11638F4B70180E390E00E94C51990
S11330501150F7CFCA94F301EC0DF11D8081B70133
S113306090E00E94C519C110F5CF15C0F4E0F51524
S113307060F584E0581A93FE1FC0011127C02C8507
S113308023FF2AC004E112E0392D3071932EF80198
S11330908491811124C0552009F4E4CCB70180E265
S11330A090E00E94C5195A94F6CFF7018681978162
S11330B026C08FEF9FEF23C0B70180E290E00E940B
S11330C0C5195A945110F8CFD8CF512CB701802F7D
S11330D090E00E94C519D3CF08E112E0D5CF91103A
S11330E08052B70190E00E94C5190F5F1F4FCFCFE8
S11330F023E0251510F483E0BDCF512CC0CF60969A
S1133100CDBFDEBFDF91CF911F910F91FF90EF9064
S1133110DF90CF90BF90AF909F908F907F906F90F3
S11331205F904F903F902F900895A1E21A2EAA1B12
S1133130BB1BFD010DC0AA1FBB1FEE1FFF1FA21763
S1133140B307E407F50720F0A21BB30BE40BF50B60
S1133150661F771F881F991F1A9469F760957095E9
S1133160809590959B01AC01BD01CF010895283055
S113317008F027E03327DA01990F311D87FD9160AC
S113318000966105710539F432602E5F3D9330E39A
S11331902A95E1F708959F3F30F080387105610565
S11331A009F03C5F3C5F3D93913008F08068911DCD
S11331B0DF93CF931F930F93FF92EF92192F987F72
S11331C09695E92F96959695E90FFF27EA58FD4FB6
S11331D099273327EE24FF24A701E70105900894DB
S11331E0079428F4360FE71EF81E491F511D660F79
S11331F0771F881F991F0694A1F70590079428F458
S1133200E70EF81E491F561FC11D770F881F991F0F
S1133210661F0694A1F70590079428F4F80E491F39
S1133220561FC71FD11D880F991F661F771F06944D
S1133230A1F70590079420F4490F561FC71FD81F04
S1133240990F661F771F881F0694A9F7849110951C
S1133250177041F0D695C79557954795F794E7941D
S11332601A95C1F7ECE1F2E0689415901591359147
S11332706591959105907FE27395E118F10A430BEE
S1133280560BC90BD009C0F7E10CF11E431F561FA2
S1133290C91FD01D7EF4703311F48A95E6CFE894EB
S11332A0015030F0080F0AF40027021708F4202F09
S11332B02395022F7A3328F079E37D932A95E9F751
S11332C010C07D932A9589F606949795679537954E
S11332D017951794E118F10A430B560BC90BD00943
S11332E098F023957E9173957A3308F070E37C937C
S11332F02013B8F77E9170617D9330F0839571E36C
S11333007D9370E32A95E1F71124EF90FF900F91DC
S11333101F91CF91DF91992787FD90950895FC0126
S11333200590615070400110D8F7809590958E0FEC
S11333309F1F0895FB01DC0102C001900D924150D2
S11333405040D8F70895DC0101C06D9341505040BE
S1133350E0F70895FB01DC018D91019080190110C3
S1133360D9F3990B0895FB01DC0101900D92002023
S1133370E1F70895FC016150704001900110D8F705
S1133380809590958E0F9F1F08950F931F93CF9351
S1133390DF93FB01238121FD03C08FEF9FEF2CC03E
S11333A022FF16C046815781248135814217530775
S11333B044F4A081B1819D012F5F3F4F208331836D
S11333C08C93268137812F5F3F4F2683378314C028
S11333D08B01EC01FB010084F185E02D1995892B0B
S11333E0E1F6D80116968D919C9117970196169641
S11333F08D939C931797CE01DF91CF911F910F91DD
S11334000895CF93DF93CDB7DEB7AE014A5F5F4F28
S1133410FA0161917191AF018091E1639091E2634E
S11334200E94F514DF91CF9108950F931F93CF93CA
S1133430DF93E091E163F091E263238121FF1BC0FC
S11334408C01D0E0C0E0F80181918F016091E163CB
S11334507091E263DB011896ED91FC911997882332
S113346031F01995892B79F3DFEFCFEFECCF8AE0B8
S11334701995892B19F08FEF9FEF02C08D2F9C2F88
S1133480DF91CF911F910F910895CF93DF93CDB723
S1133490DEB7AE014A5F5F4FFA0161917191AF01EE
S11334A08091DF639091E0630E94D01CDF91CF9103
S11334B008950F931F93CF93DF93CDB7DEB72E9765
S11334C0CDBFDEBF0E891F89888D998D26E02C83A0
S11334D009831A8397FF02C080E090E801978D83E7
S11334E09E83AE01445E5F4F6A8D7B8DCE01019653
S11334F00E94F5144D815E8157FD0AC02F813885E5
S1133500421753070CF49A01F801E20FF31F1082DB
S11335102E96CDBFDEBFDF91CF911F910F910895FD
S11335200F931F93CF93DF93CDB7DEB72E97CDBF05
S1133530DEBF0E891F8986E08C8309831A838FEF8F
S11335409FE78D839E83AE01465E5F4F688D798DC4
S1133550CE0101960E94F514EF81F885E00FF11F6A
S113356010822E96CDBFDEBFDF91CF911F910F91B8
S11335700895FA01AA27283051F1203181F1E89405
S11335806F936E7F6E5F7F4F8F4F9F4FAF4FB1E052
S11335903ED0B4E03CD0670F781F891F9A1FA11D4D
S11335A0680F791F8A1F911DA11D6A0F711D811D4E
S11335B0911DA11D20D009F468943F912AE0269F13
S11335C011243019305D3193DEF6CF010895462F72
S11335D04770405D4193B3E00FD0C9F7F6CF462F53
S11335E04F70405D4A3318F0495D31FD40524193BC
S11335F002D0A9F7EACFB4E0A69597958795779579
S11336006795BA95C9F700976105710508959B01FF
S1133610AC010A2E06945795479537952795BA9588
S1133620C9F7620F731F841F951FA01D089520FD05
S113363009C0FC0123FD05C022FF02C0738362831D
S113364051834083089544FD17C046FD17C0AB0164
S1133650BC01DA01FB01AA0FBB1FEE1FFF1F109470
S1133660D1F74A0F5B1F6E1F7F1FCB01BA01660F94
S1133670771F881F991F09C033E001C034E0660F2B
S1133680771F881F991F3150D1F7620F711D811D5B
S1133690911D08950F931F93CF93DF938C01C8015D
S11336A00E94091EEC0197FD08C00E94F51D892B9C
S11336B0B1F7B801CE010E94471ECE01DF91CF9130
S11336C01F910F9108958F929F92AF92BF92EF92A4
S11336D0FF920F931F93CF93DF938C01D62F7A0120
S11336E0B22E0E94091E9C0133272B32310531F082
S11336F02D32310561F48B2D8068B82ED15011F430
S113370080E068C0C8010E94091E97FDF9CFCB2D47
S1133710CD7F2B2D207309F58033F9F4AA24AA94C4
S1133720AD0E09F443C0C8010E94091E97FD3EC0B6
S11337309C012F7D33272835310549F4C264D250CA
S1133740A9F1C8010E94091E97FF07C02FC0B6FE49
S113375002C0C26001C0C261DA2D812C912C5401D7
S113376020ED280F283080F0C4FF04C0B8010E9467
S1133770471E19C02A3040F0C6FFF8CF2F7D3FEE18
S1133780320F363098F727504C2FC501B4010E94F0
S1133790231B4B015C01C260D15059F0C8010E9447
S11337A0091E97FFDDCFC1FD04C0AACF812C912C47
S11337B05401C7FF08C0B094A09490948094811CD5
S11337C0911CA11CB11C2C2FB501A401C7010E949E
S11337D0171B81E0DF91CF911F910F91FF90EF9024
S11337E0BF90AF909F908F9008955F926F927F9259
S11337F08F929F92AF92BF92CF92DF92EF92FF92FD
S11338000F931F93CF93DF93CDB7DEB7A097CDBFB0
S1133810DEBF5C01962E7A01F9018E010F5F1F4F06
S1133820680180E2D8011D928A95E9F7D5011396C3
S11338308C9080E090E0612C712C30E061E070E0CD
S113384083FC259183FE21918F01522E211103C007
S113385080E090E092C02E3511F4009751F1432F8F
S113386050E0481759073CF42D3559F12D3219F41D
S1133870772009F103C0772009F46AC0452D4695E5
S113388046954695D601A40FB11D452D47708B0171
S113389002C0000F111F4A95E2F7A8015C91452B65
S11338A04C93651459F0561410F45394E7CF5A947A
S11338B0E5CF31E004C07724739401C0712C0196E4
S11338C0BFCF772019F08E8180628E83311103C0BF
S11338D08824839417C0F6019E012F5D3F4F808199
S11338E0809581932E173F07D1F7F2CFE114F104AD
S11338F029F0D7018C93F70131967F019A94812C9A
S11339009920F9F0C5010E94091E97FD18C0FC0119
S1133910FF2723E0F595E7952A95E1F7EC0DFD1DCA
S1133920208130E0AC014770552702C035952795BA
S11339304A95E2F720FDDACFB5010E94471E8110B7
S113394087CFE114F10411F0D7011C92C80115C00E
S1133950422F469546954695D601A40FB11D422F98
S113396047708B0102C0000F111F4A95E2F7A801AE
S11339705C91452B4C93622EA2CFA096CDBFDEBFA7
S1133980DF91CF911F910F91FF90EF90DF90CF9037
S1133990BF90AF909F908F907F906F905F900895AD
S11339A05F926F927F928F929F92AF92BF92CF92CB
S11339B0DF92EF92FF920F931F93CF93DF936C01EB
S11339C0EB015A01FC0116821782512CF601E380A7
S11339D0FE01E3FC8591E3FE8191182FEF0188231A
S11339E009F4EEC090E00E94F51D892B21F0C60178
S11339F00E944A1BEBCF153241F4FE01E3FC159102
S1133A00E3FE1191EF01153281F4C6010E94091EF3
S1133A1097FDD4C0412F50E09C013327241735076C
S1133A20A9F2B6010E94471ECBC01A3239F4E3FC56
S1133A301591E3FE1191EF0101E001C000E0F12CCA
S1133A4020ED210F2A3080F402606F2D70E080E0B9
S1133A5090E040E20E94231BF62EFE01E3FC159148
S1133A60E3FE1191EF01ECCF01FF03C0F11003C09D
S1133A70A7C0FF24FA94183619F01C3651F010C070
S1133A80FE01E3FC1591E3FE1191EF01183641F4B8
S1133A9008600460FE01E3FC1591E3FE1191EF015F
S1133AA0112309F48DC0612F70E086E193E00E9438
S1133AB0FE1D892B09F484C000FD07C0F501808038
S1133AC09180C50102965C0102C0812C912C1E36A6
S1133AD051F4F6014681578160E070E0202FC40163
S1133AE00E94171B73CF1336A9F401FD02C0FF24F3
S1133AF0F394C6010E94091E97FD60C081149104CD
S1133B0029F0F4018083C40101964C01FA94F11068
S1133B10F0CF50C01B3559F49E01A4016F2DC6018E
S1133B200E94F51BEC01892B09F044C03EC0C6017C
S1133B300E944A1B97FD42C01F3661F128F41436D7
S1133B4039F1193651F128C0133771F0153701F1E5
S1133B5023C08114910429F0F4016082C401019608
S1133B604C01FA94FF2071F0C6010E94091E3C0129
S1133B7097FD08C00E94F51D892B59F3B601C301B6
S1133B800E94471E81149104A9F0F401108212C00E
S1133B90006203C0006101C00064202FA4016F2DE6
S1133BA0C6010E94631B811105C0F60183818073E5
S1133BB029F406C000FD0ACF539408CF552019F00C
S1133BC0852D90E002C08FEF9FEFDF91CF911F9181
S1133BD00F91FF90EF90DF90CF90BF90AF909F90A8
S1133BE08F907F906F905F90089591110C94601E58
S1133BF0803219F089508550C8F70895FC0105906A
S1133C00061621F00020D9F7C00108953197CF019D
S1133C100895CF93DF93EC012B8120FF33C026FF5F
S1133C200AC02F7B2B838E819F8101968E839F8375
S1133C308A8190E029C022FF0FC0E881F981808148
S1133C40082E000C990B009719F420622B831AC0DC
S1133C503196E883F9830EC0EA85FB85199597FFB1
S1133C6009C02B81019611F080E201C080E1822B12
S1133C708B8308C02E813F812F5F3F4F2E833F836C
S1133C80992702C08FEF9FEFDF91CF910895FB0139
S1133C90238120FF12C026FD10C08F3F3FEF930702
S1133CA061F082832F7D2064238326813781215014
S1133CB0310926833783992708958FEF9FEF08955D
S10D3CC0992788270895F894FFCF90
S1133CCA00000003000000003C0326030000FF3F3D
S1133CDA00D4300064000101006C6F6F706C69637A
S1133CEA68745F6C696E6B73002E2E2F467265655D
S1133CFA52544F532F71756575652E63002E2E2FFE
S1133D0A4672656552544F532F7461736B732E63F5
S1133D1A0049444C45000925630925750925750997
S1133D2A25750D0A0009256C750909256C75252563
S1133D3A0D0A0009256C7509093C3125250D0A006F
S1133D4A4552524F523A206D656D6F727920616CFB
S1133D5A6C6F636174696F6E206661696C65640D6A
S1133D6A0A00535441434B206F766572666C6F7731
S1133D7A20696E207461736B2025730D0A004173E8
S1133D8A7365727420696E2066696C652025732CCC
S1133D9A206C696E65206E722025640D0A004A69DA
S1133DAA7465723A20256C642C206D6178206A69E6
S1133DBA7465723A20256C640D006C6F6F706C69BF
S1133DCA636874007267626C6564002573006C6FC3
S1133DDA6F706C696368745F6C696E6B73006C6F87
S1133DEA6F706C696368745F726563687473007476
S10B3DFA65726D696E616C00D5
S9030000FC
