S01800004C696E65626F7454656D706C617465312E73726563D2
S11300000C9491010C94B2010C94B2010C94B201C1
S11300100C94B2010C94B2010C94B2010C94B20190
S11300200C94B2010C94B2010C94B2010C94B20180
S11300300C94B2010C94B2010C9494090C94B20186
S11300400C94B2010C94B2010C94B2010C94B20160
S11300500C94140A0C94B2010C94B2010C94B201E5
S11300600C94B2010C94B2010C94B2010C94B20140
S11300700C94B2010C94B2010C94B2010C94B20130
S11300800C94B2010C94B2010C94B2010C94B20120
S11300900C94B2010C94B2010C94B2010C94B20110
S11300A00C94B2010C94B2010C94B2010C94B20100
S11300B00C94B2010C94B2010C946C030C94B20134
S11300C00C94B2010C94B2010C94B2010C94B201E0
S11300D00C94B2010C94B2010C94B2010C94B201D0
S11300E00C94B2010C94B2010C94B2010C94B201C0
S11300F00C94B2010C94B2010C94B2010C94B201B0
S11301000C94B2010C94B2010C94B2010C94B2019F
S11301100C94B2010C94B2010C94B2010C94B2018F
S11301200C94B2010C94B2010C94B2010C94B2017F
S11301300C94B2010C94B2010C94B2010C94B2016F
S11301400C94B2010C94B2010C94B2010C94B2015F
S11301500C94B2010C94B2010C94B2010C94B2014F
S11301600C94B2010C94B2010C94B2010C94B2013F
S11301700C94B2010C94B2010C94B2010C94B2012F
S11301800C94B2010C94B2010C94B2010C94B2011F
S11301900C94B2010C94B2010C94B2010C94B2010F
S11301A00C94B2010C94B2010C94B2010C94B201FF
S11301B00C94B2010C94B2010C94B2010C94B201EF
S11301C00C94B2010C94B2010C94B2010C94B201DF
S11301D00C94B2010C94B2010C94B2010C94B201CF
S11301E00C94B2010C94B2010C94B2010C94B201BF
S11301F00C94B2010C94B2010C94B2010C94A419A5
S11302000C9448190C9400040C9425040C941311B8
S11302100C94FB196E616E00696E660000407A10E2
S1130220F35A00A0724E18090010A5D4E80000E8A3
S11302307648170000E40B54020000CA9A3B000001
S113024000E1F505000080969800000040420F0090
S11302500000A08601000000102700000000E80351
S1130260000000006400000000000A00000000001C
S11302700100000000002C76D888DC674F0823DFDB
S1130280C1DFAE59E1B1B796E5E3E453C63AE651AE
S1130290997696E8E6C28426EB898C9B62ED407CD5
S11302A06FFCEFBC9C9F40F2BAA56FA5F490055A71
S11302B02AF75C936B6CF9676DC11BFCE0E40D4796
S11302C0FEF520E6B500D0ED902E030094357705B9
S11302D00080841E080000204E0A000000C80C3371
S11302E03333330F986E12831141EF8D2114893B00
S11302F0E65516CFFEE6DB18D1844B381BF77C1D80
S1130300901DA4BBE424203284725E228100C9F1D2
S113031024ECA1E53D276364696E6F7073757858AA
S11303205B0011241FBECFEFCDBFDFE9DEBF00E0CD
S11303300CBF11E2A0E0B0E2E8EFF9E400E00BBF8B
S113034002C007900D92A237B107D9F724E6A2E7BD
S1130350B1E201C01D92A030B207E1F70E948D18EE
S11303600C94FA240C940000CF93DF93CDB7DEB73E
S11303700000DF91CF910895CF93DF93CDB7DEB71F
S11303800000DF91CF910895CF93DF93CDB7DEB70F
S11303902597CDBFDEBF8C839D8380EA9AE0FC0164
S11303A08381898380EA9AE0FC0184818A8380EADC
S11303B09AE0FC0185818B831DC080EA9AE02C8140
S11303C03D81F9012081FC012083000080EA9AE04C
S11303D0FC018181882F90E080749927892BB1F3E7
S11303E080EA9AE020E4FC0121838C819D810196BE
S11303F08C839D838C819D81FC0180818823E9F617
S113040080EA9AE02981FC01238380EA9AE02A8128
S1130410FC01248380EA9AE02B81FC0125830000FF
S11304202596CDBFDEBFDF91CF910895CF93DF93A3
S1130430CDB7DEB780E296E027E0FC01218380E2BD
S113044096E020E4FC01208B80E296E020E4FC01AD
S1130450218B80E296E020E4FC01228B80E096E090
S113046020E8FC01218380E096E020E4FC01278B56
S11304700000DF91CF910895CF93DF931F92CDB702
S1130480DEB7898380E296E029812770FC0124830A
S113049089818295807F898380E096E02981207814
S11304A0FC01248300000F90DF91CF9108958BEC21
S11304B08093520088E0809350008091510083FF24
S11304C0FCCF82EC8093550088E1809350008091AA
S11304D0510084FFFCCF88ED84BF84E0809340000A
S11304E080E00895CF93DF93CDB7DEB710927B21E0
S11304F080E896E028E1FC01208B80E896E028E182
S1130500FC01218B80EA94E028E7FC01218380EA46
S113051094E023E2FC01258380EA94E021E0FC01DD
S113052024830000DF91CF910895CF93DF931F922E
S1130530CDB7DEB780EA94E0FC01848189838981A8
S1130540882F90E084709927892B21F084E0809390
S11305507C2103C083E080937C2180EA94E029819C
S11305602860FC01248310927B2100000F90DF910E
S1130570CF910895CF93DF9300D01F92CDB7DEB70C
S1130580809177218983809178218A8380EA94E01D
S1130590FC018481882F90E080719927892B59F080
S11305A080EA94E023E0FC01238385E080937C21AE
S11305B010927B2134C09091792189819817C0F4DD
S11305C0209173213091742180917921882F90E0BA
S11305D0820F931FFC0180818B8380EA94E02B813E
S11305E0FC012783809179218F5F8093792117C043
S11305F090917A218A81981750F4809172218160B8
S11306008C8380EA94E02C81FC01268308C080EA74
S113061094E023E0FC01238381E00E945C0300005A
S11306202496CDBFDEBFDF91CF910895CF93DF93A2
S11306301F921F92CDB7DEB780917A218032C0F429
S113064080EA94E0FC0187818983209175213091AF
S1130650762180917A21882F90E0820F931F29813F
S1130660FC01208380917A218F5F80937A2108C0D6
S113067080EA94E023E0FC01238382E00E945C038F
S1130680809178218A8390917A218A81981730F415
S113069080EA94E022E0FC01238308C080EA94E02D
S11306A027E0FC01238381E00E945C0300000F909B
S11306B00F90DF91CF910895CF93DF931F92CDB721
S11306C0DEB78983898180937C2110927B2100008D
S11306D00F90DF91CF9108951F920F9200903F00E9
S11306E00F92112400903B000F922F933F934F934E
S11306F05F936F937F938F939F93AF93BF93EF9386
S1130700FF93CF93DF931F92CDB7DEB780EA94E0D7
S1130710FC01848189838981882F90E088709927DE
S1130720892B39F48981882F90E084709927892B4B
S113073019F00E94950213C08981882F90E080747B
S11307409927892B19F00E94BA0209C0898188234C
S11307501CF40E94160303C086E00E945C0380918F
S11307607B2100000F90DF91CF91FF91EF91BF911A
S1130770AF919F918F917F916F915F914F913F9135
S11307802F910F9000923B000F9000923F000F902A
S11307901F901895CF93DF93CDB7DEB780E896E02E
S11307A028E0FC01218380E896E024E0FC01228318
S11307B080EA9AE0FC01138280EA9AE028E1FC01D5
S11307C0248380EA9AE023E0FC01258380EA9AE00E
S11307D025EEFC01268380EA9AE02CEBFC012783BA
S11307E080E090E28093FC639093FD6380E090E26C
S11307F08093FA639093FB630000DF91CF91089597
S1130800CF93DF9300D0CDB7DEB789836A837B8330
S113081080EA9AE02981FC012083000080EA9AE0C2
S1130820FC018181882F90E080749927892BB1F392
S113083080EA9AE020E4FC01218380E090E02396A2
S1130840CDBFDEBFDF91CF910895CF93DF931F9289
S11308501F92CDB7DEB789839A83000080EA9AE0BD
S1130860FC0181818823D4F780EA9AE0FC0180812D
S1130870882F90E00F900F90DF91CF910895CF9340
S1130880DF93CDB7DEB72E97CDBFDEBF8D879E87B2
S11308901D821E820E94530D80918561882329F454
S11308A00E94A50581E0809385618D859E85892BB5
S11308B041F084E090E02D853E85820F931F8D8763
S11308C09E878D859E85892B09F4B8C08D859E856C
S11308D08F3F9F4308F0B2C08DE791E68B839C83E2
S11308E080917D6190917E6189839A830BC0898117
S11308F09A818B839C8389819A81FC018081918177
S113090089839A8389819A81FC01228133818D852F
S11309109E852817390738F489819A81FC018081E2
S11309209181892B21F789819A818158914609F413
S113093085C08B819C81FC012081318184E090E021
S1130940820F931F8D839E8389819A81FC0120816C
S113095031818B819C81FC012083318389819A813F
S1130960FC01228133818D859E85281B390B84E00F
S113097090E0880F991F8217930708F04EC02981D1
S11309803A818D859E85820F931F89879A878981F5
S11309909A81FC01228133818D859E85281B390B28
S11309A089859A85FC012283338389819A812D85E7
S11309B03E85FC012283338389859A85FC018281EB
S11309C093818B879C878DE791E68F83988707C0F7
S11309D08F819885FC01808191818F8398878F8195
S11309E09885FC0180819181FC01228133818B8572
S11309F09C852817390760F38F819885FC01208135
S1130A00318189859A85FC01208331838F81988582
S1130A1029853A85FC012083318320910E20309171
S1130A200F2089819A81FC0182819381A901481B4D
S1130A30590BCA0180930E2090930F200E94600DE1
S1130A408D819E81892B11F40E942C158D819E81AC
S1130A502E96CDBFDEBFDF91CF910895CF93DF9364
S1130A60CDB7DEB72A97CDBFDEBF89879A87898540
S1130A709A858B839C8389859A85892B09F453C035
S1130A8084E090E09195819591092B813C81820FBE
S1130A90931F8B839C838B819C818D839E830E9477
S1130AA0530D8D819E81FC01828193818F83988770
S1130AB08DE791E689839A8307C089819A81FC0135
S1130AC08081918189839A8389819A81FC018081C3
S1130AD09181FC01228133818F8198852817390700
S1130AE060F389819A81FC01208131818D819E810D
S1130AF0FC012083318389819A812D813E81FC010F
S1130B00208331838D819E81FC01228133818091F8
S1130B100E2090910F20820F931F80930E209093AC
S1130B200F200E94600D00002A96CDBFDEBFDF912A
S1130B30CF910895CF93DF93CDB7DEB780910E2088
S1130B4090910F20DF91CF910895CF93DF9300D040
S1130B501F92CDB7DEB78EE791E289839A838981AC
S1130B609A8180937D6190937E6110927F6110924F
S1130B7080618FEF9FE380938361909384611092EF
S1130B8081611092826189819A818B839C838B819C
S1130B909C812FEF3FE3FC01228333838B819C8173
S1130BA021E831E6FC012083318300002496CDBF87
S1130BB0DEBFDF91CF910895CF93DF931F921F92F1
S1130BC0CDB7DEB789839A8389819A819C012D5F91
S1130BD03F4F89819A81FC012183328389819A81E3
S1130BE02FEF3FEFFC012383348389819A819C0199
S1130BF02D5F3F4F89819A81FC012583368389814A
S1130C009A819C012D5F3F4F89819A81FC01278342
S1130C10308789819A81FC01108200000F900F9027
S1130C20DF91CF910895CF93DF931F921F92CDB799
S1130C30DEB789839A8389819A81FC0110861186A3
S1130C4000000F900F90DF91CF910895CF93DF9321
S1130C5000D000D0CDB7DEB78B839C836D837E83B9
S1130C608B819C81FC018181928189839A838D810E
S1130C709E8129813A81FC012283338389819A816F
S1130C80FC01248135818D819E81FC01248335837F
S1130C9089819A81FC01848195812D813E81FC01A9
S1130CA02283338389819A812D813E81FC012483AF
S1130CB035838D819E812B813C81FC012087318786
S1130CC08B819C81FC01808121E0280F8B819C8198
S1130CD0FC01208300002696CDBFDEBFDF91CF91BB
S1130CE00895CF93DF93CDB7DEB72897CDBFDEBF8E
S1130CF08D839E836F8378878F819885FC018081A3
S1130D0091818B839C838B819C81019641F48D819D
S1130D109E81FC018781908589839A831AC08D8185
S1130D209E81039689839A8307C089819A81FC01F5
S1130D308281938189839A8389819A81FC0182814A
S1130D409381FC01208131818B819C8182179307DF
S1130D5060F789819A81FC01228133818F81988592
S1130D60FC01228333838F819885FC0182819381E6
S1130D702F813885FC01248335838F8198852981CF
S1130D803A81FC012483358389819A812F813885B6
S1130D90FC01228333838F8198852D813E81FC0160
S1130DA0208731878D819E81FC01808121E0280F7D
S1130DB08D819E81FC01208300002896CDBFDEBF7B
S1130DC0DF91CF910895CF93DF9300D01F92CDB7D9
S1130DD0DEB78B839C838B819C81FC01808591850C
S1130DE089839A838B819C81FC01828193812B81ED
S1130DF03C81F90124813581FC01248335838B8175
S1130E009C81FC01848195812B813C81F9012281A3
S1130E103381FC012283338389819A81FC012181FE
S1130E2032818B819C812817390751F48B819C81F5
S1130E30FC012481358189819A81FC0121833283DB
S1130E408B819C81FC011086118689819A81FC0129
S1130E5080812FEF280F89819A81FC012083898169
S1130E609A81FC0180812496CDBFDEBFDF91CF91B2
S1130E700895CF93DF93CDB7DEB72897CDBFDEBFFC
S1130E808B839C836D837E834F8358878B819C8166
S1130E9021E1FC0120838B819C8101978B839C83BE
S1130EA08B819C8122E2FC0120838B819C810197B0
S1130EB08B839C838B819C8123E3FC0120838B8126
S1130EC09C8101978B839C838D819E8189839A83E6
S1130ED029818B819C81FC0120838B819C810197DA
S1130EE08B839C8389819A81892F992789839A830B
S1130EF029818B819C81FC0120838B819C810197BA
S1130F008B839C8389819A81892F992789839A83EA
S1130F1029818B819C81FC0120838B819C81019799
S1130F208B839C838B819C81FC0110828B819C81AF
S1130F3001978B839C838B819C8120E8FC01208317
S1130F408B819C8101978B839C838B819C81FC0189
S1130F5010828B819C8101978B839C838B819C81E4
S1130F6022E0FC0120838B819C8101978B839C83ED
S1130F708B819C8123E0FC0120838B819C810197E0
S1130F808B839C838B819C8124E0FC0120838B8157
S1130F909C8101978B839C838B819C8125E0FC0140
S1130FA020838B819C8101978B839C838B819C8183
S1130FB026E0FC0120838B819C8101978B839C8399
S1130FC08B819C8127E0FC0120838B819C8101978C
S1130FD08B839C838B819C8128E0FC0120838B8103
S1130FE09C8101978B839C838B819C8129E0FC01EC
S1130FF020838B819C8101978B839C838B819C8133
S113100020E1FC0120838B819C8101978B839C834D
S11310108B819C8121E1FC0120838B819C81019740
S11310208B839C838B819C8122E1FC0120838B81B7
S11310309C8101978B839C838B819C8123E1FC01A0
S113104020838B819C8101978B839C838B819C81E2
S113105024E1FC0120838B819C8101978B839C83F9
S11310608B819C8125E1FC0120838B819C810197EC
S11310708B839C838B819C8126E1FC0120838B8163
S11310809C8101978B839C838B819C8127E1FC014C
S113109020838B819C8101978B839C838B819C8192
S11310A028E1FC0120838B819C8101978B839C83A5
S11310B08B819C8129E1FC0120838B819C81019798
S11310C08B839C838B819C8120E2FC0120838B8118
S11310D09C8101978B839C838B819C8121E2FC0101
S11310E020838B819C8101978B839C838B819C8142
S11310F022E2FC0120838B819C8101978B839C835A
S11311008B819C8123E2FC0120838B819C8101974C
S11311108B839C838F81988589839A8329818B8192
S11311209C81FC0120838B819C8101978B839C8310
S113113089819A81892F992789839A8329818B812F
S11311409C81FC0120838B819C8101978B839C83F0
S11311508B819C8126E2FC0120838B819C810197F9
S11311608B839C838B819C8127E2FC0120838B8170
S11311709C8101978B839C838B819C8128E2FC0159
S113118020838B819C8101978B839C838B819C81A1
S113119029E2FC0120838B819C8101978B839C83B2
S11311A08B819C8120E3FC0120838B819C810197AE
S11311B08B839C838B819C8121E3FC0120838B8125
S11311C09C8101978B839C838B819C812896CDBFC6
S11311D0DEBFDF91CF910895CF93DF93CDB7DEB714
S11311E00E947B09A0918661B0918761CD91CDBFAA
S11311F0DD91DEBFFF91EF91DF91CF91BF91AF9170
S11312009F918F917F916F915F914F913F912F911A
S11312101F910F91FF90EF90DF90CF90BF90AF9010
S11312209F908F907F906F905F904F903F902F9002
S11312301F900F900FBE0F90089581E0DF91CF9122
S113124008950F920FB6F8940F921F9211242F92C3
S11312503F924F925F926F927F928F929F92AF9242
S1131260BF92CF92DF92EF92FF920F931F932F932F
S11312703F934F935F936F937F938F939F93AF931A
S1131280BF93CF93DF93EF93FF93A0918661B091C7
S113129087610DB60D920EB60D920E94B90FA09102
S11312A08661B0918761CD91CDBFDD91DEBFFF91A5
S11312B0EF91DF91CF91BF91AF919F918F917F91EA
S11312C06F915F914F913F912F911F910F91FF90DB
S11312D0EF90DF90CF90BF90AF909F908F907F90D2
S11312E06F905F904F903F902F901F900F900FBE84
S11312F00F9008950000CF93DF93CDB7DEB780E061
S113130098E021E0FC01208380E098E021E0FC01EA
S1131310268380E098E020E03DE7FC0126A337A384
S11313200000DF91CF9108950F920FB6F8940F92B9
S11313301F9211242F923F924F925F926F927F924D
S11313408F929F92AF92BF92CF92DF92EF92FF92D1
S11313500F931F932F933F934F935F936F937F93B9
S11313608F939F93AF93BF93CF93DF93EF93FF93A9
S1131370A0918661B09187610DB60D920EB60D9263
S113138080E098E0FC0186A197A19C0140E050E038
S11313908091F4639091F563A091F663B091F76343
S11313A0820F931FA41FB51F8093F4639093F5637A
S11313B0A093F663B093F7630E94C40E0E94B90F22
S11313C0A0918661B0918761CD91CDBFDD91DEBFE3
S11313D0FF91EF91DF91CF91BF91AF919F918F9149
S11313E07F916F915F914F913F912F911F910F9139
S11313F0FF90EF90DF90CF90BF90AF909F908F9031
S11314007F906F905F904F903F902F901F900F9020
S11314100FBE0F9018950000CF93DF93CDB7DEB7C2
S11314200000DF91CF9108951F920F9200903F002A
S11314300F921124CF93DF93CDB7DEB70000DF9175
S1131440CF910F9000923F000F901F9018958F92AC
S11314509F92AF92BF92CF92DF92EF92FF920F933F
S11314601F93CF93DF93CDB7DEB76097CDBFDEBFB9
S11314708E839F83688779874A875B872C873D871C
S11314800E87EF86F88A8A859B850E943F048C83A9
S11314909D838C819D81892BB9F08EE290E00E941E
S11314A03F0489839A8389819A81892B41F08981B8
S11314B09A812C813D81FC01278B308F07C08C8160
S11314C09D810E942E0502C019821A8289819A8107
S11314D0892B09F18A859B85CC01A0E0B0E00981C4
S11314E01A814F8558892C853D8568857985EE81DB
S11314F0FF81812C912C58016A01EE8489019C01A1
S1131500AD01CF010E949E0A89819A810E94800BBD
S113151081E08B8302C08FEF8B838B816096CDBF7C
S1131520DEBFDF91CF911F910F91FF90EF90DF907D
S1131530CF90BF90AF909F908F9008958F929F927D
S1131540AF92BF92CF92DF92EF920F931F93CF93FC
S1131550DF93CDB7DEB76497CDBFDEBF8C839D83A9
S11315606E837F83288739874A875B870C871D872B
S1131570EE86CF86D88AA98ABA8A8B8A9C8A8E817B
S11315809F81892B31F460E673E085E290E20E944A
S113159058172885398589899A89FC018789908D0E
S11315A0A90165EA70E00E94312089899A89FC01C9
S11315B02789308D888599850197820F931F8A83A7
S11315C09B83198221C08981882F90E02981222F51
S11315D030E04E815F81240F351FF9014081298954
S11315E03A89820F931F4996FC0140838981882F91
S11315F090E02E813F81820F931FFC01808188231C
S113160039F089818F5F898389818830E0F201C054
S1131610000089899A89FC0110A28E85843010F01B
S113162083E08E8789899A892E85FC01268B898996
S11316309A892E85FC0123A389899A89FC0114A225
S113164089899A8902960E94130689899A890C9637
S11316500E94130689899A8929893A89FC0120877D
S113166031878E85882F90E024E030E0281B390BE9
S113167089899A89FC012487358789899A892989E6
S11316803A89FC01228B338B89899A89FC0115A242
S113169016A217A210A689899A89FC0111A612A67E
S11316A013A614A689899A89FC0115A64C855D8523
S11316B02C813D818A819B81B9010E9439079C015B
S11316C089899A89FC01208331838F859889892BA4
S11316D039F08F85988929893A89FC0120833183DF
S11316E000006496CDBFDEBFDF91CF911F910F91B3
S11316F0EF90DF90CF90BF90AF909F908F90089520
S1131700CF93DF931F921F92CDB7DEB789839A835D
S11317100FB6F8940F928091DE618F5F8093DE6143
S11317208091866190918761892B69F489819A817E
S113173080938661909387618091DE618130C9F4E2
S11317400E94261116C08091E261882391F4809151
S1131750866190918761FC01268989819A81FC01C7
S11317608689821730F089819A818093866190936B
S113177087618091E6618F5F8093E6612091E661E5
S113178089819A81FC0121A389819A81FC0196892E
S11317908091E161891730F489819A81FC018689FD
S11317A08093E16189819A81AC014E5F5F4F8981A9
S11317B09A81FC018689282F30E0C901880F991F7E
S11317C0880F991F880F991F820F931F88579E496E
S11317D0BA010E9426060F900FBE8091E261882311
S11317E071F08091866190918761FC0126898981DD
S11317F09A81FC018689281710F40E9421090000AF
S11318000F900F90DF91CF910895CF93DF93CDB7D1
S1131810DEB72A97CDBFDEBF8F83988769877A8723
S113182019828F819885892B31F46AEC74E085E202
S113183090E20E94581789859A85892B31F46BECC4
S113184074E085E290E20E9458178091EB6188234E
S113185031F06CEC74E085E290E20E9458170E942B
S1131860530D8091DF619091E0618A839B838F8126
S11318709885FC012081318189859A85820F931F87
S11318808C839D838F819885FC01208131818A819D
S11318909B8182179307A0F48F819885FC01208196
S11318A031818C819D8182179307E8F42C813D81DD
S11318B08A819B8182179307B0F481E0898313C0E6
S11318C08F819885FC01208131818C819D818217D3
S11318D0930738F02C813D818A819B81821793077D
S11318E010F481E089838F8198852C813D81FC01EE
S11318F0208331838981882359F02C813D818A8119
S11319009B81A901481B590BCA0160E00E94B014D5
S11319100E94600D8E838E81882311F40E94210918
S113192000002A96CDBFDEBFDF91CF910895CF93FB
S1131930DF93CDB7DEB72B97CDBFDEBF8A879B87FA
S11319408A859B858A839B838A819B81892B31F439
S11319506CE475E085E290E20E94581780918661FC
S1131960909187612A813B812817390711F41982E4
S113197052C00FB6F8940F928A819B81FC01828534
S113198093858C839D838091BE619091BF618E838A
S11319909F838091C0619091C161888799870F90DE
S11319A00FBE2C813D818E819F812817390739F024
S11319B02C813D81888599852817390719F482E09F
S11319C0898329C08C819D81855D9146B1F48A818A
S11319D09B81FC0184899589892B61F48A819B818F
S11319E0FC0185A5813019F482E0898314C083E069
S11319F0898311C082E089830EC08C819D818B5CB8
S1131A00914621F08C819D81892B19F484E089838E
S1131A1002C081E0898389812B96CDBFDEBFDF912F
S1131A20CF910895EF92FF920F93CF93DF931F927C
S1131A30CDB7DEB70F2EF9EEEF2EF1E6FF2EF02D27
S1131A4000E020E030E040E051E069E370E283E14F
S1131A5091E10E94270A89838981813099F4F8945D
S1131A608FEF9FEF8093E7619093E86181E080932B
S1131A70E2611092DF611092E0610E940C0A0E9400
S1131A80EC0809C089818F3F31F467E078E085E292
S1131A9090E20E94581700000F90DF91CF910F91B0
S1131AA0FF90EF900895CF93DF93CDB7DEB7809189
S1131AB0EB618F5F8093EB610000DF91CF9108951C
S1131AC0CF93DF9300D01F92CDB7DEB719821A826D
S1131AD01B828091EB61882331F46CE678E085E227
S1131AE090E20E9458170FB6F8940F928091EB6120
S1131AF081508093EB618091EB61882309F077C07A
S1131B008091DE61882309F472C049C08091C76165
S1131B109091C861FC018681978189839A83898128
S1131B209A810C960E94E30689819A8102960E940A
S1131B30E30689819A81FC0196898091E161891784
S1131B4030F489819A81FC0186898093E1618981DD
S1131B509A81AC014E5F5F4F89819A81FC0186892D
S1131B60282F30E0C901880F991F880F991F880F0B
S1131B70991F820F931F88579E49BA010E94260617
S1131B8089819A81FC01268980918661909187617F
S1131B90FC018689281718F081E08093E461809124
S1131BA0C261882309F0B2CF89819A81892B11F00F
S1131BB00E9429138091E3618C838C81882379F0BE
S1131BC00E94C40E882319F081E08093E4618C8123
S1131BD081508C838C81882399F71092E3618091E2
S1131BE0E461882321F081E08B830E9421090F9016
S1131BF00FBE8B812496CDBFDEBFDF91CF910895B8
S1131C00CF93DF93CDB7DEB72797CDBFDEBF8B83EE
S1131C109C836D834E835F83198284E08A830E9450
S1131C20530D8091DE619D81981708F4A4C08A81C8
S1131C3081508A838A81282F30E0C901880F991F37
S1131C40880F991F880F991F820F931FBC01685733
S1131C507E498981882F90E082959295907F98277C
S1131C60807F98272B813C81820F931F41E00E9443
S1131C704512982F8981890F89838A818823B9F62F
S1131C806091BE617091BF618981882F90E08295D7
S1131C909295907F9827807F98272B813C81820F93
S1131CA0931F42E00E944512982F8981890F8983EE
S1131CB06091C0617091C1618981882F90E08295A3
S1131CC09295907F9827807F98272B813C81820F63
S1131CD0931F42E00E944512982F8981890F8983BE
S1131CE08981882F90E082959295907F9827807FB4
S1131CF098272B813C81820F931F44E06BEC71E6A3
S1131D000E944512982F8981890F89838981882FA0
S1131D1090E082959295907F9827807F98272B81D9
S1131D203C81820F931F43E065ED71E60E944512EA
S1131D30982F8981890F89838E819F81892BD9F07E
S1131D4080E098E0FC0180A191A19C0140E050E07A
S1131D508091F4639091F563A091F663B091F76379
S1131D60820F931FA41FB51F2E813F81F901808329
S1131D709183A283B3830E94600D89812796CDBF8E
S1131D80DEBFDF91CF910895CF93DF93CDB7DEB758
S1131D902997CDBFDEBF19828091EB61882309F0BA
S1131DA0D6C08091DF619091E06101968A839B8324
S1131DB08A819B818093DF619093E0618A819B811A
S1131DC0892B49F58091BE619091BF61FC018081AE
S1131DD0882331F066E67AE085E290E20E945817A3
S1131DE08091BE619091BF618C839D838091C0611D
S1131DF09091C1618093BE619093BF618C819D81FC
S1131E008093C0619093C1618091E5618F5F8093FD
S1131E10E5610E9429138091E7619091E8612A812C
S1131E203B812817390708F478C08091BE619091EE
S1131E30BF61FC018081882339F48FEF9FEF809389
S1131E40E7619093E86169C08091BE619091BF6140
S1131E50FC0185819681FC01868197818E839F8315
S1131E608E819F81FC0182819381888799872A8151
S1131E703B81888599852817390738F488859985A1
S1131E808093E7619093E86148C08E819F810296B8
S1131E900E94E3068E819F81FC0184899589892BA8
S1131EA029F08E819F810C960E94E3068E819F818A
S1131EB0FC0196898091E161891730F48E819F81BC
S1131EC0FC0186898093E1618E819F81AC014E5F24
S1131ED05F4F8E819F81FC018689282F30E0C901E4
S1131EE0880F991F880F991F880F991F820F931FBE
S1131EF088579E49BA010E9426068E819F81FC0163
S1131F0026898091866190918761FC0186892817D2
S1131F1008F48BCF81E0898388CF8091866190918A
S1131F208761FC018689282F30E0C901880F991F39
S1131F30880F991F880F991F820F931F88579E49F6
S1131F40FC018081823040F081E0898305C080916A
S1131F50E3618F5F8093E3618091E461882311F0F2
S1131F6081E0898389812996CDBFDEBFDF91CF913E
S1131F700895AF92BF92CF92DF92EF92FF920F93A8
S1131F801F93CF93DF93CDB7DEB72997CDBFDEBFC5
S1131F908091EB61882321F081E08093E46134C176
S1131FA01092E46180E098E0FC0180A191A19C0181
S1131FB040E050E08091F4639091F563A091F66362
S1131FC0B091F763820F931FA41FB51F8093F06134
S1131FD09093F161A093F261B093F3612091F06169
S1131FE03091F1614091F2615091F3618091EC6123
S1131FF09091ED61A091EE61B091EF61821793072A
S1132000A407B50750F56091866170918761FB0163
S113201025A136A147A150A5E090F061F090F161AF
S11320200091F2611091F3618091EC619091ED6106
S1132030A091EE61B091EF6157016801A81AB90A45
S1132040CA0ADB0AD601C501820F931FA41FB51F5C
S1132050FB0185A396A3A7A3B0A78091F0619091FB
S1132060F161A091F261B091F3618093EC6190937E
S1132070ED61A093EE61B093EF61809186619091E0
S11320808761FC018789908D8A839B8385EA95EA21
S1132090DC018C839D83AE83BF838A819B81FC0199
S11320A020813181428153818C819D81AE81BF81A8
S11320B0281739074A075B0799F58A819B8104969B
S11320C0FC0120813181428153818C819D81AE81CB
S11320D0BF81281739074A075B0711F58A819B815D
S11320E00896FC0120813181428153818C819D813C
S11320F0AE81BF81281739074A075B0789F48A81B3
S11321009B810C96FC0120813181428153818C8119
S11321109D81AE81BF81281739074A075B0771F09B
S113212080918661909187619C01275E3F4F8091E9
S1132130866190918761B9010E942C168091E161BA
S113214089830CC08981882331F46CE87BE085E2C3
S113215090E20E9458178981815089838981282FB0
S113216030E0C901880F991F880F991F880F991FA4
S1132170820F931F88579E49FC018081882311F3A5
S11321808981282F30E0C901880F991F880F991F72
S1132190880F991F820F931F88579E4988879987B4
S11321A088859985FC0181819281FC01228133819A
S11321B088859985FC012183328388859985FC0172
S11321C0218132818885998503962817390769F416
S11321D088859985FC0181819281FC01228133816A
S11321E088859985FC012183328388859985FC0142
S11321F081819281FC01868197818093866190938D
S1132200876189818093E16100002996CDBFDEBF9B
S1132210DF91CF911F910F91FF90EF90DF90CF90BE
S1132220BF90AF900895CF93DF931F921F92CDB7C5
S1132230DEB789839A830E94681180918861823015
S113224010F00E9421090E942415F5CFCF93DF934B
S11322501F92CDB7DEB7198213C08981282F30E0D1
S1132260C901880F991F880F991F880F991F820F22
S1132270931F88579E490E94DC0589818F5F89835B
S11322808981843050F38CEA91E60E94DC0585EB69
S113229091E60E94DC0582EC91E60E94DC058BEC61
S11322A091E60E94DC0585ED91E60E94DC058CEA4E
S11322B091E68093BE619093BF6185EB91E6809334
S11322C0C0619093C16100000F90DF91CF91089598
S11322D0CF93DF931F921F92CDB7DEB721C00FB605
S11322E0F8940F928091D0619091D161FC01868124
S11322F0978189839A8389819A8102960E94E30651
S11323008091DE6181508093DE618091D46181503F
S11323108093D4610F900FBE89819A810E9410131B
S11323208091D4618823D9F600000F900F90DF913B
S1132330CF910895CF93DF93CDB7DEB72897CDBF64
S1132340DEBF8B839C836D837E834F8328878B8141
S11323509C81892B29F4809186619091876102C0C8
S11323608B819C8189839A838D819E8129813A8185
S1132370FC012083318389819A819C01275E3F4F30
S11323808D819E81FC012283338389819A81FC01A2
S113239026898D819E81FC01268389819A81FC0195
S11323A02789308D8D819E81FC0124873587898121
S11323B09A81FC0121A18D819E81FC012483898164
S11323C09A81FC0123A18D819E81FC01278389814F
S11323D09A81FC0185A196A1A7A1B0A52D813E817A
S11323E0F90180879187A287B3878885853039F181
S11323F0809186619091876129813A8128173907F4
S113240029F48D819E81FC01158222C08D819E81DB
S11324102885FC01258388858330D1F40E94530DDF
S113242089819A81FC0184899589892B29F08D8180
S11324309E8122E0FC0125830E94600D09C08981F0
S11324409A810E94970C282F8D819E81FC012583FF
S11324508F81882371F089819A81FC018789908D0D
S11324600E94E5129C018D819E81FC01268737879D
S113247005C08D819E81FC01168617860000289672
S1132480CDBFDEBFDF91CF910895CF93DF93CDB75A
S1132490DEB72E97CDBFDEBF8A879B876C877D878B
S11324A04E8719828C859D85FC018081882309F4DF
S11324B085C08C859D858A839B838A819B81FC0151
S11324C081819281FC01228133818A819B81FC017B
S11324D0218332838A819B81FC01218132818A811B
S11324E09B8103962817390769F48A819B81FC0133
S11324F081819281FC01228133818A819B81FC014B
S1132500218332838A819B81FC0181819281FC0138
S1132510868197818C839D838C859D858E839F8303
S11325208E819F81FC0181819281FC012281338112
S11325308E819F81FC01218332838E819F81FC01E6
S1132540218132818E819F8103962817390769F48E
S11325508E819F81FC0181819281FC0122813381E2
S11325608E819F81FC01218332838E819F81FC01B6
S113257081819281FC0186819781888799878981ED
S1132580882F90E082959295907F9827807F982756
S11325902A853B85B901680F791F888599852E8521
S11325A041E00E949A1189818F5F8983288539854A
S11325B08C819D812817390709F0AECF89812E9629
S11325C0CDBFDEBFDF91CF910895CF93DF9300D0CD
S11325D000D0CDB7DEB78D839E8319821A821B8209
S11325E01C8210C08D819E8101968D839E8389817A
S11325F09A81AB81BC810196A11DB11D89839A8307
S1132600AB83BC838D819E81FC018081853A51F32B
S113261089819A812696CDBFDEBFDF91CF9108953F
S1132620CF93DF931F921F92CDB7DEB789839A832E
S113263089819A81FC018789908D0E942E05898168
S11326409A810E942E0500000F900F90DF91CF9188
S11326500895CF93DF931F921F92CDB7DEB7809179
S1132660BE619091BF61FC018081882339F48FEFB2
S11326709FEF8093E7619093E86115C08091BE61FC
S11326809091BF61FC0185819681FC0186819781CF
S113269089839A8389819A81FC01828193818093C1
S11326A0E7619093E86100000F900F90DF91CF9164
S11326B00895CF93DF931F921F92CDB7DEB7809119
S11326C086619091876189839A8389819A810F9029
S11326D00F90DF91CF910895CF93DF9300D000D076
S11326E0CDB7DEB78B839C836D837E832D813E8142
S11326F08B819C81B9010E9441208B819C810E9425
S1132700482089839A830EC02B813C8189819A81D8
S1132710820F931F20E2FC01208389819A81019614
S113272089839A8389819A81079770F32B813C81ED
S113273089819A81820F931FFC0110822B813C8135
S113274089819A81820F931F2696CDBFDEBFDF91C8
S1132750CF910895CF93DF93CDB7DEB72E97CDBF3A
S1132760DEBF8D879E878D859E85FC0110828091BA
S1132770DE618A838091DE61882F90E08295929554
S1132780907F9827807F98270E943F048B839C83A7
S11327908B819C81892B09F4DCC09E01275F3F4F0C
S11327A08B819C81A9016A810E94000E8A8389859C
S11327B09A85AB85BC8524E630E040E050E0BC015E
S11327C0CD010E942C1FDA01C90189879A87AB8742
S11327D0BC8789859A85AB85BC85892B8A2B8B2BF5
S11327E009F4B3C01982ACC08981882F90E0829526
S11327F09295907F9827807F98272B813C81820F28
S1132800931FFC0180859185A285B38529853A852E
S11328104B855C85BC01CD010E942C1FDA01C901E6
S11328208D839E83AF83B8878981882F90E08295BA
S11328309295907F9827807F98272B813C81820FE7
S1132840931FFC01228133818D859E85B9010E94ED
S11328506C138D879E878D819E81AF81B885892B6E
S11328608A2B8B2BA1F18981882F90E082959295F8
S1132870907F9827807F98272B813C81820F931F1C
S1132880FC0180859185A285B38528852F932F81AE
S11328902F932E812F932D812F932B2F2F932A2F1C
S11328A02F93292F2F938F938DE490E2892F8F9369
S11328B08DE490E28F938E858F938D858F930E9404
S11328C027218DB79EB70C96CDBFDEBF2BC0898163
S11328D0882F90E082959295907F9827807F982703
S11328E02B813C81820F931FFC0180859185A285F9
S11328F0B3852B2F2F932A2F2F93292F2F938F9329
S11329008BE590E2892F8F938BE590E28F938E85F0
S11329108F938D858F930E9427218DB79EB708963C
S1132920CDBFDEBF8D859E850E9448209C018D858C
S11329309E85820F931F8D879E8789818F5F8983F0
S113294099818A81981708F44FCF8B819C810E94CA
S11329502E0500002E96CDBFDEBFDF91CF910895E6
S1132960CF93DF93CDB7DEB72797CDBFDEBF8D837F
S11329709E836F838091DF619091E06189839A8364
S1132980809186619091876102960E94E3068D8111
S11329909E81019671F48F81882359F0809186611C
S11329A0909187610296BC0185ED91E60E9426060E
S11329B044C029813A818D819E81820F931F8B832C
S11329C09C8380918661909187612B813C81FC017D
S11329D0228333832B813C8189819A81281739078B
S11329E078F480918661909187619C012E5F3F4FBE
S11329F08091C0619091C161B9010E9471061DC0AE
S1132A0080918661909187619C012E5F3F4F8091F8
S1132A10BE619091BF61B9010E9471068091E76126
S1132A209091E8612B813C812817390730F48B8120
S1132A309C818093E7619093E86100002796CDBF65
S1132A40DEBFDF91CF910895CF93DF93CDB7DEB78B
S1132A500000DF91CF910895CF93DF93CDB7DEB718
S1132A606C97CDBFDEBFF89488E690E20E94C40163
S1132A7080E096E020E8FC01218380E096E020E8F5
S1132A80FC01258380E090E0A8ECB2E489839A837A
S1132A90AB83BC8320E030E04AEF55E469817A815E
S1132AA08B819C810E94E91ADC01CB018B8B9C8B6E
S1132AB0AD8BBE8B20E030E040E85FE36B897C891E
S1132AC08D899E890E94631A88232CF481E090E00A
S1132AD08F8B988F3FC020E03FEF4FE757E46B891F
S1132AE07C898D899E890E94E41A18164CF520E091
S1132AF030E040E251E469817A818B819C810E94BB
S1132B00E91ADC01CB01BC01CD010E94681ADC0189
S1132B10CB018F8B988F0FC080E293E0898F9A8FBF
S1132B20898D9A8D0197F1F7898F9A8F8F89988D66
S1132B3001978F8B988F8F89988D892B69F714C093
S1132B406B897C898D899E890E94681ADC01CB017E
S1132B508F8B988F8F89988D8B8F9C8F8B8D9C8D6D
S1132B600197F1F78B8F9C8F80E096E020E8FC01C1
S1132B70268380E090E0A8ECB2E48D839E83AF834B
S1132B80B88720E030E04AEF55E46D817E818F8183
S1132B9098850E94E91ADC01CB0189879A87AB8763
S1132BA0BC8720E030E040E85FE369857A858B8567
S1132BB09C850E94631A88232CF481E090E08D8721
S1132BC09E873FC020E03FEF4FE757E469857A8551
S1132BD08B859C850E94E41A18164CF520E030E0A1
S1132BE040E251E46D817E818F8198850E94E91ACB
S1132BF0DC01CB01BC01CD010E94681ADC01CB01D0
S1132C008D879E870FC080E293E08F87988B8F8596
S1132C1098890197F1F78F87988B8D859E85019709
S1132C208D879E878D859E85892B69F714C069855C
S1132C307A858B859C850E94681ADC01CB018D877F
S1132C409E878D859E85898B9A8B89899A89019720
S1132C50F1F7898B9A8B11CFCF93DF93CDB7DEB782
S1132C60C05AD109CDBFDEBF9E0123563F4FF901A3
S1132C7080839183CE0181569F4FFC0160837183D1
S1132C80F89480E096E020E8FC012183CE0181568F
S1132C909F4FFC0121812F93FC0180818F938AE84F
S1132CA090E2892F8F938AE890E28F931F9280E8B5
S1132CB08F93CE014D96292F2F938F930E94F0204E
S1132CC08DB79EB70896CDBFDEBFCE014D960E944C
S1132CD0C40180E096E020E8FC01258380E090E0D8
S1132CE0AAEFB3E489839A83AB83BC8320E030E00A
S1132CF04AEF55E469817A818B819C810E94E91AAB
S1132D00DC01CB018B8B9C8BAD8BBE8B20E030E048
S1132D1040E85FE36B897C898D899E890E94631AF0
S1132D2088232CF481E090E08F8B988F3FC020E0C3
S1132D303FEF4FE757E46B897C898D899E890E9418
S1132D40E41A18164CF520E030E040E251E46981C1
S1132D507A818B819C810E94E91ADC01CB01BC0140
S1132D60CD010E94681ADC01CB018F8B988F0FC0B4
S1132D7080E293E0898F9A8F898D9A8D0197F1F77C
S1132D80898F9A8F8F89988D01978F8B988F8F89D0
S1132D90988D892B69F714C06B897C898D899E89EC
S1132DA00E94681ADC01CB018F8B988F8F89988DD4
S1132DB08B8F9C8F8B8D9C8D0197F1F78B8F9C8FC4
S1132DC080E096E020E8FC01268380E090E0AAEF12
S1132DD0B3E48D839E83AF83B88720E030E04AEF6D
S1132DE055E46D817E818F8198850E94E91ADC010A
S1132DF0CB0189879A87AB87BC8720E030E040E825
S1132E005FE369857A858B859C850E94631A882394
S1132E102CF481E090E08D879E873FC020E03FEF57
S1132E204FE757E469857A858B859C850E94E41A6F
S1132E3018164CF520E030E040E251E46D817E81CB
S1132E408F8198850E94E91ADC01CB01BC01CD0178
S1132E500E94681ADC01CB018D879E870FC080E237
S1132E6093E08F87988B8F8598890197F1F78F87E7
S1132E70988B8D859E8501978D879E878D859E85F0
S1132E80892B69F714C069857A858B859C850E9496
S1132E90681ADC01CB018D879E878D859E85898B81
S1132EA09A8B89899A890197F1F7898B9A8B11CF2B
S1132EB0CF93DF93CDB7DEB7C05AD109CDBFDEBF04
S1132EC09E0123563F4FF90180839183CE018156A1
S1132ED09F4FFC0160837183F89480E096E020E8C2
S1132EE0FC012183CE0181569F4FFC0121812F9348
S1132EF0FC0180818F93CE0183569F4FFC01218179
S1132F002F93FC0180818F9386EA90E2892F8F931F
S1132F1086EA90E28F931F9280E88F93CE014D96BC
S1132F20292F2F938F930E94F0208DB79EB70A9676
S1132F30CDBFDEBFCE014D960E94C40180E096E075
S1132F4020E8FC01258380E090E0A8ECB2E48983CA
S1132F509A83AB83BC8320E030E04AEF55E4698177
S1132F607A818B819C810E94E91ADC01CB018B8BD5
S1132F709C8BAD8BBE8B20E030E040E85FE36B8937
S1132F807C898D899E890E94631A88232CF481E0B0
S1132F9090E08F8B988F3FC020E03FEF4FE757E4DE
S1132FA06B897C898D899E890E94E41A18164CF5D8
S1132FB020E030E040E251E469817A818B819C8198
S1132FC00E94E91ADC01CB01BC01CD010E94681A00
S1132FD0DC01CB018F8B988F0FC080E293E0898F47
S1132FE09A8F898D9A8D0197F1F7898F9A8F8F899E
S1132FF0988D01978F8B988F8F89988D892B69F77E
S113300014C06B897C898D899E890E94681ADC01B1
S1133010CB018F8B988F8F89988D8B8F9C8F8B8D05
S11330209C8D0197F1F78B8F9C8F80E096E020E8D0
S1133030FC01268380E090E0AAEFB3E48D839E83B5
S1133040AF83B88720E030E04AEF55E46D817E819C
S11330508F8198850E94E91ADC01CB0189879A87C0
S1133060AB87BC8720E030E040E85FE369857A8580
S11330708B859C850E94631A88232CF481E090E060
S11330808D879E873FC020E03FEF4FE757E4698577
S11330907A858B859C850E94E41A18164CF520E0ED
S11330A030E040E251E46D817E818F8198850E94F9
S11330B0E91ADC01CB01BC01CD010E94681ADC01D4
S11330C0CB018D879E870FC080E293E08F87988B1A
S11330D08F8598890197F1F78F87988B8D859E85C9
S11330E001978D879E878D859E85892B69F714C0EE
S11330F069857A858B859C850E94681ADC01CB01E1
S11331008D879E878D859E85898B9A8B89899A89DF
S11331100197F1F7898B9A8B11CFCF93DF93CDB7BA
S1133120DEB72E97CDBFDEBF0E9457020E94CA03AE
S11331300E9472020E94BC010E9416020E947E1B21
S11331400E94B40181E00E94821B80EA90E027E0A3
S1133150FC012283789480E090E0A0E2B1E48983CA
S11331609A83AB83BC8320E030E04AEF55E4698165
S11331707A818B819C810E94E91ADC01CB018D83C9
S11331809E83AF83B88720E030E040E85FE36D8141
S11331907E818F8198850E94631A88232CF481E0B4
S11331A090E089879A873FC020E03FEF4FE757E4DC
S11331B06D817E818F8198850E94E41A18164CF5E2
S11331C020E030E040E251E469817A818B819C8186
S11331D00E94E91ADC01CB01BC01CD010E94681AEE
S11331E0DC01CB0189879A870FC080E293E08B874B
S11331F09C878B859C850197F1F78B879C878985B4
S11332009A85019789879A8789859A85892B69F791
S113321014C06D817E818F8198850E94681ADC01BB
S1133220CB0189879A8789859A858D879E878D8525
S11332309E850197F1F78D879E870E942D190E9424
S1133240E0190E9489190E94120D80E090E02E96E8
S1133250CDBFDEBFDF91CF910895EF92FF920F9320
S1133260CF93DF93CDB7DEB7E12CF12C02E020E061
S113327030E040E051E066EC70E288E499E10E94BD
S1133280270A0000DF91CF910F91FF90EF900895EE
S1133290CF93DF931F921F92CDB7DEB789839A83B2
S11332A08091232090912420BC0188EF93E60E9412
S11332B0050C809122200E943C0280912020909154
S11332C02120019771F480912220883021F481E03B
S11332D080932220E5CF80912220880F80932220A2
S11332E0DFCF8091202090912120029771F480916A
S11332F02220813021F488E080932220D1CF809154
S11333002220869580932220CBCF8FE080932220A9
S1133310C7CFEF92FF920F93CF93DF93CDB7DEB772
S1133320E12CF12C02E020E030E040E053E060EDDD
S113333070E284EA99E10E94270A0000DF91CF91AC
S11333400F91FF90EF900895CF93DF93CDB7DEB741
S11333506697CDBFDEBF8D8B9E8B81E090E08B8323
S11333609C830E94591389839A83BE016B5F7F4FAC
S113337089819A8125E041E00E949A118B899C8978
S11333802A812F9329812F939E012D5F3F4F432F35
S11333904F932F93292F2F938F9389ED90E2892FA9
S11333A08F9389ED90E28F930E9498208DB79EB7FA
S11333B00896CDBFDEBF8D899E890E94A419CDCF0A
S11333C0EF92FF920F93CF93DF93CDB7DEB7E12C4B
S11333D0F12C01E020E030E040E053E06CE171E2E8
S11333E08BEF99E10E94270A0000DF91CF910F91A2
S11333F0FF90EF9008950F931F93CF93DF931F9245
S11334001F92CDB7DEB789839A8380E190E2892F3A
S11334108F9380E190E28F9385E291E2892F8F93DD
S113342085E291E28F930E94DC200F900F900F9021
S11334300F9084EF91E60E94AA1368E271E280E1A2
S113344090E20E943820892B39F481E090E0809347
S113345020209093212015C068E371E280E190E27E
S11334600E943820892B39F482E090E08093202058
S11334709093212006C083E090E0809320209093D5
S1133480212088E893E10E943F048C010E949A0560
S1133490212F2F93202F2F93292F2F938F9389E45C
S11334A091E2892F8F9389E491E28F930E9498206F
S11334B00F900F900F900F900F900F9084EF91E664
S11334C00E94AC20A2CF0E94971A08F481E00895CC
S11334D00E94C31A88F09F5798F0B92F9927B751C3
S11334E0B0F0E1F0660F771F881F991F1AF0BA95A4
S11334F0C9F714C0B13091F00E94DD1AB1E008950B
S11335000C94DD1A672F782F8827B85F39F0B93FFC
S1133510CCF3869577956795B395D9F73EF4909556
S11335208095709561957F4F8F4F9F4F0895990FA8
S11335300008550FAA0BE0E8FEEF16161706E80779
S1133540F907C0F012161306E407F50798F0621B9A
S1133550730B840B950B39F40A2661F0232B242B6F
S1133560252B21F408950A2609F4A140A6958FEF8E
S1133570811D811D089557FD9058440F551F59F022
S11335805F3F71F04795880F97FB991F61F09F3F4C
S113359079F087950895121613061406551FF2CF75
S11335A04695F1DF08C0161617061806991FF1CFC5
S11335B086957105610508940895E894BB276627EC
S11335C07727CB0197F908950E94971A08F48FEF93
S11335D008950E94FC1A0C946D1B0E945F1B38F026
S11335E00E94661B20F0952311F00C94561B0C943A
S11335F05C1B11240C94DE1A0E94BB1A70F3959F75
S1133600C1F3950F50E0551F629FF001729FBB27D5
S1133610F00DB11D639FAA27F00DB11DAA1F649F71
S11336206627B00DA11D661F829F2227B00DA11D24
S1133630621F739FB00DA11D621F839FA00D611DAA
S1133640221F749F3327A00D611D231F849F600DCB
S1133650211D822F762F6A2F11249F5750409AF0F4
S1133660F1F088234AF0EE0FFF1FBB1F661F771F80
S1133670881F91505040A9F79E3F510580F00C944B
S1133680561B0C94DE1A5F3FE4F3983ED4F3869500
S113369077956795B795F795E7959F5FC1F7FE2BEB
S11336A0880F911D9695879597F9089597F99F67C7
S11336B080E870E060E008959FEF80EC08950024B6
S11336C00A941616170618060906089500240A9483
S11336D012161306140605060895092E0394000C09
S11336E011F4882352F0BB0F40F4BF2B11F460FF98
S11336F004C06F5F7F4F8F4F9F4F089580E2809388
S113370041060895811104C080E28093460608951D
S113371080E28093450608952F923F924F925F92E4
S11337206F927F928F929F92AF92BF92CF92DF92CD
S1133730EF92FF920F931F93CF93DF93CDB7DEB732
S11337406097CDBFDEBF7C011B016A01FC011682BC
S11337501782838181FF44C39E012F5F3F4F39014C
S1133760F7019381F10193FD859193FF81911F01ED
S1133770882309F431C3853239F493FD859193FF8D
S113378081911F01853239F4B70190E00E945C20D9
S113379056016501E5CF10E0512C912CFFE1F9159C
S11337A0D8F08B3279F038F4803279F08332A1F496
S11337B0F92DF0612EC08D3261F0803369F4292D2A
S11337C021602DC0392D3260932E892D8460982E6E
S11337D02AC0E92DE86015C097FC2DC020ED280F04
S11337E02A3088F496FE06C03AE0139F200D112477
S11337F0122F19C08AE0589E200D1124522EE92D53
S1133800E0629E2E10C08E3231F496FCE5C2F92D92
S1133810F0649F2E08C08C3621F4292D2068922E46
S113382002C0883641F4F10193FD859193FF8191A3
S11338301F018111B3CF9BEB980F933020F4992D86
S11338409061805E07C09BE9980F933008F066C1D1
S1133850992D9F7E96FF16E09F73992E853619F455
S11338609064992E08C0863621F4392F3068932E3F
S113387002C01111115097FE07C01C3350F44424A8
S11338804394410E27E00BC0183038F027E017E0CE
S113389005C027E09CE3492E02C0212F412C56018C
S11338A084E0A80EB11CF60160817181828193814C
S11338B0042DA3010E944E1F6C01F981FC87F0FFC7
S11338C002C0F3FF06C091FC06C092FE06C000E2EF
S11338D005C00DE203C00BE201C000E08C858C70D2
S11338E019F001115AC29BC297FE10C04C0CFC8502
S11338F0F4FF04C08A81813309F44A94141474F5E2
S113390028E0241578F588E0482E2CC096FC2AC0BF
S1133910812F90E08C159D059CF03CEFC3163FEF82
S1133920D30674F0892D8068982E0AC0E2E0F0E096
S1133930EC0FFD1FE10FF11D8081803319F411504C
S11339401111F4CF97FE0EC044244394410E812FED
S113395090E0C816D9062CF41C1904C044244394DE
S113396001C010E097FE06C01C141D0434F4C60107
S1133970019605C085E090E002C081E090E001116D
S11339800196112331F0212F30E02F5F3F4F820F3A
S1133990931F252D30E08217930714F4581A01C0A1
S11339A0512C892D897049F4552039F0B70180E2F2
S11339B090E00E945C205A94F7CF002329F0B701CD
S11339C0802F90E00E945C2093FC09C0552039F0C0
S11339D0B70180E390E00E945C205A94F7CF97FEF1
S11339E04CC04601D7FE02C0812C912CC601881917
S11339F09909F301E80FF91FED87FE879601241951
S1133A0031092F87388B012F10E011950195110989
S1133A103FEF8316930629F4B7018EE290E00E94EB
S1133A205C20C814D9044CF08F85988988159905B1
S1133A3024F4ED85FE85818101C080E3F1E08F1AD5
S1133A4091082D853E852F5F3F4F2D873E87801639
S1133A5091062CF0B70190E00E945C20D9CFC814E5
S1133A60D90441F49A81963320F4953319F43C85B2
S1133A7034FF81E3B70190E04EC08A81813319F0AD
S1133A809C859F7E9C87B70190E00E945C20111169
S1133A9005C094FC18C085E690E017C0B7018EE21B
S1133AA090E00E945C201E5F82E001E0080FF301B9
S1133AB0E80FF11D8081B70190E00E945C20802F07
S1133AC00113F3CFE6CF85E490E0B7010E945C20B8
S1133AD0D7FC06C0C114D10441F4EC85E4FF05C051
S1133AE0D194C194D1088DE201C08BE2B70190E07A
S1133AF00E945C2080E32AE0C216D1042CF08F5F80
S1133B00FAE0CF1AD108F7CFB70190E00E945C2009
S1133B10B701C601C0960E945C2054C1833631F0BF
S1133B20833779F0833509F056C020C0560132E05E
S1133B30A30EB11CF6018081898301E010E06301CA
S1133B4012C05601F2E0AF0EB11CF601C080D18064
S1133B5096FE03C0612F70E002C06FEF7FEFC601D5
S1133B600E9451208C01F92DFF7714C0560122E0E8
S1133B70A20EB11CF601C080D18096FE03C0612F55
S1133B8070E002C06FEF7FEFC6010E9426208C0117
S1133B90F92DF0689F2EF3FD1AC0852D90E00817CB
S1133BA01907A8F4B70180E290E00E945C205A94BF
S1133BB0F4CFF60197FC859197FE81916F01B701CF
S1133BC090E00E945C2051105A9401501109011593
S1133BD0110579F7F7C0843611F0893661F556017D
S1133BE097FE09C024E0A20EB11CF6016081718128
S1133BF0828193810AC0F2E0AF0EB11CF6016081AC
S1133C007181072E000C880B990BF92DFF769F2EDE
S1133C1097FF09C090958095709561957F4F8F4F60
S1133C209F4FF0689F2E2AE030E0A3010E945021AC
S1133C30C82EC6183FC0092D853721F40F7E2AE00F
S1133C4030E01DC0097F8F3691F018F4883559F0A3
S1133C50C3C0803719F0883711F0BEC0006104FF7B
S1133C6009C0046007C094FE08C0066006C028E0CE
S1133C7030E005C020E130E002C020E132E056012E
S1133C8007FF09C084E0A80EB11CF60160817181B0
S1133C908281938108C0F2E0AF0EB11CF60160810D
S1133CA0718180E090E0A3010E945021C82EC618C3
S1133CB00F77902E96FE0BC0092D0E7FC11650F47F
S1133CC094FE0AC092FC08C0092D0E7E05C0DC2CAF
S1133CD0092D03C0DC2C01C0D12E04FF0DC0FE0150
S1133CE0EC0DF11D8081803311F4097E09C002FFBF
S1133CF006C0D394D39404C0802F867809F0D3945B
S1133D0003FD11C000FF06C01C2DD51480F4150D51
S1133D101D190DC0D51458F4B70180E290E00E943B
S1133D205C20D394F7CFD51410F45D1801C0512C46
S1133D3004FF10C0B70180E390E00E945C2002FF02
S1133D4017C001FD03C088E790E002C088E590E059
S1133D50B7010CC0802F867859F001FF02C08BE2B6
S1133D6001C080E207FD8DE2B70190E00E945C2073
S1133D70C11638F4B70180E390E00E945C20115032
S1133D80F7CFCA94F301EC0DF11D8081B70190E0E7
S1133D900E945C20C110F5CF15C0F4E0F51560F564
S1133DA084E0581A93FE1FC0011127C02C8523FFFD
S1133DB02AC004E112E0392D3071932EF801849168
S1133DC0811124C0552009F4E4CCB70180E290E0CD
S1133DD00E945C205A94F6CFF7018681978126C011
S1133DE08FEF9FEF23C0B70180E290E00E945C2038
S1133DF05A945110F8CFD8CF512CB701802F90E0AE
S1133E000E945C20D3CF08E112E0D5CF91108052FC
S1133E10B70190E00E945C200F5F1F4FCFCF23E0DB
S1133E20251510F483E0BDCF512CC0CF6096CDBFD3
S1133E30DEBFDF91CF911F910F91FF90EF90DF9044
S1133E40CF90BF90AF909F908F907F906F905F9036
S1133E504F903F902F900895A1E21A2EAA1BBB1BEE
S1133E60FD010DC0AA1FBB1FEE1FFF1FA217B30742
S1133E70E407F50720F0A21BB30BE40BF50B661F58
S1133E80771F881F991F1A9469F76095709580951C
S1133E9090959B01AC01BD01CF010895283008F035
S1133EA027E03327DA01990F311D87FD91600096D1
S1133EB06105710539F432602E5F3D9330E32A9534
S1133EC0E1F708959F3F30F080387105610509F0EE
S1133ED03C5F3C5F3D93913008F08068911DDF9317
S1133EE0CF931F930F93FF92EF92192F987F96957C
S1133EF0E92F96959695E90FFF27EA58FD4F9927E4
S1133F003327EE24FF24A701E701059008940794C2
S1133F1028F4360FE71EF81E491F511D660F771F40
S1133F20881F991F0694A1F70590079428F4E70EBB
S1133F30F81E491F561FC11D770F881F991F661F42
S1133F400694A1F70590079428F4F80E491F561F0C
S1133F50C71FD11D880F991F661F771F0694A1F7ED
S1133F600590079420F4490F561FC71FD81F990FB7
S1133F70661F771F881F0694A9F784911095177000
S1133F8041F0D695C79557954795F794E7941A95B8
S1133F90C1F7ECE1F2E068941590159135916591C3
S1133FA0959105907FE27395E118F10A430B560B46
S1133FB0C90BD009C0F7E10CF11E431F561FC91FDE
S1133FC0D01D7EF4703311F48A95E6CFE894015045
S1133FD030F0080F0AF40027021708F4202F239565
S1133FE0022F7A3328F079E37D932A95E9F710C0FC
S1133FF07D932A9589F60694979567953795179535
S11340001794E118F10A430B560BC90BD00998F029
S113401023957E9173957A3308F070E37C93201393
S1134020B8F77E9170617D9330F0839571E37D9351
S113403070E32A95E1F71124EF90FF900F911F91FF
S1134040CF91DF91992787FD90950895FC01059004
S1134050615070400110D8F7809590958E0F9F1F86
S11340600895DC0101C06D9341505040E0F708957C
S1134070FB01DC018D91019080190110D9F3990B9A
S11340800895FB01DC0101900D920020E1F70895F1
S1134090FC0101900020E9F7809590958E0F9F1FF9
S11340A00895FC016150704001900110D8F780958B
S11340B090958E0F9F1F08950F931F93CF93DF93B7
S11340C0FB01238121FD03C08FEF9FEF2CC022FF52
S11340D016C046815781248135814217530744F421
S11340E0A081B1819D012F5F3F4F208331838C9349
S11340F0268137812F5F3F4F2683378314C08B017E
S1134100EC01FB010084F185E02D1995892BE1F682
S1134110D80116968D919C911797019616968D93BA
S11341209C931797CE01DF91CF911F910F91089522
S1134130CF93DF93CDB7DEB7AE014A5F5F4FFA018D
S113414061917191AF018091FC639091FD630E9434
S11341508C1BDF91CF9108950F931F93CF93DF931F
S1134160E091FC63F091FD63238121FF1BC08C016E
S1134170D0E0C0E0F80181918F016091FC637091FF
S1134180FD63DB011896ED91FC911997882331F0BA
S11341901995892B79F3DFEFCFEFECCF8AE01995EE
S11341A0892B19F08FEF9FEF02C08D2F9C2FDF9189
S11341B0CF911F910F910895CF93DF93CDB7DEB7C1
S11341C0AE014A5F5F4FFA0161917191AF01809135
S11341D0FA639091FB630E946723DF91CF91089566
S11341E00F931F93CF93DF93CDB7DEB72E97CDBF39
S11341F0DEBF0E891F89888D998D26E02C83098363
S11342001A8397FF02C080E090E801978D839E8314
S1134210AE01445E5F4F6A8D7B8DCE0101960E9494
S11342208C1B4D815E8157FD0AC02F813885421752
S113423053070CF49A01F801E20FF31F10822E9633
S1134240CDBFDEBFDF91CF911F910F9108950F93E2
S11342501F93CF93DF93CDB7DEB72E97CDBFDEBFCD
S11342600E891F8986E08C8309831A838FEF9FE769
S11342708D839E83AE01465E5F4F688D798DCE013E
S113428001960E948C1BEF81F885E00FF11F1082CC
S11342902E96CDBFDEBFDF91CF911F910F91089570
S11342A0FA01AA27283051F1203181F1E8946F9363
S11342B06E7F6E5F7F4F8F4F9F4FAF4FB1E03ED009
S11342C0B4E03CD0670F781F891F9A1FA11D680FA7
S11342D0791F8A1F911DA11D6A0F711D811D911DDA
S11342E0A11D20D009F468943F912AE0269F11244F
S11342F03019305D3193DEF6CF010895462F4770B3
S1134300405D4193B3E00FD0C9F7F6CF462F4F700D
S1134310405D4A3318F0495D31FD4052419302D06B
S1134320A9F7EACFB4E0A695979587957795679511
S1134330BA95C9F700976105710508959B01AC0111
S11343400A2E06945795479537952795BA95C9F738
S1134350620F731F841F951FA01D089520FD09C0BF
S1134360FC0123FD05C022FF02C0738362835183D5
S11343704083089544FD17C046FD17C0AB01BC013E
S1134380DA01FB01AA0FBB1FEE1FFF1F1094D1F728
S11343904A0F5B1F6E1F7F1FCB01BA01660F771F89
S11343A0881F991F09C033E001C034E0660F771FEE
S11343B0881F991F3150D1F7620F711D811D911D06
S11343C008950F931F93CF93DF938C01C8010E942C
S11343D0A024EC0197FD08C00E948C24892BB1F71E
S11343E0B801CE010E94DE24CE01DF91CF911F914E
S11343F00F9108958F929F92AF92BF92EF92FF9286
S11344000F931F93CF93DF938C01D62F7A01B22E93
S11344100E94A0249C0133272B32310531F02D3228
S1134420310561F48B2D8068B82ED15011F480E0F1
S113443068C0C8010E94A02497FDF9CFCB2DCD7F81
S11344402B2D207309F58033F9F4AA24AA94AD0E18
S113445009F443C0C8010E94A02497FD3EC09C01FA
S11344602F7D33272835310549F4C264D250A9F190
S1134470C8010E94A02497FF07C02FC0B6FE02C047
S1134480C26001C0C261DA2D812C912C540120ED4F
S1134490280F283080F0C4FF04C0B8010E94DE2435
S11344A019C02A3040F0C6FFF8CF2F7D3FEE320FFF
S11344B0363098F727504C2FC501B4010E94BA2119
S11344C04B015C01C260D15059F0C8010E94A02484
S11344D097FFDDCFC1FD04C0AACF812C912C5401DC
S11344E0C7FF08C0B094A09490948094811C911C40
S11344F0A11CB11C2C2FB501A401C7010E94AE213F
S113450081E0DF91CF911F910F91FF90EF90BF90C9
S1134510AF909F908F9008955F926F927F928F9249
S11345209F92AF92BF92CF92DF92EF92FF920F933E
S11345301F93CF93DF93CDB7DEB7A097CDBFDEBF78
S11345405C01962E7A01F9018E010F5F1F4F6801FD
S113455080E2D8011D928A95E9F7D50113968C90D3
S113456080E090E0612C712C30E061E070E083FC2D
S1134570259183FE21918F01522E211103C080E0E9
S113458090E092C02E3511F4009751F1432F50E082
S1134590481759073CF42D3559F12D3219F4772079
S11345A009F103C0772009F46AC0452D4695469564
S11345B04695D601A40FB11D452D47708B0102C04D
S11345C0000F111F4A95E2F7A8015C91452B4C930B
S11345D0651459F0561410F45394E7CF5A94E5CF68
S11345E031E004C07724739401C0712C0196BFCFCD
S11345F0772019F08E8180628E83311103C0882464
S1134600839417C0F6019E012F5D3F4F80818095F2
S113461081932E173F07D1F7F2CFE114F10429F06B
S1134620D7018C93F70131967F019A94812C9920BC
S1134630F9F0C5010E94A02497FD18C0FC01FF27D2
S113464023E0F595E7952A95E1F7EC0DFD1D208112
S113465030E0AC014770552702C0359527954A953F
S1134660E2F720FDDACFB5010E94DE24811087CF66
S1134670E114F10411F0D7011C92C80115C0422FB6
S1134680469546954695D601A40FB11D422F477015
S11346908B0102C0000F111F4A95E2F7A8015C913B
S11346A0452B4C93622EA2CFA096CDBFDEBFDF91E7
S11346B0CF911F910F91FF90EF90DF90CF90BF901B
S11346C0AF909F908F907F906F905F9008955F92CE
S11346D06F927F928F929F92AF92BF92CF92DF920E
S11346E0EF92FF920F931F93CF93DF936C01EB0133
S11346F05A01FC0116821782512CF601E380FE0157
S1134700E3FC8591E3FE8191182FEF01882309F4DE
S1134710EEC090E00E948C24892B21F0C6010E94F7
S1134720E121EBCF153241F4FE01E3FC1591E3FEE8
S11347301191EF01153281F4C6010E94A02497FD66
S1134740D4C0412F50E09C01332724173507A9F228
S1134750B6010E94DE24CBC01A3239F4E3FC159171
S1134760E3FE1191EF0101E001C000E0F12C20ED26
S1134770210F2A3080F402606F2D70E080E090E019
S113478040E20E94BA21F62EFE01E3FC1591E3FEFD
S11347901191EF01ECCF01FF03C0F11003C0A7C0DA
S11347A0FF24FA94183619F01C3651F010C0FE019B
S11347B0E3FC1591E3FE1191EF01183641F4086012
S11347C00460FE01E3FC1591E3FE1191EF01112356
S11347D009F48DC0612F70E086E193E00E94952476
S11347E0892B09F484C000FD07C0F5018080918005
S11347F0C50102965C0102C0812C912C1E3651F435
S1134800F6014681578160E070E0202FC4010E94C8
S1134810AE2173CF1336A9F401FD02C0FF24F39433
S1134820C6010E94A02497FD60C08114910429F060
S1134830F4018083C40101964C01FA94F110F0CF85
S113484050C01B3559F49E01A4016F2DC6010E946E
S11348508C22EC01892B09F044C03EC0C6010E94A1
S1134860E12197FD42C01F3661F128F4143639F175
S1134870193651F128C0133771F0153701F123C0EF
S11348808114910429F0F4016082C40101964C0161
S1134890FA94FF2071F0C6010E94A0243C0197FD08
S11348A008C00E948C24892B59F3B601C3010E94CD
S11348B0DE2481149104A9F0F401108212C0006274
S11348C003C0006101C00064202FA4016F2DC60144
S11348D00E94FA21811105C0F6018381807329F4B5
S11348E006C000FD0ACF539408CF552019F0852D3A
S11348F090E002C08FEF9FEFDF91CF911F910F9156
S1134900FF90EF90DF90CF90BF90AF909F908F90EB
S11349107F906F905F90089591110C94F7248032EA
S113492019F089508550C8F70895FC0105900616C2
S113493021F00020D9F7C00108953197CF010895DF
S1134940CF93DF93EC012B8120FF33C026FF0AC0F5
S11349502F7B2B838E819F8101968E839F838A81F7
S113496090E029C022FF0FC0E881F9818081082EE0
S1134970000C990B009719F420622B831AC031960E
S1134980E883F9830EC0EA85FB85199597FF09C072
S11349902B81019611F080E201C080E1822B8B8390
S11349A008C02E813F812F5F3F4F2E833F8399277D
S11349B002C08FEF9FEFDF91CF910895FB01238118
S11349C020FF12C026FD10C08F3F3FEF930761F018
S11349D082832F7D206423832681378121503109EE
S11349E026833783992708958FEF9FEF089599279A
S10B49F088270895F894FFCF15
S11349F80000000300000000000425040000FF3F3D
S1134A086C6F6F706C696368745F6C696E6B73004C
S1134A18010001F4012E2E2F4672656552544F533E
S1134A282F7461736B732E630049444C4500092548
S1134A38630925750925750925750D0A0009256C6D
S1134A48750909256C7525250D0A0009256C750954
S1134A58093C3125250D0A004552524F523A206D22
S1134A68656D6F727920616C6C6F636174696F6EC8
S1134A78206661696C65640D0A00535441434B20F8
S1134A886F766572666C6F7720696E207461736BDC
S1134A982025730D0A0041737365727420696E20B2
S1134AA866696C652025732C206C696E65206E72AE
S1134AB82025640D0A006C6F6F706C69636874005C
S1134AC8726563757273696500486F657665656CB0
S1134AD868656964207672696A6520686561703AF8
S1134AE820256420706F696E74657220766172691E
S1134AF86162656C653A20256420706F696E74651F
S1134B0872205443423A202564200D007465726D66
S1134B18696E616C002573006C6F6F706C696368F3
S1134B28745F6C696E6B73006C6F6F706C6963682B
S1134B38745F726563687473005265737465726533
S1134B486E646520686561703A20256420656E206E
S1134B58626173697361647265733A202564200D18
S1054B68000047
S9030000FC
