S00F00004C696E65626F742E7372656348
S11300000C9489010C94AA010C94AA010C94AA01E1
S11300100C94AA010C94AA010C94AA010C94AA01B0
S11300200C94AA010C94AA010C94AA010C94AA01A0
S11300300C94AA010C94AA010C9408050C94AA012E
S11300400C947C050C94AA010C94AA010C94AA01AA
S11300500C94AA010C94AA010C94AA010C94AA0170
S11300600C94AA010C94AA010C94AA010C94AA0160
S11300700C94AA010C94AA010C94AA010C94AA0150
S11300800C94AA010C94AA010C94AA010C94AA0140
S11300900C94AA010C94AA010C94AA010C94AA0130
S11300A00C94AA010C94AA010C94AA010C94AA0120
S11300B00C94AA010C94AA010C9441020C94AA0178
S11300C00C94AA010C94AA010C94AA010C94AA0100
S11300D00C94AA010C94AA010C94AA010C94AA01F0
S11300E00C94AA010C94AA010C94AA010C94AA01E0
S11300F00C94AA010C94AA010C94AA010C94AA01D0
S11301000C94AA010C94AA010C94AA010C94AA01BF
S11301100C94AA010C94AA010C94AA010C94AA01AF
S11301200C94AA010C94AA010C94AA010C94AA019F
S11301300C94AA010C94AA010C94AA010C94AA018F
S11301400C94AA010C94AA010C94AA010C94AA017F
S11301500C94AA010C94AA010C94AA010C94AA016F
S11301600C94AA010C94AA010C94AA010C94AA015F
S11301700C94AA010C94AA010C94AA010C94AA014F
S11301800C94AA010C94AA010C94AA010C94AA013F
S11301900C94AA010C94AA010C94AA010C94AA012F
S11301A00C94AA010C94AA010C94AA010C94AA011F
S11301B00C94AA010C94AA010C94AA010C94AA010F
S11301C00C94AA010C94AA010C94AA010C94AA01FF
S11301D00C94AA010C94AA010C94AA010C94AA01EF
S11301E00C94AA010C94AA010C94AA010C94AA01DF
S11301F00C94AA010C94AA010C94AA010C948202F6
S11302000C947A100C94FC080C948E020C943B1001
S11302106E616E00696E660000407A10F35A00A0A9
S1130220724E18090010A5D4E80000E876481700BB
S113023000E40B54020000CA9A3B000000E1F505FB
S1130240000080969800000040420F000000A08645
S113025001000000102700000000E8030000000077
S11302606400000000000A0000000000010000001B
S113027000002C76D888DC674F0823DFC1DFAE5935
S1130280E1B1B796E5E3E453C63AE651997696E8C8
S1130290E6C28426EB898C9B62ED407C6FFCEFBC4C
S11302A09C9F40F2BAA56FA5F490055A2AF75C9377
S11302B06B6CF9676DC11BFCE0E40D47FEF520E6AD
S11302C0B500D0ED902E0300943577050080841E90
S11302D0080000204E0A000000C80C333333330FEB
S11302E0986E12831141EF8D2114893BE65516CF88
S11302F0FEE6DB18D1844B381BF77C1D901DA4BB94
S1130300E424203284725E228100C9F124ECA1E548
S11303103D2711241FBECFEFCDBFDFE9DEBF00E0D4
S11303200CBF11E2A0E0B0E2E6E8FDE200E00BBFA2
S113033002C007900D92A430B107D9F721E6A4E0DA
S1130340B1E201C01D92A539B207E1F70E941E1067
S11303500C94C1160C940000FC012091A30A309166
S1130360A40A4091A50A9081992369F0319680E40A
S11303709093A00A9091A10A96FFFCCF8093A10AC2
S113038091919111F5CF2093A30A3093A40A40933D
S1130390A50A08958BEC8093520088E08093500066
S11303A08091510083FFFCCF82EC8093550088E15B
S11303B0809350008091510084FFFCCF88ED84BF6E
S11303C084E08093400080E008959091082120917A
S11303D007218091A40484FD08C080910621891717
S11303E050F0809105218217B8F083E08093A30434
S11303F010920421089580910621E0910B21F0913F
S11304000C21E80FF11D80818093A70480910621BF
S11304108F5F80930621089580910D2181608093E0
S1130420A6040895809105218032E0F48091A70408
S113043090910521E0910921F0910A21E90FF11D24
S11304408083809105218F5F8093052190910721FE
S113045080910521891788F087E08093A304109286
S11304600421089583E08093A304109204219091C1
S1130470072180910521891778F782E08093A304EE
S113048008951F920F920FB60F9211240BB60F927C
S11304902F933F934F935F936F937F938F939F9388
S11304A0AF93BF93EF93FF938091A404982F9C7014
S11304B039F486FD21C087FD22C01092042107C0B3
S11304C08091A40488608093A404109204218091F4
S11304D00421FF91EF91BF91AF919F918F917F91F3
S11304E06F915F914F913F912F910F900BBE0F90A1
S11304F00FBE0F901F9018950E94E501E8CF0E944F
S11305001202E5CF8093A00A8091A10A86FFFCCF56
S113051080E48093A10A80E090E008958091A10A8C
S113052087FFFCCF8091A00A90E00895E0E8F6E010
S113053088E0818384E08283E0EAFAE0138288E140
S1130540848383E0858385EE86838CEB8783EFE861
S1130550F1E680E090E2828393838083918308951F
S11305600F931F93CF93DF93EC010E94C60B8091EE
S11305700E21811121C088E191E28093132190938F
S1130580142110921521109216218FEF9FE380936E
S113059011219093122110920F2110921021809317
S11305A01A2190931B218FE091E28093182190935C
S11305B0192181E080930E21209709F464C0AE01D3
S11305C04C5F5F4F2396CE3FDF4308F05CC0E09161
S11305D01321F0911421A3E1B1E206C0808191813D
S11305E0009739F0DF01FC0122813381241735079C
S11305F0A8F3C1E2EF30FC0709F445C0CD91DC91CA
S113060011978E010C5F1F4F808191818D939C9374
S1130610C901841B950B8930910500F1BF01640F5A
S1130620751FDB0112968D939C931397428353831A
S113063012962D913C911397A3E1B1E201C0DF0121
S1130640ED91FC9111978281938182179307B8F3FE
S1130650EB01E883F9836D937C939A0180910E20DA
S113066090910F20821B930B80930E2090930F2068
S11306700E94A60C0115110541F0C801DF91CF912C
S11306801F910F9108950E94A60C0E948D0F00E007
S113069010E0C801DF91CF911F910F910895CF937E
S11306A0DF93009721F1EC0124970E94C60B4A8145
S11306B05B81A3E1B1E201C0DF01ED91FC911197EF
S11306C02281338124173507B8F3E883F983CD9366
S11306D0DC9380910E2090910F20480F591F409376
S11306E00E2050930F20DF91CF910C94A60CDF9134
S11306F0CF910895FC010396818392832FEF3FEFFE
S11307002383348385839683878390871082089517
S1130710FC01108611860895CF93DF939C01FB01A1
S1130720DC011196CD91DC911297C283D3838C8125
S11307309D81848395838C819D81DC0112966D93C8
S11307407C9313976C837D8320873187F9018081A3
S11307508F5F8083DF91CF910895CF93DF93EB0177
S1130760488159814F3F2FEF520701F1DC01139665
S113077001C0DF011296ED91FC9113972081318124
S113078042175307B0F7EA83FB83C483D583AC8352
S1130790BD831296CD93DC93139788879987FC01C8
S11307A020812F5F2083DF91CF910895FC01A781E1
S11307B0B0851296ED91FC911397E5CFCF93DF931B
S11307C0FC01A085B1852281338184819581E90171
S11307D08C839D8384819581EC012A833B831196CC
S11307E02D913C911297E217F30749F01086118678
S11307F08C9181508C938C91DF91CF9108951196B7
S11308008D939C931297F2CF31E1FC0130833197A1
S113081022E220833197A3E3A08331976083319749
S113082070833197108231971082319760E860832A
S113083031971082319762E06083319763E060837F
S1130840319764E06083319765E06083319766E0B7
S11308506083319767E06083319768E06083319704
S113086069E06083319760E1608331973083319729
S113087032E13083319733E13083319734E130838F
S1130880319735E13083319736E13083319737E161
S11308903083319738E13083319739E130833197B0
S11308A030E23083319731E23083319720833197BE
S11308B023E220833197408331975083319726E296
S11308C02083319727E22083319728E220833197D0
S11308D029E22083319720E32083319721E3208389
S11308E087970895E0E0F8E08FEF9FEF80A791A746
S11308F081E0808390E491838683878380E09DE711
S113090086A397A3A0917F61B0918061CD91CDBF63
S1130910DD91DEBFFF91EF91DF91CF91BF91AF9158
S11309209F918F917F916F915F914F913F912F9103
S11309301F910F91FF90EF90DF90CF90BF90AF90F9
S11309409F908F907F906F905F904F903F902F90EB
S11309501F900F900FBE0F90089581E008950F929D
S11309600FB6F8940F921F9211242F923F924F9238
S11309705F926F927F928F929F92AF92BF92CF922B
S1130980DF92EF92FF920F931F932F933F934F9316
S11309905F936F937F938F939F93AF93BF93CF9303
S11309A0DF93EF93FF93A0917F61B09180610DB6C7
S11309B00D920EB60D920E945A0DA0917F61B091D6
S11309C08061CD91CDBFDD91DEBFFF91EF91DF91CD
S11309D0CF91BF91AF919F918F917F916F915F91D3
S11309E04F913F912F911F910F91FF90EF90DF90C6
S11309F0CF90BF90AF909F908F907F906F905F90BB
S1130A004F903F902F901F900F900FBE0F9008951E
S1130A100F920FB6F8940F921F9211242F923F92C7
S1130A204F925F926F927F928F929F92AF92BF92FA
S1130A30CF92DF92EF92FF920F931F932F933F93E6
S1130A404F935F936F937F938F939F93AF93BF93D2
S1130A50CF93DF93EF93FF93A0917F61B091806177
S1130A600DB60D920EB60D922091260830912708EE
S1130A708091856190918661A0918761B091886130
S1130A80820F931FA11DB11D809385619093866190
S1130A90A0938761B09388610E94CC0B0E945A0D89
S1130AA0A0917F61B0918061CD91CDBFDD91DEBF1A
S1130AB0FF91EF91DF91CF91BF91AF919F918F9172
S1130AC07F916F915F914F913F912F911F910F9162
S1130AD0FF90EF90DF90CF90BF90AF909F908F905A
S1130AE07F906F905F904F903F902F901F900F904A
S1130AF00FBE0F90189508950F920FB6F8940F92A9
S1130B001F9211242F923F924F925F926F927F9285
S1130B108F929F92AF92BF92CF92DF92EF92FF9209
S1130B200F931F932F933F934F935F936F937F93F1
S1130B308F939F93AF93BF93CF93DF93EF93FF93E1
S1130B40A0917F61B09180610DB60D920EB60D92A9
S1130B508FEF9FEF80932808909329080E945A0DE5
S1130B60A0917F61B0918061CD91CDBFDD91DEBF59
S1130B70FF91EF91DF91CF91BF91AF919F918F91B1
S1130B807F916F915F914F913F912F911F910F91A1
S1130B90FF90EF90DF90CF90BF90AF909F908F9099
S1130BA07F906F905F904F903F902F901F900F9089
S1130BB00FBE0F9018950F931F93CF93DF93EC0103
S1130BC0042F1A8D4C8D41110DC088819981892B78
S1130BD009F443C01F5F80E01A8FDF91CF911F910A
S1130BE00F91089550E0011115C08A819B810E94E4
S1130BF0C1152C8D8A819B81820F911D8A839B83D1
S1130C002C813D818217930728F3888199818A83F7
S1130C109B83E0CF8E819F810E94C1158C8D90E0D3
S1130C209195819591092E813F81280F391F2E833B
S1130C303F83488159812417350730F42C813D8145
S1130C40820F931F8E839F83023021F6112311F0AC
S1130C5080E0C2CF11E080E0BFCF8C819D810E94F3
S1130C60B40E1C821D821F5FB7CFEF92FF920F93C9
S1130C701F93CF938C010FB6F8940F92FC01C68D8D
S1130C801C16C4F4FC0181898823A1F07801F1E1E8
S1130C90EF0EF11C06C0C15069F0F8018189882368
S1130CA049F0C7010E94840D8823A9F30E943D0ED8
S1130CB0C15099F78FEFF801868F0F900FBE0FB6D2
S1130CC0F8940F92C58D1C16C4F4F801808588230E
S1130CD0A1F07801F8E0EF0EF11C06C0C15069F0F4
S1130CE0F8018085882349F0C7010E94840D882378
S1130CF0A9F30E943D0EC15099F78FEFF801858F3B
S1130D000F900FBECF911F910F91FF90EF90089518
S1130D101F93CF93DF93EC01162F892B09F43EC068
S1130D200FB6F8940F92488159818B8D6C8D9A017E
S1130D30869F200D311D11242C833D831A8E4A83F6
S1130D405B8390E00197689F9001699F300D1124A7
S1130D50CA01820F931F8E839F838FEF8D8F8E8F97
S1130D60111113C08885811107C00F900FBE81E057
S1130D70DF91CF911F910895CE0108960E94840DB2
S1130D80882399F30E94AF04F0CFCE0108960E9405
S1130D907A03CE0141960E947A03E7CF63E071E0C3
S1130DA080E190E20E94E40FBBCFFF920F931F9368
S1130DB0CF93DF93182F062FF42E882399F1002365
S1130DC0D1F0109FC001112481960E94B002EC0161
S1130DD0009751F08196888399831B8F0C8F61E073
S1130DE0CE010E948806F8A2CE01DF91CF911F9117
S1130DF00F91FF90089581E290E00E94B002EC010F
S1130E00892B91F3C883D9831B8F0C8F61E0CE01AA
S1130E100E948806F8A2CE01DF91CF911F910F9115
S1130E20FF90089566E771E080E190E20E94E40F8C
S1130E30C6CFBF92CF92DF92EF92FF920F931F9390
S1130E40CF93DF93CDB7DEB72597CDBFDEBF8C013F
S1130E506B014C835D83B22E892B09F4B2C0C1149B
S1130E60D10409F4A2C0F2E0BF1609F47DC0F80170
S1130E70838D20E07801F8E0EF0EF11C10C06C8146
S1130E807D81C7010E94640DC8010E9435060E943D
S1130E90A60C882309F44AC0F801838D21E00FB61B
S1130EA0F8940F92F801928D981708F442C0F2E07A
S1130EB0BF1609F43EC08C819D81892B09F460C062
S1130EC0222359F10F900FBE0E94C60B0FB6F8945F
S1130ED00F92F801858D8F3F39F1F801868D8F3F90
S1130EE009F10F900FBEBE016C5F7F4FCE010196DA
S1130EF00E94E60D811148C00FB6F8940F92F801D4
S1130F00928D0F900FBE838D981709F4B8CFC80146
S1130F100E9435060E94A60CBFCFCE0101960E9406
S1130F20DB0DD0CF168EDDCF158ED7CF0E94AF0448
S1130F30B3CF4B2DB601C8010E94DB05F80191899E
S1130F4091112CC0811127C00F900FBE81E025960E
S1130F50CDBFDEBFDF91CF911F910F91FF90EF9036
S1130F60DF90CF90BF900895F801838D813009F40C
S1130F7080CF63EF72E080E190E20E94E40F77CFCC
S1130F800F900FBE80E0E3CFC8010E9435060E9497
S1130F90A60C80E0DCCF0E94AF04D6CFC8014196F6
S1130FA00E94840D882381F2F6CFF801848D882372
S1130FB009F459CF62EF72E080E190E20E94E40FFD
S1130FC052CF61EF72E080E190E20E94E40F47CFDC
S1130FD0CF93DF93482F60E081E00E94D506EC01B7
S1130FE0009761F01C821D82188219821E8220E003
S1130FF040E050E060E070E00E941907CE01DF910C
S1131000CF910895DF92EF92FF920F931F93CF93A6
S1131010DF93CDB7DEB72597CDBFDEBF8C016C83E0
S11310207D83892B09F4D0C0D8015C968C91811101
S1131030BBC0D12C20E07801B1E1EB0EF11C0FB65E
S1131040F8940F92F801828D811189C08C819D8161
S1131050892B09F49DC0222309F45FC00F900FBEB1
S11310600E94C60B0FB6F8940F92D8015D968C912E
S11310705D978F3F09F456C0F801868D8F3F09F4C0
S113108058C00F900FBEBE016C5F7F4FCE0101961A
S11310900E94E60D811123C00FB6F8940F92D80177
S11310A05A968C915A970F900FBE811144C0F80143
S11310B080819181892B09F445C06C817D81C701B0
S11310C00E94640DC8010E9435060E94A60C882364
S11310D011F021E0B4CF0E94AF0421E0B0CFC801E9
S11310E00E9435060E94A60C0FB6F8940F92F801E0
S11310F0828D0F900FBE8111ECCFDD2009F472C0F8
S11311000FB6F8940F928189811165C060E0F801EF
S1131110848195810E940B0F43C0CE0101960E94E9
S1131120DB0D9CCF5D961C92F801868D8F3F09F0F4
S1131130A8CF168EA6CFC8010E9435060E94A60C21
S113114021E07DCF0FB6F8940F9214968D919C9167
S113115015970E94410ED82E0F900FBEAECF81502E
S1131160828F80819181892B09F43EC0F8018085AA
S1131170811121C00F900FBE81E02596CDBFDEBF47
S1131180DF91CF911F910F91FF90EF90DF90089521
S1131190DD2031F061EE75E080E190E20E94E40F21
S11311A00F900FBE80E0E9CF65E975E080E190E241
S11311B00E94E40F3ECFC80108960E94840D882344
S11311C0C9F20E94AF04D6CF61E975E080E190E2F4
S11311D00E94E40F29CF0688F789E02D808164E01E
S11311E0681B95CF80E0C9CF0E947A0FD80114966E
S11311F08D939C931597BACF20C00FB6F8940F9295
S1131200E0913861F0913961C681D781CE010296AF
S11312100E94DE038091286181508093286180912F
S113122032618150809332610F900FBE8F89988D07
S11312300E944F03CE010E944F03809132618111BD
S1131240DCCF80915B61823010F00E94AF040E9479
S11312508C0FF3CFE0914761F09148610580F681EE
S1131260E02D0680F781E02D8281938180931E61B9
S113127090931F610895FF920F931F93CF93DF9371
S1131280EC01F62E009126611091276180917F6117
S11312909091806102960E94DE03CF3F8FEFD807C2
S11312A0A9F1C00FD11FE0917F61F0918061C283E9
S11312B0D38360917F6170918061C017D107C8F0BA
S11312C080914761909148616E5F7F4F0E94AD03AA
S11312D080911E6190911F61C817D90720F4C093B3
S11312E01E61D0931F61DF91CF911F910F91FF90E9
S11312F0089580914561909146616E5F7F4FDF91C3
S1131300CF911F910F91FF900C94AD03FF2049F2F0
S113131060917F61709180616E5F7F4F89E291E699
S1131320DF91CF911F910F91FF900C948C030F9339
S11313301F93CF93109222612091200830912108AD
S11313408091856190918661A0918761B091886157
S1131350820F931FA11DB11D009117611091186197
S11313602091196130911A61081719072A073B0760
S1131370A0F4E0917F61F091806145A156A167A13D
S113138070A5401B510B620B730B480F591F6A1F4A
S11313907B1F45A356A367A370A7809317619093FF
S11313A01861A0931961B0931A61E0917F61F09183
S11313B080610788F08DE02D80819181A281B381C5
S11313C0853A954AA54AB54A09F44CC060917F61B3
S11313D07091806180917F6190918061675E7F4FA1
S11313E00E94AC0FC09125618C2F90E09C01220FCC
S11313F0331F220F331F220F331FF901E80FF91F88
S1131400E55AFE49408141110CC0CC2311F0C15072
S1131410EBCF6CE87BE084E290E20E94E40FC150E1
S1131420E3CF820F931FDC01A55ABE491196ED91BB
S1131430FC9112970280F381E02D1196ED93FC93B9
S11314401297825A9E49E817F90759F186819781C4
S113145080937F6190938061C0932561CF911F91A8
S11314600F91089584819581A681B781853A954A23
S1131470A54AB54A09F0AACF80859185A285B3858E
S1131480853A954AA54AB54A09F0A0CF8485958541
S1131490A685B785853A954AA54AB54A09F096CFF7
S11314A0A1CF0280F381E02D1196ED93FC93129766
S11314B0CDCF5F926F927F928F929F92AF92BF92A5
S11314C0CF92DF92EF92FF920F931F93CF93DF930C
S11314D04C01EB015A013901502ECA010E94B0029D
S11314E08C01892B09F4DCC08EE290E00E94B002EA
S11314F06C01009709F4D1C0DC0157960D931C933D
S11315005897209709F4CEC0C801A50165EA70E098
S11315100E94CA15F1E0AF1AB108D60157968D9111
S11315209C915897A80EB91EF60179969E01285FE2
S11315303F4FDE01899181938C91882319F0C21762
S1131540D307B9F7F60110A2052D043008F09FC0A7
S1131550D60156960C93569793960C93939794961C
S11315601C92E6012296CE010E948803C6010C96C5
S11315700E948803F601C086D18684E090E0801B37
S1131580910984879587C28AD38A15A216A217A2C5
S113159010A611A612A613A614A615A6A301B4019B
S11315A0C5010E940404D6018D939C93E114F104B7
S11315B019F0F701C082D1820FB6F8940F9280918E
S11315C028618F5F8093286180917F619091806111
S11315D0892B99F080912461811118C0E0917F6179
S11315E0F0918061D60156968C919689891788F07E
S11315F0C0927F61D09280610CC0C0927F61D09212
S1131600806180912861813009F456C0D6015696D4
S11316108C91909120619F5F90932061F60191A33A
S113162090912561981780F190E09C01220F331F5F
S1131630220F331F220F331F820F931FBE01855ABF
S11316409E490E948C030F900FBE809124618823D1
S113165051F0E0917F61F09180619689D6015696B0
S11316608C919817B0F081E0DF91CF911F910F9189
S1131670FF90EF90DF90CF90BF90AF909F908F90AE
S11316807F906F905F90089580932561CDCF03E0A4
S11316905FCF0E94AF0481E0E7CFC8010E944F03EF
S11316A08FEFE2CF60E673E084E290E20E94E40F01
S11316B0F6018789908D29CF8BE591E60E947A0304
S11316C084E691E60E947A038DE691E60E947A030D
S11316D086E791E60E947A0382E591E60E947A0306
S11316E089E491E60E947A038CE391E60E947A03EE
S11316F083E391E60E947A0389E291E60E947A03E9
S113170082E591E6809347619093486189E491E68C
S11317108093456190934661F60186897ACFEF9272
S1131720FF920F938CE1E82E81E6F82E00E020E092
S113173030E040E051E068E370E28CEF98E00E9412
S1131740590A813079F08F3F21F00F91FF90EF908B
S1131750089567E078E084E290E20F91FF90EF90C3
S11317600C94E40FF8942FEF3FEF20931E61309315
S11317701F618093246110922661109227610E9458
S11317807B050F91FF90EF900C94720480911B6184
S11317908F5F80931B610895DF92EF92FF920F9306
S11317A01F93CF93DF9380911B618111B9C0E090A7
S11317B02661F09027618FEFE81AF80AE09226611B
S11317C0F0922761E114F10449F5E0914761F09149
S11317D0486180818111ABC08091476190914861DB
S11317E0209145613091466120934761309348616F
S11317F08093456190934661809121618F5F8093CE
S11318002161E0914761F09148618081811196C026
S11318108FEF9FEF80931E6190931F6180911E61F3
S113182090911F61D12CE816F90608F453C0E09199
S11318304761F09148618081882309F445C0E091B3
S11318404761F09148610580F681E02DC681D7811A
S11318508A819B81E816F90608F473C08E010E5F35
S11318601F4FC8010E94DE038C899D89892B21F0BA
S1131870CE010C960E94DE038E8990912561981703
S113188010F48093256190E09C01220F331F220FF6
S1131890331F220F331F820F931FB801855A9E49AD
S11318A00E948C03E0917F61F09180619E8986891A
S11318B0981708F4BCCFDD24D394E0914761F091EC
S11318C0486180818111BBCF8FEF9FEF80931E61B0
S11318D090931F61E0917F61F0918061868990E02F
S11318E0FC01EE0FFF1FEE0FFF1FEE0FFF1F8E0F09
S11318F09F1FFC01E55AFE498081823010F0DD24EF
S1131900D39480912261882311F0DD24D3948D2D0A
S1131910DF91CF911F910F91FF90EF90DF90089589
S1131920809123618F5F80932361D12CEACF66E697
S11319307AE084E290E20E94E40F4ECF0E942A09EA
S11319406DCF80931E6190931F61C4CFFF920F935C
S11319501F93CF93DF9380911B61882309F477C091
S11319600FB6F8940F9280911B61815080931B6194
S113197080911B61811162C080912861882309F4E0
S11319805DC0C0E0D0E0FF24F39480913C618823E3
S1131990A1F1E0914161F0914261C681D781CE010C
S11319A00C960E94DE038E010E5F1F4FC8010E9439
S11319B0DE038E8990912561981710F48093256138
S11319C090E09C01220F331F220F331F220F331F7D
S11319D0820F931FB801855A9E490E948C03E0919F
S11319E07F61F09180619E898689981770F2F092E8
S11319F0226180913C618111CCCFCD2B69F0E091C3
S1131A004761F0914861808181112CC08FEF9FEF75
S1131A1080931E6190931F61C0912361CC2351F088
S1131A20D1E00E94CC0B8111D0932261C150C9F73F
S1131A301092236180912261811110C080E00F9087
S1131A400FBEDF91CF911F910F91FF9008956CE627
S1131A5078E084E290E20E94E40F82CF0E94AF0417
S1131A6081E0EDCF0E942A09D7CFCF93DF93EC0119
S1131A70892B29F40E94AF04DF91CF9108958091BE
S1131A801B61811110C080911B618F5F80931B616A
S1131A9060E0CE010E943B090E94A60C882351F30A
S1131AA0DF91CF91089560E275E084E290E20E94B4
S1131AB0E40FE9CF80911B61811102C00C94970956
S1131AC081E08093226108950F931F93CF93DF9356
S1131AD0EC018B01892B89F060917F6170918061A9
S1131AE0645F7F4FCE010E94AD0361E0C801DF91C6
S1131AF0CF911F910F910C943B0963EA7BE084E240
S1131B0090E20E94E40FE8CF0F931F93CF93DF93EB
S1131B10DC011596ED91FC911697C681D78120972B
S1131B2009F442C08E01045F1F4FC8010E94DE0306
S1131B3080911B61811129C00A501109C8010E94BA
S1131B40DE038E8990912561981728F190E09C011D
S1131B50220F331F220F331F220F331F820F931FB5
S1131B60B801855A9E490E948C03E0917F61F091EF
S1131B7080619E898689891788F481E08093226137
S1131B80DF91CF911F910F910895B8018CE391E6F5
S1131B900E948C03EACF80932561D8CF80E0DF9147
S1131BA0CF911F910F9108956EEF7BE084E290E254
S1131BB00E94E40FB7CF20912161FC012083209182
S1131BC02661309127612183328308950F931F93F7
S1131BD0CF93DF93EC018B01892B09F440C00115ED
S1131BE0110509F443C00FB6F8940F928091266151
S1131BF090912761F801208131812F3FFFEF3F074A
S1131C0061F149815A81609121617881761719F0D7
S1131C108417950780F4841B950B8217930768F04B
S1131C20F8011082118281E00F900FBEDF91CF91F5
S1131C301F910F91089581E0F7CF281B390BF8010C
S1131C4020833183809121618883809126619091E2
S1131C50276189839A8380E0E7CF80E0E5CF69E656
S1131C607CE084E290E20E94E40FB9CF6AE67CE073
S1131C7084E290E20E94E40FB6CF81E08093226177
S1131C8008950F931F93CF93DF93FC01892B09F4DD
S1131C9041C02689A0917F61B091806156968C9154
S1131CA0281770F58485958597FD0CC0A0917F61F8
S1131CB0B091806156963C9184E090E0831B910939
S1131CC08487958730E0C901880F991F880F991F71
S1131CD0880F991F280F391F255A3E4982859385FD
S1131CE082179307E9F0A0917F61B09180615696C5
S1131CF08C91868B81E0DF91CF911F910F91089594
S1131D00A0917F61B091806181E023A156969C915E
S1131D10291788F380E0DF91CF911F910F910895E7
S1131D208F01EF012296CE010E94DE03E0917F61D4
S1131D30F09180618689F801868B909125619817CE
S1131D4010F48093256190E09C01220F331F220F31
S1131D50331F220F331F820F931FBE01855A9E49E2
S1131D600E948C0381E0C7CF0F931F93CF93DF931F
S1131D700097C9F0EC0180917F6190918061C81750
S1131D80D90731F06EE77FE084E290E20E94E40F2D
S1131D908CA18823C1F181508CA32E899BA1291782
S1131DA011F0882331F080E0DF91CF911F910F91E2
S1131DB008958E010E5F1F4FC8010E94DE032BA100
S1131DC02E8B822F90E044E050E0481B590B4C8747
S1131DD05D8730912561321710F4209325619C01B1
S1131DE0220F331F220F331F220F331F820F931F23
S1131DF0B801855A9E490E948C0381E0DF91CF91FE
S1131E001F910F9108956FE77FE084E290E20E94B2
S1131E10E40F8CA1C0CF0F931F93CF93DF93009750
S1131E2079F0162FEC018CA1882309F454C00BA17E
S1131E30011758F08E89801719F09CA1913039F060
S1131E40DF91CF911F910F910895012FF3CF20912E
S1131E507F6130918061C217D30709F443C00E8BB0
S1131E602C853D8537FD06C024E030E0201B310978
S1131E702C873D8790E09C01220F331F220F331FD4
S1131E80220F331F820F931F855A9E492A853B8553
S1131E9028173907A9F68E010E5F1F4FC8010E944B
S1131EA0DE038E8990912561981710F48093256143
S1131EB090E09C01220F331F220F331F220F331F88
S1131EC0820F931FB801855A9E49DF91CF911F91CC
S1131ED00F910C948C036DEC7FE084E290E20E94FD
S1131EE0E40FA5CF68EE7FE084E290E20E94E40F65
S1131EF08E89B5CF80917F6190918061892B39F073
S1131F00E0917F61F091806184A18F5F84A38091CF
S1131F107F619091806108950895F89487E690E236
S1131F200E94AC0180E880930106809305062FEFA0
S1131F3033EC99E0215030409040E1F700C00000BC
S1131F40809306062FEF33EC99E021503040904007
S1131F50E1F700C00000E9CFCF93DF93CDB7DEB740
S1131F60C058D109CDBFDEBFF89480E88093010644
S1131F707F936F9329E830E23F932F931F928F93BF
S1131F808E010F5F1F4F1F930F930E942C16C801E1
S1131F900E94AC01CDBFDEBF80E8809305063FEF11
S1131FA093ED20E3315090402040E1F700C0000061
S1131FB0809306063FEF93ED20E33150904020409C
S1131FC0E1F700C00000E9CFCF93DF93CDB7DEB7D0
S1131FD0C058D109CDBFDEBFF89420E82093010694
S1131FE07F936F939F938F9385EA90E29F938F9350
S1131FF01F922F938E010F5F1F4F1F930F930E9409
S11320002C16C8010E94AC01CDBFDEBF80E88093CE
S113201005063FEF93EC29E0315090402040E1F772
S113202000C00000809306063FEF93ED20E331509B
S113203090402040E1F700C00000E9CF0E94CA01AF
S11320400E9496020E94301181E00E94341187E0C0
S11320508093A20078942FEF89EF90E02150804084
S11320609040E1F700C000000E940A110E948F0B0B
S113207080E090E0089580E1882E982C540190E24D
S1132080C92EDC2C76016FEF7FEF80918D619091EA
S11320908E610E9402088092816190928261A09276
S11320A08361B092846120E040E050E060E070E041
S11320B080918D6190918E610E9419076FEF7FEF7F
S11320C080918D6190918E610E940208C09281611D
S11320D0D0928261E0928361F092846120E040E0DA
S11320E050E060E070E080918D6190918E610E947B
S11320F01907C9CF05EC10E2CFEDD0E220912008FA
S1132100309121088091856190918661A0918761C9
S1132110B0918861820F931FA11DB11D80938961C5
S113212090938A61A0938B61B0938C616FEF7FEF82
S113213080918D6190918E610E94020880918161ED
S113214090918261A0918361B091846180319041CA
S1132150A041B04119F18091816190918261A09177
S11321608361B091846180329042A042B042B1F068
S11321708091816190918261A0918361B091846129
S1132180BF93AF939F938F931F930F930E9418163F
S11321900F900F900F900F900F900F9020E040E061
S11321A050E060E070E080918D6190918E610E94BA
S11321B019078091200890912108409185615091E0
S11321C086616091876170918861A0E0B0E0C09001
S11321D08961D0908A61E0908B61F0908C618C1958
S11321E09D09AE09BF09840F951FA61FB71FBF9392
S11321F0AF939F938F93DF93CF930E94181681E040
S113220090E00E94350D0F900F900F900F900F905B
S11322100F9074CFEF92FF920F93E12CF12C01E019
S113222020E030E040E051E06FEE70E28BE390E1BB
S11322300E94590A02E020E030E040E051E068EFFB
S113224070E28AE790E10E94590A81E00E94E8075F
S113225080938D6190938E610F91FF90EF9008951C
S113226080E2809341060895811104C080E2809346
S11322704606089580E28093450608952F923F9282
S11322804F925F926F927F928F929F92AF92BF9282
S1132290CF92DF92EF92FF920F931F93CF93DF932E
S11322A0CDB7DEB76097CDBFDEBF7C011B016A01ED
S11322B0FC0116821782838181FF44C39E012F5F34
S11322C03F4F3901F7019381F10193FD859193FF0C
S11322D081911F01882309F431C3853239F493FDB8
S11322E0859193FF81911F01853239F4B70190E004
S11322F00E94DC1556016501E5CF10E0512C912CAC
S1132300FFE1F915D8F08B3279F038F4803279F0A6
S11323108332A1F4F92DF0612EC08D3261F0803347
S113232069F4292D21602DC0392D3260932E892D19
S11323308460982E2AC0E92DE86015C097FC2DC052
S113234020ED280F2A3088F496FE06C03AE0139F49
S1132350200D1124122F19C08AE0589E200D11243B
S1132360522EE92DE0629E2E10C08E3231F496FC7E
S1132370E5C2F92DF0649F2E08C08C3621F4292D76
S11323802068922E02C0883641F4F10193FD8591B4
S113239093FF81911F018111B3CF9BEB980F933071
S11323A020F4992D9061805E07C09BE9980F9330CB
S11323B008F066C1992D9F7E96FF16E09F73992EB3
S11323C0853619F49064992E08C0863621F4392F85
S11323D03068932E02C01111115097FE07C01C33B0
S11323E050F444244394410E27E00BC0183038F0D5
S11323F027E017E005C027E09CE3492E02C0212F07
S1132400412C560184E0A80EB11CF6016081718153
S113241082819381042DA3010E94DE146C01F98151
S1132420FC87F0FF02C0F3FF06C091FC06C092FED9
S113243006C000E205C00DE203C00BE201C000E0EB
S11324408C858C7019F001115AC29BC297FE10C082
S11324504C0CFC85F4FF04C08A81813309F44A944E
S1132460141474F528E0241578F588E0482E2CC05F
S113247096FC2AC0812F90E08C159D059CF03CEFC2
S1132480C3163FEFD30674F0892D8068982E0AC0D6
S1132490E2E0F0E0EC0FFD1FE10FF11D80818033DD
S11324A019F411501111F4CF97FE0EC04424439433
S11324B0410E812F90E0C816D9062CF41C1904C0D3
S11324C04424439401C010E097FE06C01C141D046C
S11324D034F4C601019605C085E090E002C081E0B5
S11324E090E001110196112331F0212F30E02F5F8C
S11324F03F4F820F931F252D30E08217930714F46A
S1132500581A01C0512C892D897049F4552039F08D
S1132510B70180E290E00E94DC155A94F7CF0023C3
S113252029F0B701802F90E00E94DC1593FC09C0CC
S1132530552039F0B70180E390E00E94DC155A94ED
S1132540F7CF97FE4CC04601D7FE02C0812C912CD8
S1132550C60188199909F301E80FF91FED87FE8771
S11325609601241931092F87388B012F10E011951A
S1132570019511093FEF8316930629F4B7018EE202
S113258090E00E94DC15C814D9044CF08F8598891A
S11325908815990524F4ED85FE85818101C080E3C9
S11325A0F1E08F1A91082D853E852F5F3F4F2D87CF
S11325B03E87801691062CF0B70190E00E94DC154E
S11325C0D9CFC814D90441F49A81963320F49533B1
S11325D019F43C8534FF81E3B70190E04EC08A8151
S11325E0813319F09C859F7E9C87B70190E00E94FF
S11325F0DC15111105C094FC18C085E690E017C0E5
S1132600B7018EE290E00E94DC151E5F82E001E0DB
S1132610080FF301E80FF11D8081B70190E00E94DB
S1132620DC15802F0113F3CFE6CF85E490E0B701EA
S11326300E94DC15D7FC06C0C114D10441F4EC851A
S1132640E4FF05C0D194C194D1088DE201C08BE2AE
S1132650B70190E00E94DC1580E32AE0C216D104A1
S11326602CF08F5FFAE0CF1AD108F7CFB70190E0D2
S11326700E94DC15B701C601C0960E94DC1554C146
S1132680833631F0833779F0833509F056C020C0A2
S1132690560132E0A30EB11CF6018081898301E06A
S11326A010E0630112C05601F2E0AF0EB11CF60156
S11326B0C080D18096FE03C0612F70E002C06FEF2E
S11326C07FEFC6010E94D1158C01F92DFF7714C04C
S11326D0560122E0A20EB11CF601C080D18096FE04
S11326E003C0612F70E002C06FEF7FEFC6010E944C
S11326F0B6158C01F92DF0689F2EF3FD1AC0852DB7
S113270090E008171907A8F4B70180E290E00E944E
S1132710DC155A94F4CFF60197FC859197FE8191CC
S11327206F01B70190E00E94DC1551105A940150DA
S113273011090115110579F7F7C0843611F08936AE
S113274061F5560197FE09C024E0A20EB11CF60102
S113275060817181828193810AC0F2E0AF0EB11C65
S1132760F60160817181072E000C880B990BF92DFD
S1132770FF769F2E97FF09C090958095709561957F
S11327807F4F8F4F9F4FF0689F2E2AE030E0A301C8
S11327900E946316C82EC6183FC0092D853721F440
S11327A00F7E2AE030E01DC0097F8F3691F018F4C7
S11327B0883559F0C3C0803719F0883711F0BEC08E
S11327C0006104FF09C0046007C094FE08C00660ED
S11327D006C028E030E005C020E130E002C020E17E
S11327E032E0560107FF09C084E0A80EB11CF601CF
S11327F0608171818281938108C0F2E0AF0EB11CC7
S1132800F6016081718180E090E0A3010E9463166B
S1132810C82EC6180F77902E96FE0BC0092D0E7F7A
S1132820C11650F494FE0AC092FC08C0092D0E7E15
S113283005C0DC2C092D03C0DC2C01C0D12E04FF03
S11328400DC0FE01EC0DF11D8081803311F4097E71
S113285009C002FF06C0D394D39404C0802F8678A5
S113286009F0D39403FD11C000FF06C01C2DD5143C
S113287080F4150D1D190DC0D51458F4B70180E26C
S113288090E00E94DC15D394F7CFD51410F45D18B2
S113289001C0512C04FF10C0B70180E390E00E94F6
S11328A0DC1502FF17C001FD03C088E790E002C0F9
S11328B088E590E0B7010CC0802F867859F001FFBD
S11328C002C08BE201C080E207FD8DE2B70190E017
S11328D00E94DC15C11638F4B70180E390E00E9431
S11328E0DC151150F7CFCA94F301EC0DF11D808172
S11328F0B70190E00E94DC15C110F5CF15C0F4E0DB
S1132900F51560F584E0581A93FE1FC0011127C025
S11329102C8523FF2AC000E112E0392D3071932E5B
S1132920F8018491811124C0552009F4E4CCB70145
S113293080E290E00E94DC155A94F6CFF70186817C
S1132940978126C08FEF9FEF23C0B70180E290E00C
S11329500E94DC155A945110F8CFD8CF512CB701EE
S1132960802F90E00E94DC15D3CF04E112E0D5CF94
S113297091108052B70190E00E94DC150F5F1F4F49
S1132980CFCF23E0251510F483E0BDCF512CC0CF69
S11329906096CDBFDEBFDF91CF911F910F91FF9065
S11329A0EF90DF90CF90BF90AF909F908F907F90EB
S11329B06F905F904F903F902F900895283008F0CB
S11329C027E03327DA01990F311D87FD91600096C6
S11329D06105710539F432602E5F3D9330E32A9529
S11329E0E1F708959F3F30F080387105610509F0E3
S11329F03C5F3C5F3D93913008F08068911DDF930C
S1132A00CF931F930F93FF92EF92192F987F969570
S1132A10E92F96959695E90FFF27EE58FD4F9927D4
S1132A203327EE24FF24A701E701059008940794B7
S1132A3028F4360FE71EF81E491F511D660F771F35
S1132A40881F991F0694A1F70590079428F4E70EB0
S1132A50F81E491F561FC11D770F881F991F661F37
S1132A600694A1F70590079428F4F80E491F561F01
S1132A70C71FD11D880F991F661F771F0694A1F7E2
S1132A800590079420F4490F561FC71FD81F990FAC
S1132A90661F771F881F0694A9F7849110951770F5
S1132AA041F0D695C79557954795F794E7941A95AD
S1132AB0C1F7E8E1F2E068941590159135916591BC
S1132AC0959105907FE27395E118F10A430B560B3B
S1132AD0C90BD009C0F7E10CF11E431F561FC91FD3
S1132AE0D01D7EF4703311F48A95E6CFE89401503A
S1132AF030F0080F0AF40027021708F4202F23955A
S1132B00022F7A3328F079E37D932A95E9F710C0F0
S1132B107D932A9589F60694979567953795179529
S1132B201794E118F10A430B560BC90BD00998F01E
S1132B3023957E9173957A3308F070E37C93201388
S1132B40B8F77E9170617D9330F0839571E37D9346
S1132B5070E32A95E1F71124EF90FF900F911F91F4
S1132B60CF91DF91992787FD90950895FC010590F9
S1132B70615070400110D8F7809590958E0F9F1F7B
S1132B800895FB01DC0102C001900D9241505040B8
S1132B90D8F70895DC0101C06D9341505040E0F72F
S1132BA00895FC016150704001900110D8F78095A0
S1132BB090958E0F9F1F08950F931F93CF93DF93CC
S1132BC0FB01238121FD03C08FEF9FEF2CC022FF67
S1132BD016C046815781248135814217530744F436
S1132BE0A081B1819D012F5F3F4F208331838C935E
S1132BF0268137812F5F3F4F2683378314C08B0193
S1132C00EC01FB010084F185E02D1995892BE1F697
S1132C10D80116968D919C911797019616968D93CF
S1132C209C931797CE01DF91CF911F910F91089537
S1132C30CF93DF93CDB7DEB7AE014A5F5F4FFA01A2
S1132C4061917191AF0180919161909192610E9423
S1132C503E11DF91CF9108950F931F93CF93DF938C
S1132C60CDB7DEB72E97CDBFDEBF0E891F89888D05
S1132C70998D26E02C8309831A8397FF02C080E094
S1132C8090E801978D839E83AE01445E5F4F6A8D09
S1132C907B8DCE0101960E943E114D815E8157FDD0
S1132CA00AC02F813885421753070CF49A01F801A2
S1132CB0E20FF31F10822E96CDBFDEBFDF91CF91BE
S1132CC01F910F910895FA01AA27283051F120315C
S1132CD081F1E8946F936E7F6E5F7F4F8F4F9F4FAC
S1132CE0AF4FB1E03ED0B4E03CD0670F781F891FEE
S1132CF09A1FA11D680F791F8A1F911DA11D6A0FBC
S1132D00711D811D911DA11D20D009F468943F916E
S1132D102AE0269F11243019305D3193DEF6CF016D
S1132D200895462F4770405D4193B3E00FD0C9F733
S1132D30F6CF462F4F70405D4A3318F0495D31FDA0
S1132D404052419302D0A9F7EACFB4E0A6959795F3
S1132D50879577956795BA95C9F7009761057105C9
S1132D6008959B01AC010A2E069457954795379513
S1132D702795BA95C9F7620F731F841F951FA01D6D
S1092D800895F894FFCF52
S1132D86000000030000000082028E020000FF3FE4
S1132D962E2E2F4672656552544F532F71756575E5
S1132DA6652E63002E2E2F4672656552544F532F9F
S1132DB67461736B732E630049444C4500092563A3
S1132DC60925750925750925750D0A0009256C75EA
S1132DD60909256C7525250D0A0009256C7509094F
S1132DE63C3125250D0A004552524F523A206D6555
S1132DF66D6F727920616C6C6F636174696F6E209C
S1132E066661696C65640D0A00535441434B206F37
S1132E16766572666C6F7720696E207461736B20B9
S1132E2625730D0A0041737365727420696E2066FA
S1132E36696C652025732C206C696E65206E722082
S1132E4625640D0A00496E76616C696420446174D8
S1132E56612076616C75653A256C78200D0A0054FC
S1132E66696A64206E6F6469673A2025640D00738D
S1132E76656E647461736B00726563656976657407
S1072E8661736B0005
S9030000FC
