S00F00004C696E65626F742E7372656348
S11300000C9487010C94A8010C94A8010C94A801E9
S11300100C94A8010C94A8010C94A8010C94A801B8
S11300200C94A8010C94A8010C94A8010C94A801A8
S11300300C94A8010C94A8010C940B050C94A80131
S11300400C947F050C94A8010C94A8010C94A801AD
S11300500C94A8010C94A8010C94A8010C94A80178
S11300600C94A8010C94A8010C94A8010C94A80168
S11300700C94A8010C94A8010C94A8010C94A80158
S11300800C94A8010C94A8010C94A8010C94A80148
S11300900C94A8010C94A8010C94A8010C94A80138
S11300A00C94A8010C94A8010C94A8010C94A80128
S11300B00C94A8010C94A8010C943F020C94A80180
S11300C00C94A8010C94A8010C94A8010C94A80108
S11300D00C94A8010C94A8010C94A8010C94A801F8
S11300E00C94A8010C94A8010C94A8010C94A801E8
S11300F00C94A8010C94A8010C94A8010C94A801D8
S11301000C94A8010C94A8010C94A8010C94A801C7
S11301100C94A8010C94A8010C94A8010C94A801B7
S11301200C94A8010C94A8010C94A8010C94A801A7
S11301300C94A8010C94A8010C94A8010C94A80197
S11301400C94A8010C94A8010C94A8010C94A80187
S11301500C94A8010C94A8010C94A8010C94A80177
S11301600C94A8010C94A8010C94A8010C94A80167
S11301700C94A8010C94A8010C94A8010C94A80157
S11301800C94A8010C94A8010C94A8010C94A80147
S11301900C94A8010C94A8010C94A8010C94A80137
S11301A00C94A8010C94A8010C94A8010C94A80127
S11301B00C94A8010C94A8010C94A8010C94A80117
S11301C00C94A8010C94A8010C94A8010C94A80107
S11301D00C94A8010C94A8010C94A8010C94A801F7
S11301E00C94A8010C94A8010C94A8010C94A801E7
S11301F00C94A8010C94A8010C94A8010C948002FE
S11302000C94F50A0C94DE050C948C026E616E005D
S1130210696E660000407A10F35A00A0724E180905
S11302200010A5D4E80000E87648170000E40B5459
S1130230020000CA9A3B000000E1F5050000809628
S11302409800000040420F000000A086010000005A
S1130250102700000000E803000000006400000014
S113026000000A00000000000100000000002C76DD
S1130270D888DC674F0823DFC1DFAE59E1B1B796F8
S1130280E5E3E453C63AE651997696E8E6C2842655
S1130290EB898C9B62ED407C6FFCEFBC9C9F40F231
S11302A0BAA56FA5F490055A2AF75C936B6CF967AD
S11302B06DC11BFCE0E40D47FEF520E6B500D0ED72
S11302C0902E0300943577050080841E08000020DA
S11302D04E0A000000C80C333333330F986E128378
S11302E01141EF8D2114893BE65516CFFEE6DB184C
S11302F0D1844B381BF77C1D901DA4BBE424203211
S113030084725E228100C9F124ECA1E53D27112409
S11303101FBECFEFCDBFDFE9DEBF00E00CBF11E2AF
S1130320A0E0B0E2E8E7F2E200E00BBF02C0079011
S11303300D92AE39B107D9F722E6AEE9B1E201C0B8
S11303401D92A532B207E1F70E94D80A0C943A1123
S11303500C940000FC012091A30A3091A40A40915E
S1130360A50A9081992369F0319680E49093A00ABC
S11303709091A10A96FFFCCF8093A10A91919111CB
S1130380F5CF2093A30A3093A40A4093A50A0895B5
S11303908BEC8093520088E0809350008091510050
S11303A083FFFCCF82EC8093550088E1809350005A
S11303B08091510084FFFCCF88ED84BF84E080935A
S11303C0400080E008959091A2212091A121809184
S11303D0A40484FD08C08091A021891750F0809165
S11303E09F218217B8F083E08093A30410929E218A
S11303F008958091A021E091A521F091A621E80F14
S1130400F11D80818093A7048091A0218F5F809348
S1130410A02108958091A72181608093A604089566
S113042080919F218032E0F48091A70490919F21D4
S1130430E091A321F091A421E90FF11D8083809123
S11304409F218F5F80939F219091A12180919F2173
S1130450891788F087E08093A30410929E21089561
S113046083E08093A30410929E219091A121809116
S11304709F21891778F782E08093A30408951F923F
S11304800F920FB60F9211240BB60F922F933F9336
S11304904F935F936F937F938F939F93AF93BF9388
S11304A0EF93FF938091A404982F9C7039F486FDF8
S11304B021C087FD22C010929E2107C08091A40410
S11304C088608093A40410929E2180919E21FF91C4
S11304D0EF91BF91AF919F918F917F916F915F91B8
S11304E04F913F912F910F900BBE0F900FBE0F9025
S11304F01F9018950E94E301E8CF0E941002E5CFF7
S11305008093A00A8091A10A86FFFCCF80E48093A7
S1130510A10A80E090E008958091A10A87FFFCCFB2
S11305208091A00A90E00895E0E8F6E088E08183F5
S113053084E08283E0EAFAE0138288E1848383E042
S1130540858385EE86838CEB8783EFE1F2E680E09A
S113055090E2828393838083918308950F931F9302
S1130560CF93DF93EC010E94A8088091A821811108
S113057021C082EB91E28093AD219093AE21109241
S1130580AF211092B0218FEF9FE38093AB21909322
S1130590AC211092A9211092AA218093B4219093A6
S11305A0B52189EA91E28093B2219093B32181E04D
S11305B08093A821209709F464C0AE014C5F5F4F7B
S11305C02396CE3FDF4308F05CC0E091AD21F0916B
S11305D0AE21ADEAB1E206C080819181009739F085
S11305E0DF01FC012281338124173507A8F3C1E21E
S11305F0E93AFC0709F445C0CD91DC9111978E01CD
S11306000C5F1F4F808191818D939C93C901841B42
S1130610950B8930910500F1BF01640F751FDB0153
S113062012968D939C9313974283538312962D9124
S11306303C911397ADEAB1E201C0DF01ED91FC9169
S113064011978281938182179307B8F3EB01E883B2
S1130650F9836D937C939A0180910E2090910F20E1
S1130660821B930B80930E2090930F200E94880985
S11306700115110541F0C801DF91CF911F910F9130
S113068008950E9488090E94470A00E010E0C8010A
S1130690DF91CF911F910F910895CF93DF9300972E
S11306A021F1EC0124970E94A8084A815B81ADEAFC
S11306B0B1E201C0DF01ED91FC91119722813381F8
S11306C024173507B8F3E883F983CD93DC9380913D
S11306D00E2090910F20480F591F40930E205093E5
S11306E00F20DF91CF910C948809DF91CF91089569
S11306F080910E2090910F200895FC010396818330
S113070092832FEF3FEF23833483858396838783FC
S1130710908710820895FC01108611860895CF9366
S1130720DF939C01FB01DC011196CD91DC911297C2
S1130730C283D3838C819D81848395838C819D81A5
S1130740DC0112966D937C9313976C837D832087D1
S11307503187F90180818F5F8083DF91CF91089584
S1130760CF93DF93EB01488159814F3F2FEF52071D
S113077001F1DC01139601C0DF011296ED91FC91A9
S113078013972081318142175307B0F7EA83FB8323
S1130790C483D583AC83BD831296CD93DC93139726
S11307A088879987FC0120812F5F2083DF91CF9177
S11307B00895FC01A781B0851296ED91FC911397E1
S11307C0E5CFCF93DF93FC01A085B18522813381EE
S11307D084819581E9018C839D8384819581EC01D9
S11307E02A833B8311962D913C911297E217F307CC
S11307F049F0108611868C9181508C938C91DF91F5
S1130800CF91089511968D939C931297F2CF31E175
S1130810FC013083319722E220833197A3E3A08344
S113082031976083319770833197108231971082AA
S1130830319760E8608331971082319762E060837A
S1130840319763E06083319764E06083319765E0BA
S11308506083319766E06083319767E06083319706
S113086068E06083319769E06083319760E1608379
S113087031973083319732E13083319733E13083DC
S1130880319734E13083319735E13083319736E164
S11308903083319737E13083319738E130833197B2
S11308A039E13083319730E23083319731E230835C
S11308B031972083319723E2208331974083319706
S11308C05083319726E22083319727E220833197A2
S11308D028E22083319729E22083319720E3208383
S11308E0319721E3208387970895E0E0F8E08FEFC4
S11308F09FEF80A791A781E0808390E49183868312
S1130900878380E09DE786A397A3A0911962B091A5
S11309101A62CD91CDBFDD91DEBFFF91EF91DF91E2
S1130920CF91BF91AF919F918F917F916F915F9183
S11309304F913F912F911F910F91FF90EF90DF9076
S1130940CF90BF90AF909F908F907F906F905F906B
S11309504F903F902F901F900F900FBE0F900895CF
S113096081E008950F920FB6F8940F921F9211240C
S11309702F923F924F925F926F927F928F929F92AB
S1130980AF92BF92CF92DF92EF92FF920F931F9399
S11309902F933F934F935F936F937F938F939F9383
S11309A0AF93BF93CF93DF93EF93FF93A09119621B
S11309B0B0911A620DB60D920EB60D920E943C0AC9
S11309C0A0911962B0911A62CD91CDBFDD91DEBFC5
S11309D0FF91EF91DF91CF91BF91AF919F918F9153
S11309E07F916F915F914F913F912F911F910F9143
S11309F0FF90EF90DF90CF90BF90AF909F908F903B
S1130A007F906F905F904F903F902F901F900F902A
S1130A100FBE0F9008950F920FB6F8940F921F9285
S1130A2011242F923F924F925F926F927F928F92F6
S1130A309F92AF92BF92CF92DF92EF92FF920F9369
S1130A401F932F933F934F935F936F937F938F9352
S1130A509F93AF93BF93CF93DF93EF93FF93A091B3
S1130A601962B0911A620DB60D920EB60D922091D4
S1130A7026083091270880911B6290911C62A091F6
S1130A801D62B0911E62820F931FA11DB11D809340
S1130A901B6290931C62A0931D62B0931E620E941D
S1130AA0AE080E943C0AA0911962B0911A62CD91DD
S1130AB0CDBFDD91DEBFFF91EF91DF91CF91BF916B
S1130AC0AF919F918F917F916F915F914F913F91E2
S1130AD02F911F910F91FF90EF90DF90CF90BF90D7
S1130AE0AF909F908F907F906F905F904F903F90CA
S1130AF02F901F900F900FBE0F90189508950F928E
S1130B000FB6F8940F921F9211242F923F924F9296
S1130B105F926F927F928F929F92AF92BF92CF9289
S1130B20DF92EF92FF920F931F932F933F934F9374
S1130B305F936F937F938F939F93AF93BF93CF9361
S1130B40DF93EF93FF93A0911962B0911A620DB6EF
S1130B500D920EB60D928FEF9FEF8093280890931D
S1130B6029080E943C0AA0911962B0911A62CD91A1
S1130B70CDBFDD91DEBFFF91EF91DF91CF91BF91AA
S1130B80AF919F918F917F916F915F914F913F9121
S1130B902F911F910F91FF90EF90DF90CF90BF9016
S1130BA0AF909F908F907F906F905F904F903F9009
S1130BB02F901F900F900FBE0F90189520C00FB666
S1130BC0F8940F92E091D261F091D361C681D781FC
S1130BD0CE0102960E94E1038091C261815080930C
S1130BE0C2618091CC6181508093CC610F900FBE23
S1130BF08F89988D0E944D03CE010E944D038091F0
S1130C00CC618111DCCF8091F561823010F00E94BB
S1130C10B2040E94460AF3CFE091E161F091E261EF
S1130C200580F681E02D0680F781E02D8281938195
S1130C308093B8619093B9610895FF920F931F93C5
S1130C40CF93DF93EC01F62E0091C0611091C16146
S1130C508091196290911A6202960E94E103CF3F3B
S1130C608FEFD807A9F1C00FD11FE0911962F0915D
S1130C701A62C283D3836091196270911A62C01799
S1130C80D107C8F08091E1619091E2616E5F7F4F7E
S1130C900E94B0038091B8619091B961C817D907D7
S1130CA020F4C093B861D093B961DF91CF911F91C3
S1130CB00F91FF9008958091DF619091E0616E5FE4
S1130CC07F4FDF91CF911F910F91FF900C94B00350
S1130CD0FF2049F26091196270911A626E5F7F4F32
S1130CE083EC91E6DF91CF911F910F91FF900C94CB
S1130CF08F030F931F93CF931092BC612091200810
S1130D003091210880911B6290911C62A0911D6218
S1130D10B0911E62820F931FA11DB11D0091B1619C
S1130D201091B2612091B3613091B4610817190731
S1130D302A073B07A0F4E0911962F0911A6245A1D9
S1130D4056A167A170A5401B510B620B730B480F92
S1130D50591F6A1F7B1F45A356A367A370A78093DF
S1130D60B1619093B261A093B361B093B461E09127
S1130D701962F0911A620788F08DE02D80819181CB
S1130D80A281B381853A954AA54AB54A09F44CC073
S1130D906091196270911A628091196290911A623D
S1130DA0675E7F4F0E94660AC091BF618C2F90E0FE
S1130DB09C01220F331F220F331F220F331FF9010F
S1130DC0E80FF91FEB50FE49408141110CC0CC23C0
S1130DD011F0C150EBCF6CE87BE080E190E20E941F
S1130DE09E0AC150E3CF820F931FDC01AB50BE4972
S1130DF01196ED91FC9112970280F381E02D1196EA
S1130E00ED93FC93129788509E49E817F90759F11E
S1130E10868197818093196290931A62C093BF610F
S1130E20CF911F910F91089584819581A681B781F7
S1130E30853A954AA54AB54A09F0AACF8085918595
S1130E40A285B385853A954AA54AB54A09F0A0CF4B
S1130E5084859585A685B785853A954AA54AB54A78
S1130E6009F096CFA1CF0280F381E02D1196ED9386
S1130E70FC931297CDCF5F926F927F928F929F9245
S1130E80AF92BF92CF92DF92EF92FF920F931F9394
S1130E90CF93DF934C01EB015A013901502ECA0163
S1130EA00E94AE028C01892B09F4DCC08EE290E032
S1130EB00E94AE026C01009709F4D1C0DC01579680
S1130EC00D931C935897209709F4CEC0C801A5012F
S1130ED065EA70E00E944310F1E0AF1AB108D60150
S1130EE057968D919C915897A80EB91EF601799644
S1130EF09E01285F3F4FDE01899181938C91882365
S1130F0019F0C217D307B9F7F60110A2052D043062
S1130F1008F09FC0D60156960C93569793960C935F
S1130F20939794961C92E6012296CE010E948B031D
S1130F30C6010C960E948B03F601C086D18684E01C
S1130F4090E0801B910984879587C28AD38A15A271
S1130F5016A217A210A611A612A613A614A615A6C9
S1130F60A301B401C5010E940704D6018D939C938B
S1130F70E114F10419F0F701C082D1820FB6F8949C
S1130F800F928091C2618F5F8093C26180911962D8
S1130F9090911A62892B99F08091BE61811118C0D9
S1130FA0E0911962F0911A62D60156968C91968955
S1130FB0891788F0C0921962D0921A620CC0C0924C
S1130FC01962D0921A628091C261813009F456C0CC
S1130FD0D60156968C919091BA619F5F9093BA61B5
S1130FE0F60191A39091BF61981780F190E09C0164
S1130FF0220F331F220F331F220F331F820F931F21
S1131000BE018B509E490E948F030F900FBE8091AA
S1131010BE61882351F0E0911962F0911A629689B9
S1131020D60156968C919817B0F081E0DF91CF915C
S11310301F910F91FF90EF90DF90CF90BF90AF90F2
S11310409F908F907F906F905F9008958093BF6181
S1131050CDCF03E05FCF0E94B20481E0E7CFC801A7
S11310600E944D038FEFE2CF60E673E080E190E2EF
S11310700E949E0AF6018789908D29CF85EF91E61B
S11310800E947D038EEF91E60E947D0387E092E645
S11310900E947D0380E192E60E947D038CEE91E63E
S11310A00E947D0383EE91E60E947D0386ED91E626
S11310B00E947D038DEC91E60E947D0383EC91E612
S11310C00E947D038CEE91E68093E1619093E2614E
S11310D083EE91E68093DF619093E061F601868967
S11310E07ACFEF92FF920F9386EBE82E81E6F82EEB
S11310F000E020E030E040E051E064E270E28EED98
S113110095E00E943B07813079F08F3F21F00F91E9
S1131110FF90EF90089567E078E080E190E20F910E
S1131120FF90EF900C949E0AF8942FEF3FEF2093DA
S1131130B8613093B9618093BE611092C06110921E
S1131140C1610E947E050F91FF90EF900C9475048D
S11311508091B5618F5F8093B5610895DF92EF92BE
S1131160FF920F931F93CF93DF938091B561811109
S1131170B9C0E090C061F090C1618FEFE81AF80A3D
S1131180E092C061F092C161E114F10449F5E0918B
S1131190E161F091E26180818111ABC08091E161F4
S11311A09091E2612091DF613091E0612093E161EF
S11311B03093E2618093DF619093E0618091BB6141
S11311C08F5F8093BB61E091E161F091E261808186
S11311D0811196C08FEF9FEF8093B8619093B961AE
S11311E08091B8619091B961D12CE816F90608F4A0
S11311F053C0E091E161F091E2618081882309F4B8
S113120045C0E091E161F091E2610580F681E02D55
S1131210C681D7818A819B81E816F90608F473C0D8
S11312208E010E5F1F4FC8010E94E1038C899D89C6
S1131230892B21F0CE010C960E94E1038E899091B6
S1131240BF61981710F48093BF6190E09C01220F56
S1131250331F220F331F220F331F820F931FB80136
S11312608B509E490E948F03E0911962F0911A629B
S11312709E898689981708F4BCCFDD24D394E09125
S1131280E161F091E26180818111BBCF8FEF9FEF2B
S11312908093B8619093B961E0911962F0911A62F8
S11312A0868990E0FC01EE0FFF1FEE0FFF1FEE0F8B
S11312B0FF1F8E0F9F1FFC01EB50FE49808182307F
S11312C010F0DD24D3948091BC61882311F0DD24D7
S11312D0D3948D2DDF91CF911F910F91FF90EF90BB
S11312E0DF9008958091BD618F5F8093BD61D12CA3
S11312F0EACF66E67AE080E190E20E949E0A4ECF51
S11313000E940C066DCF8093B8619093B961C4CFED
S1131310FF920F931F93CF93DF938091B56188233E
S113132009F477C00FB6F8940F928091B56181509B
S11313308093B5618091B561811162C08091C26171
S1131340882309F45DC0C0E0D0E0FF24F3948091C9
S1131350D6618823A1F1E091DB61F091DC61C68163
S1131360D781CE010C960E94E1038E010E5F1F4FC0
S1131370C8010E94E1038E899091BF61981710F40F
S11313808093BF6190E09C01220F331F220F331F13
S1131390220F331F820F931FB8018B509E490E9466
S11313A08F03E0911962F0911A629E8986899817D9
S11313B070F2F092BC618091D6618111CCCFCD2BBB
S11313C069F0E091E161F091E261808181112CC0CA
S11313D08FEF9FEF8093B8619093B961C091BD6125
S11313E0CC2351F0D1E00E94AE088111D093BC61AE
S11313F0C150C9F71092BD618091BC61811110C0C8
S113140080E00F900FBEDF91CF911F910F91FF905D
S113141008956CE678E080E190E20E949E0A82CF13
S11314200E94B20481E0EDCF0E940C06D7CFCF9387
S1131430DF93EC01892B29F40E94B204DF91CF9150
S113144008958091B561811110C08091B5618F5F5D
S11314508093B56160E0CE010E941D060E94880958
S1131460882351F3DF91CF91089560E275E080E124
S113147090E20E949E0AE9CF8091B561811102C079
S11314800C94790681E08093BC6108950895F894E2
S113149083E590E20E94AA0180E88093010680938C
S11314A005062FEF33EC99E0215030409040E1F7EE
S11314B000C00000809306062FEF33EC99E0215022
S11314C030409040E1F700C00000E9CFCF93DF93B4
S11314D0CDB7DEB7C058D109CDBFDEBFF89480E8E0
S11314E0809301067F936F9325E730E23F932F9318
S11314F01F928F938E010F5F1F4F1F930F930E94B4
S1131500A510C8010E94AA01CDBFDEBF80E8809368
S113151005063FEF93ED20E3315090402040E1F782
S113152000C00000809306063FEF93ED20E33150A6
S113153090402040E1F700C00000E9CFCF93DF9353
S1131540CDB7DEB7C058D109CDBFDEBFF89420E8CF
S1131550209301067F936F939F938F9381E990E289
S11315609F938F931F922F938E010F5F1F4F1F9393
S11315700F930E94A510C8010E94AA01CDBFDEBF2F
S113158080E8809305063FEF93EC29E031509040CA
S11315902040E1F700C00000809306063FEF93ED82
S11315A020E3315090402040E1F700C00000E9CF33
S11315B00E94C8010E9494020E948A0B81E00E944A
S11315C08E0B87E08093A20078942FEF89EF90E050
S11315D0215080409040E1F700C000000E94760B4B
S11315E00E94710880E090E008950E947803EC0165
S11315F0DF93CF9381EB90E29F938F930E9491109E
S1131600CE018058910966E070E00E94380FEB012A
S1131610DF936F9385ED90E29F938F930E949110D7
S1131620CE010E94AE025C01CE010E94AE026C01AA
S1131630CE010E94AE02CE010E94AE027C01CE0118
S11316400E94AE02CE010E94AE028C010E94780379
S11316509F938F9385EE90E29F938F930E949110B6
S1131660C5010E944D03C6010E944D030E947803E8
S11316709F938F9389E091E29F938F930E9491109F
S1131680CC0FDD1FCE010E94AE020E9478039F930F
S11316908F938DE291E29F938F930E949110C701E3
S11316A00E944D03C8010E944D030E9478039F933A
S11316B08F9381E591E29F938F930E949110CE01C5
S11316C00E94AE020E9478039F938F9385E791E274
S11316D09F938F930E9491108DB79EB74C968DBFA8
S11316E09EBF84E690E00E94170AFBCFEF92FF9220
S11316F00F93E12CF12C01E020E030E040E054E0D5
S113170069E971E285EF9AE00E943B070F91FF902F
S1131710EF90089580E2809341060895811104C0FA
S113172080E280934606089580E2809345060895FA
S11317302F923F924F925F926F927F928F929F92DD
S1131740AF92BF92CF92DF92EF92FF920F931F93CB
S1131750CF93DF93CDB7DEB76097CDBFDEBF7C01FB
S11317601B016A01FC0116821782838181FF44C335
S11317709E012F5F3F4F3901F7019381F10193FDE2
S1131780859193FF81911F01882309F431C3853228
S113179039F493FD859193FF81911F01853239F4CA
S11317A0B70190E00E94551056016501E5CF10E0A5
S11317B0512C912CFFE1F915D8F08B3279F038F4E3
S11317C0803279F08332A1F4F92DF0612EC08D328C
S11317D061F0803369F4292D21602DC0392D3260E8
S11317E0932E892D8460982E2AC0E92DE86015C0B7
S11317F097FC2DC020ED280F2A3088F496FE06C0F1
S11318003AE0139F200D1124122F19C08AE0589E2C
S1131810200D1124522EE92DE0629E2E10C08E322E
S113182031F496FCE5C2F92DF0649F2E08C08C3685
S113183021F4292D2068922E02C0883641F4F1014A
S113184093FD859193FF81911F018111B3CF9BEB90
S1131850980F933020F4992D9061805E07C09BE926
S1131860980F933008F066C1992D9F7E96FF16E07D
S11318709F73992E853619F49064992E08C0863684
S113188021F4392F3068932E02C01111115097FEA4
S113189007C01C3350F444244394410E27E00BC08A
S11318A0183038F027E017E005C027E09CE3492E04
S11318B002C0212F412C560184E0A80EB11CF60170
S11318C06081718182819381042DA3010E94600F44
S11318D06C01F981FC87F0FF02C0F3FF06C091FCA4
S11318E006C092FE06C000E205C00DE203C00BE292
S11318F001C000E08C858C7019F001115AC29BC2A2
S113190097FE10C04C0CFC85F4FF04C08A8181331F
S113191009F44A94141474F528E0241578F588E041
S1131920482E2CC096FC2AC0812F90E08C159D0572
S11319309CF03CEFC3163FEFD30674F0892D80680A
S1131940982E0AC0E2E0F0E0EC0FFD1FE10FF11D5C
S11319508081803319F411501111F4CF97FE0EC019
S113196044244394410E812F90E0C816D9062CF4E8
S11319701C1904C04424439401C010E097FE06C01F
S11319801C141D0434F4C601019605C085E090E0E2
S113199002C081E090E001110196112331F0212F62
S11319A030E02F5F3F4F820F931F252D30E08217C9
S11319B0930714F4581A01C0512C892D897049F4E5
S11319C0552039F0B70180E290E00E9455105A94F6
S11319D0F7CF002329F0B701802F90E00E94551023
S11319E093FC09C0552039F0B70180E390E00E94D0
S11319F055105A94F7CF97FE4CC04601D7FE02C04B
S1131A00812C912CC60188199909F301E80FF91F5B
S1131A10ED87FE879601241931092F87388B012F12
S1131A2010E01195019511093FEF8316930629F4EF
S1131A30B7018EE290E00E945510C814D9044CF00E
S1131A408F8598898815990524F4ED85FE85818113
S1131A5001C080E3F1E08F1A91082D853E852F5F48
S1131A603F4F2D873E87801691062CF0B70190E0FA
S1131A700E945510D9CFC814D90441F49A819633E1
S1131A8020F4953319F43C8534FF81E3B70190E0E9
S1131A904EC08A81813319F09C859F7E9C87B70153
S1131AA090E00E945510111105C094FC18C085E601
S1131AB090E017C0B7018EE290E00E9455101E5FBF
S1131AC082E001E0080FF301E80FF11D8081B70106
S1131AD090E00E945510802F0113F3CFE6CF85E4E8
S1131AE090E0B7010E945510D7FC06C0C114D10480
S1131AF041F4EC85E4FF05C0D194C194D1088DE292
S1131B0001C08BE2B70190E00E94551080E32AE007
S1131B10C216D1042CF08F5FFAE0CF1AD108F7CFA8
S1131B20B70190E00E945510B701C601C0960E940B
S1131B30551054C1833631F0833779F0833509F079
S1131B4056C020C0560132E0A30EB11CF6018081BC
S1131B50898301E010E0630112C05601F2E0AF0E88
S1131B60B11CF601C080D18096FE03C0612F70E0E5
S1131B7002C06FEF7FEFC6010E944A108C01F92D5D
S1131B80FF7714C0560122E0A20EB11CF601C080FA
S1131B90D18096FE03C0612F70E002C06FEF7FEF2B
S1131BA0C6010E9438108C01F92DF0689F2EF3FDB8
S1131BB01AC0852D90E008171907A8F4B70180E230
S1131BC090E00E9455105A94F4CFF60197FC859149
S1131BD097FE81916F01B70190E00E94551051105A
S1131BE05A94015011090115110579F7F7C084368B
S1131BF011F0893661F5560197FE09C024E0A20E62
S1131C00B11CF60160817181828193810AC0F2E086
S1131C10AF0EB11CF60160817181072E000C880B98
S1131C20990BF92DFF769F2E97FF09C0909580950B
S1131C30709561957F4F8F4F9F4FF0689F2E2AE0DC
S1131C4030E0A3010E94DC10C82EC6183FC0092D45
S1131C50853721F40F7E2AE030E01DC0097F8F36DE
S1131C6091F018F4883559F0C3C0803719F08837DB
S1131C7011F0BEC0006104FF09C0046007C094FEF7
S1131C8008C0066006C028E030E005C020E130E06E
S1131C9002C020E132E0560107FF09C084E0A80E2B
S1131CA0B11CF601608171818281938108C0F2E0E8
S1131CB0AF0EB11CF6016081718180E090E0A30158
S1131CC00E94DC10C82EC6180F77902E96FE0BC00B
S1131CD0092D0E7FC11650F494FE0AC092FC08C070
S1131CE0092D0E7E05C0DC2C092D03C0DC2C01C09F
S1131CF0D12E04FF0DC0FE01EC0DF11D8081803357
S1131D0011F4097E09C002FF06C0D394D39404C021
S1131D10802F867809F0D39403FD11C000FF06C01C
S1131D201C2DD51480F4150D1D190DC0D51458F4AF
S1131D30B70180E290E00E945510D394F7CFD514F8
S1131D4010F45D1801C0512C04FF10C0B70180E3EA
S1131D5090E00E94551002FF17C001FD03C088E700
S1131D6090E002C088E590E0B7010CC0802F86782F
S1131D7059F001FF02C08BE201C080E207FD8DE251
S1131D80B70190E00E945510C11638F4B70180E302
S1131D9090E00E9455101150F7CFCA94F301EC0D56
S1131DA0F11D8081B70190E00E945510C110F5CF5C
S1131DB015C0F4E0F51560F584E0581A93FE1FC0D1
S1131DC0011127C02C8523FF2AC00CE012E0392D15
S1131DD03071932EF8018491811124C0552009F4A7
S1131DE0E4CCB70180E290E00E9455105A94F6CFFB
S1131DF0F7018681978126C08FEF9FEF23C0B7013B
S1131E0080E290E00E9455105A945110F8CFD8CF38
S1131E10512CB701802F90E00E945510D3CF00E1E0
S1131E2012E0D5CF91108052B70190E00E94551076
S1131E300F5F1F4FCFCF23E0251510F483E0BDCFF4
S1131E40512CC0CF6096CDBFDEBFDF91CF911F91E3
S1131E500F91FF90EF90DF90CF90BF90AF909F9045
S1131E608F907F906F905F904F903F902F90089548
S1131E7097FB072E16F4009407D077FD09D00E9433
S1131E804C0F07FC05D03EF4909581959F4F089523
S1131E90709561957F4F0895AA1BBB1B51E107C044
S1131EA0AA1FBB1FA617B70710F0A61BB70B881FE6
S1131EB0991F5A95A9F780959095BC01CD01089575
S1131EC0283008F027E03327DA01990F311D87FD08
S1131ED0916000966105710539F432602E5F3D937F
S1131EE030E32A95E1F708959F3F30F0803871057B
S1131EF0610509F03C5F3C5F3D93913008F08068D8
S1131F00911DDF93CF931F930F93FF92EF92192F9D
S1131F10987F9695E92F96959695E90FFF27E259B4
S1131F20FD4F99273327EE24FF24A701E7010590ED
S1131F300894079428F4360FE71EF81E491F511D14
S1131F40660F771F881F991F0694A1F705900794C1
S1131F5028F4E70EF81E491F561FC11D770F881F6E
S1131F60991F661F0694A1F70590079428F4F80EAC
S1131F70491F561FC71FD11D880F991F661F771F42
S1131F800694A1F70590079420F4490F561FC71F24
S1131F90D81F990F661F771F881F0694A9F784918D
S1131FA01095177041F0D695C79557954795F794B6
S1131FB0E7941A95C1F7E4E1F2E06894159015915D
S1131FC035916591959105907FE27395E118F10A39
S1131FD0430B560BC90BD009C0F7E10CF11E431F8C
S1131FE0561FC91FD01D7EF4703311F48A95E6CFB5
S1131FF0E894015030F0080F0AF40027021708F49F
S1132000202F2395022F7A3328F079E37D932A95A4
S1132010E9F710C07D932A9589F6069497956795FC
S1132020379517951794E118F10A430B560BC90B12
S1132030D00998F023957E9173957A3308F070E374
S11320407C932013B8F77E9170617D9330F0839573
S113205071E37D9370E32A95E1F71124EF90FF90EB
S11320600F911F91CF91DF91992787FD9095089546
S1132070FC010590615070400110D8F7809590954F
S11320808E0F9F1F0895DC0101C06D934150504095
S1132090E0F70895FC016150704001900110D8F7F9
S11320A0809590958E0F9F1F08950F931F93CF9344
S11320B0DF93FB01238121FD03C08FEF9FEF2CC031
S11320C022FF16C046815781248135814217530768
S11320D044F4A081B1819D012F5F3F4F2083318360
S11320E08C93268137812F5F3F4F2683378314C01B
S11320F08B01EC01FB010084F185E02D1995892BFE
S1132100E1F6D80116968D919C9117970196169633
S11321108D939C931797CE01DF91CF911F910F91CF
S11321200895CF93DF93CDB7DEB7AE014A5F5F4F1B
S1132130FA0161917191AF018091216290912262C3
S11321400E94980BDF91CF9108950F931F93CF9323
S1132150DF93CDB7DEB72E97CDBFDEBF0E891F89C3
S1132160888D998D26E02C8309831A8397FF02C0FA
S113217080E090E801978D839E83AE01445E5F4FBB
S11321806A8D7B8DCE0101960E94980B4D815E81F4
S113219057FD0AC02F813885421753070CF49A0162
S11321A0F801E20FF31F10822E96CDBFDEBFDF9140
S11321B0CF911F910F910895FA01AA27283051F168
S11321C0203181F1E8946F936E7F6E5F7F4F8F4F64
S11321D09F4FAF4FB1E03ED0B4E03CD0670F781FC3
S11321E0891F9A1FA11D680F791F8A1F911DA11DA8
S11321F06A0F711D811D911DA11D20D009F46894E1
S11322003F912AE0269F11243019305D3193DEF688
S1132210CF010895462F4770405D4193B3E00FD03E
S1132220C9F7F6CF462F4F70405D4A3318F0495D29
S113223031FD4052419302D0A9F7EACFB4E0A6950C
S11322409795879577956795BA95C9F7009761052E
S1132250710508959B01AC010A2E06945795479584
S113226037952795BA95C9F7620F731F841F951F79
S10B2270A01D0895F894FFCFAE
S1132278000000030000000080028C020000FF3F01
S11322882E2E2F4672656552544F532F7461736B0B
S1132298732E630049444C450009256309257509D3
S11322A825750925750D0A0009256C750909256C1C
S11322B87525250D0A0009256C7509093C31252564
S11322C80D0A004552524F523A206D656D6F72796E
S11322D820616C6C6F636174696F6E206661696CF0
S11322E865640D0A00535441434B206F766572664A
S11322F86C6F7720696E207461736B2025730D0AE7
S11323080041737365727420696E2066696C652078
S113231825732C206C696E65206E722025640D0A65
S11323280053746570313A20556E616C6C6F63614B
S11323387465642068656170206D656D6F72793AA3
S113234825750D0A00426C6F636B2073697A653AD0
S113235825750D0A0053746570323A20556E616C08
S11323686C6F63617465642068656170206D656D68
S11323786F72793A25750D0A0053746570333A20E3
S1132388556E616C6C6F6361746564206865617017
S1132398206D656D6F72793A25750D0A0053746561
S11323A870343A20556E616C6C6F63617465642097
S11323B868656170206D656D6F72793A25750D0ACF
S11323C80053746570353A20556E616C6C6F6361A7
S11323D87465642068656170206D656D6F72793A03
S11323E825750D0A0053746570363A20556E616C74
S11323F86C6F63617465642068656170206D656DD8
S11124086F72793A25750D0A006D656D00003E
S9030000FC
