:020000020000FC
:1000000000E2009340060093440600E800930006D7
:1000100007E0009320060FEF0093040600932406E8
:1000200008E10093330600933406009335060093ED
:1000300036060093370620E030E040E0B5E051E0BE
:1000400060E07EEF072F81E090E0643011F460E023
:10005000072F0E9452000E944B006395813021F0CF
:10006000823041F00C9425000894001F0E9440004B
:100070000C942500089407950E9440000C942500DC
:100080002395F1F73395E1F743954B17C9F720E036
:1000900030E040E008950093240603FBA7F9A09305
:1000A000040608959091280697609F3E49F09F3B73
:1000B00059F0973F69F09F3D71F09F3779F00895AF
:1000C0007EEF81E00C94520077EF82E00C945200B6
:1000D000B51B0C945200B50F0C94520081E0B5E0B2
:0400E0000C9452002A
:00000001FF
