:100000000C948F010C94B0010C94B0010C94B001CD
:100010000C94B0010C94B0010C94B0010C94B0019C
:100020000C94B0010C94B0010C94B0010C94B0018C
:100030000C94B0010C94B0010C9430050C94B001F8
:100040000C94B0010C94B0010C94B0010C94B0016C
:100050000C94A4050C94B0010C94B0010C94B00164
:100060000C94B0010C94B0010C94B0010C94B0014C
:100070000C94B0010C94B0010C94B0010C94B0013C
:100080000C94B0010C94B0010C94B0010C94B0012C
:100090000C94B0010C94B0010C94B0010C94B0011C
:1000A0000C94B0010C94B0010C94B0010C94B0010C
:1000B0000C94B0010C94B0010C9470020C94B0013B
:1000C0000C94B0010C94B0010C94B0010C94B001EC
:1000D0000C94B0010C94B0010C94B0010C94B001DC
:1000E0000C94B0010C94B0010C94B0010C94B001CC
:1000F0000C94B0010C94B0010C94B0010C94B001BC
:100100000C94B0010C94B0010C94B0010C94B001AB
:100110000C94B0010C94B0010C94B0010C94B0019B
:100120000C94B0010C94B0010C94B0010C94B0018B
:100130000C94B0010C94B0010C94B0010C94B0017B
:100140000C94B0010C94B0010C94B0010C94B0016B
:100150000C94B0010C94B0010C94B0010C94B0015B
:100160000C94B0010C94B0010C94B0010C94B0014B
:100170000C94B0010C94B0010C94B0010C94B0013B
:100180000C94B0010C94B0010C94B0010C94B0012B
:100190000C94B0010C94B0010C94B0010C94B0011B
:1001A0000C94B0010C94B0010C94B0010C94B0010B
:1001B0000C94B0010C94B0010C94B0010C94B001FB
:1001C0000C94B0010C94B0010C94B0010C94B001EB
:1001D0000C94B0010C94B0010C94B0010C94B001DB
:1001E0000C94B0010C94B0010C94B0010C94B001CB
:1001F0000C94B0010C94B0010C94B0010C94AE05B9
:100200000C94B1020C94BD020C94BC0D0C94010E24
:100210006E616E00696E660000407A10F35A00A0AD
:10022000724E18090010A5D4E80000E876481700BF
:1002300000E40B54020000CA9A3B000000E1F505FF
:10024000000080969800000040420F000000A08649
:1002500001000000102700000000E803000000007B
:100260006400000000000A0000000000010000001F
:1002700000002C76D888DC674F0823DFC1DFAE5939
:10028000E1B1B796E5E3E453C63AE651997696E8CC
:10029000E6C28426EB898C9B62ED407C6FFCEFBC50
:1002A0009C9F40F2BAA56FA5F490055A2AF75C937B
:1002B0006B6CF9676DC11BFCE0E40D47FEF520E6B1
:1002C000B500D0ED902E0300943577050080841E94
:1002D000080000204E0A000000C80C333333330FEF
:1002E000986E12831141EF8D2114893BE65516CF8C
:1002F000FEE6DB18D1844B381BF77C1D901DA4BB98
:10030000E424203284725E228100C9F124ECA1E54C
:100310003D276364696E6F70737578585B001124B4
:100320001FBECFEFCDBFDFE9DEBF00E00CBF10E2A4
:10033000A0E0B0E2E8E6FFE200E00BBF02C00790F9
:100340000D92AE3FB107D9F723E6AEEFB0E201C0A0
:100350001D92A738B207E1F70E94950D0C94B217D1
:100360000C94000008950895FC012091A30A309197
:10037000A40A4091A50A9081992369F0319680E4FE
:100380009093A00A9091A10A96FFFCCF8093A10AB6
:1003900091919111F5CF2093A30A3093A40A409331
:1003A000A50A0895E0E2F6E087E0818380E4808B8F
:1003B000818B828BE0E0F6E090E89183878B089553
:1003C000982F9770909324068295807880930406E6
:1003D00008958BEC8093520088E0809350008091C8
:1003E000510083FFFCCF82EC8093550088E180931D
:1003F00050008091510084FFFCCF88ED84BF84E0E1
:100400008093400080E008951092FE20E0E8F6E03E
:1004100088E1808B818BE0EAF4E088E7818383E2E6
:10042000858381E0848308959091022120910121A8
:100430008091A40484FD08C080910021891750F0A8
:100440008091FF208217B8F083E08093A30410927C
:10045000FE20089580910021E0910521F091062170
:10046000E80FF11D80818093A704809100218F5FA8
:100470008093002108958091072181608093A604D4
:1004800008958091FF208032E0F48091A70490913C
:10049000FF20E0910321F0910421E90FF11D8083F9
:1004A0008091FF208F5F8093FF20909101218091A8
:1004B000FF20891788F087E08093A3041092FE2024
:1004C000089583E08093A3041092FE20909101216F
:1004D0008091FF20891778F782E08093A304089524
:1004E0001F920F920FB60F9211240BB60F922F93FB
:1004F0003F934F935F936F937F938F939F93AF93AC
:10050000BF93EF93FF938091A404982F9C7039F4CC
:1005100086FD21C087FD22C01092FE2007C0809179
:10052000A40488608093A4041092FE208091FE2091
:10053000FF91EF91BF91AF919F918F917F916F91BB
:100540005F914F913F912F910F900BBE0F900FBE77
:100550000F901F9018950E941402E8CF0E9441024C
:10056000E5CF8093A00A8091A10A86FFFCCF80E4AA
:100570008093A10A80E090E008958091A10A87FF0E
:10058000FCCF8091A00A90E00895E0E8F6E088E0D2
:10059000818384E08283E0EAFAE0138288E1848345
:1005A00083E0858385EE86838CEB8783E1E8F3E641
:1005B00080E090E2828393838083918308950F93F8
:1005C0001F93CF93DF93EC010E94E70880910821ED
:1005D000811121C082E191E280930D2190930E213F
:1005E00010920F21109210218FEF9FE380930B2127
:1005F00090930C211092092110920A2180931421CA
:100600009093152189E091E2809312219093132118
:1006100081E080930821209709F464C0AE014C5F0B
:100620005F4F2396CE3FDF4308F05CC0E0910D2181
:10063000F0910E21ADE0B1E206C08081918100977A
:1006400039F0DF01FC012281338124173507A8F33B
:10065000C1E2E930FC0709F445C0CD91DC91119766
:100660008E010C5F1F4F808191818D939C93C901F6
:10067000841B950B8930910500F1BF01640F751F34
:10068000DB0112968D939C931397428353831296AA
:100690002D913C911397ADE0B1E201C0DF01ED91E6
:1006A000FC9111978281938182179307B8F3EB0134
:1006B000E883F9836D937C939A0180910E20909149
:1006C0000F20821B930B80930E2090930F200E948B
:1006D000C7090115110541F0C801DF91CF911F91A4
:1006E0000F9108950E94C7090E94040D00E010E0D8
:1006F000C801DF91CF911F910F910895CF93DF93A0
:10070000009721F1EC0124970E94E7084A815B8160
:10071000ADE0B1E201C0DF01ED91FC9111972281C2
:10072000338124173507B8F3E883F983CD93DC933D
:1007300080910E2090910F20480F591F40930E205A
:1007400050930F20DF91CF910C94C709DF91CF9187
:100750000895FC010396818392832FEF3FEF23835B
:100760003483858396838783908710820895FC0164
:10077000108611860895CF93DF939C01FB01DC0165
:100780001196CD91DC911297C283D3838C819D8188
:10079000848395838C819D81DC0112966D937C937B
:1007A00013976C837D8320873187F90180818F5F68
:1007B0008083DF91CF910895CF93DF93EB01488140
:1007C00059814F3F2FEF520701F1DC01139601C011
:1007D000DF011296ED91FC91139720813181421730
:1007E0005307B0F7EA83FB83C483D583AC83BD830F
:1007F0001296CD93DC93139788879987FC0120810B
:100800002F5F2083DF91CF910895FC01A781B085F0
:100810001296ED91FC911397E5CFCF93DF93FC01F6
:10082000A085B1852281338184819581E9018C8302
:100830009D8384819581EC012A833B8311962D91C0
:100840003C911297E217F30749F0108611868C91BC
:1008500081508C938C91DF91CF91089511968D9357
:100860009C931297F2CF31E1FC013083319722E261
:1008700020833197A3E3A0833197608331977083FE
:100880003197108231971082319760E860833197F9
:100890001082319762E06083319763E06083319723
:1008A00064E06083319765E06083319766E0608340
:1008B000319767E06083319768E06083319769E042
:1008C0006083319760E1608331973083319732E103
:1008D0003083319733E13083319734E1308331977E
:1008E00035E13083319736E13083319737E130831A
:1008F000319738E13083319739E13083319730E2F5
:100900003083319731E2308331972083319723E26E
:1009100020833197408331975083319726E220839B
:10092000319727E22083319728E22083319729E20B
:100930002083319720E32083319721E32083879719
:100940000895E0E0F8E081E08083868380E09DE721
:1009500086A397A3A0917961B0917A61CD91CDBF23
:10096000DD91DEBFFF91EF91DF91CF91BF91AF910C
:100970009F918F917F916F915F914F913F912F91B7
:100980001F910F91FF90EF90DF90CF90BF90AF90AD
:100990009F908F907F906F905F904F903F902F909F
:1009A0001F900F900FBE0F90089581E008950F9251
:1009B0000FB6F8940F921F9211242F923F924F92EC
:1009C0005F926F927F928F929F92AF92BF92CF92DF
:1009D000DF92EF92FF920F931F932F933F934F93CA
:1009E0005F936F937F938F939F93AF93BF93CF93B7
:1009F000DF93EF93FF93A0917961B0917A610DB687
:100A00000D920EB60D920E94AC0AA0917961B09140
:100A10007A61CD91CDBFDD91DEBFFF91EF91DF9186
:100A2000CF91BF91AF919F918F917F916F915F9186
:100A30004F913F912F911F910F91FF90EF90DF9079
:100A4000CF90BF90AF909F908F907F906F905F906E
:100A50004F903F902F901F900F900FBE0F900895D2
:100A60000F920FB6F8940F921F9211242F923F927B
:100A70004F925F926F927F928F929F92AF92BF92AE
:100A8000CF92DF92EF92FF920F931F932F933F939A
:100A90004F935F936F937F938F939F93AF93BF9386
:100AA000CF93DF93EF93FF93A0917961B0917A6137
:100AB0000DB60D920EB60D922091260830912708A2
:100AC00080917B6390917C63A0917D63B0917E6304
:100AD000820F931FA11DB11D80937B6390937C6354
:100AE000A0937D63B0937E630E94ED080E94AC0AE0
:100AF000A0917961B0917A61CD91CDBFDD91DEBFDA
:100B0000FF91EF91DF91CF91BF91AF919F918F9125
:100B10007F916F915F914F913F912F911F910F9115
:100B2000FF90EF90DF90CF90BF90AF909F908F900D
:100B30007F906F905F904F903F902F901F900F90FD
:100B40000FBE0F90189508951F920F920FB60F9237
:100B500011240F900FBE0F901F90189520C00FB654
:100B6000F8940F92E0913261F0913361C681D781A0
:100B7000CE0102960E940D048091226181508093E3
:100B8000226180912C61815080932C610F900FBE67
:100B90008F89988D0E947E03CE010E947E038091F2
:100BA0002C618111DCCF80915561823010F00E9460
:100BB000D7040E94030DF3CFCF93DF93EC010E9483
:100BC0001613FE0101900020E9F73197EC1BFD0B95
:100BD000E730F10560F4EC0FFD1F9E01295F3F4FE8
:100BE00080E28193E217F307E1F7E7E0F0E0CE015E
:100BF0008E0F9F1FFC011082DF91CF910895E0912D
:100C00004161F09142610580F681E02D0680F78117
:100C1000E02D8281938180931861909319610895EA
:100C2000FF920F931F93CF93DF93EC01F62E009169
:100C30002061109121618091796190917A61029691
:100C40000E940D04CF3F8FEFD807A9F1C00FD11F2D
:100C5000E0917961F0917A61C283D3836091796187
:100C600070917A61C017D107C8F08091416190916D
:100C700042616E5F7F4F0E94DC038091186190910A
:100C80001961C817D90720F4C0931861D09319616E
:100C9000DF91CF911F910F91FF90089580913F6157
:100CA000909140616E5F7F4FDF91CF911F910F91C7
:100CB000FF900C94DC03FF2049F260917961709100
:100CC0007A616E5F7F4F83E291E6DF91CF911F9152
:100CD0000F91FF900C94BB030F931F93CF9310922F
:100CE0001C61209120083091210880917B639091B4
:100CF0007C63A0917D63B0917E63820F931FA11DE1
:100D0000B11D009111611091126120911361309118
:100D10001461081719072A073B07A0F4E0917961CD
:100D2000F0917A6145A156A167A170A5401B510BB6
:100D3000620B730B480F591F6A1F7B1F45A356A3F5
:100D400067A370A78093116190931261A0931361C0
:100D5000B0931461E0917961F0917A610788F08D28
:100D6000E02D80819181A281B381853A954AA54A7F
:100D7000B54A09F44CC06091796170917A618091B3
:100D8000796190917A61675E7F4F0E94230DC091D7
:100D90001F618C2F90E09C01220F331F220F331F05
:100DA000220F331FF901E80FF91FEB5AFE4940816A
:100DB00041110CC0CC2311F0C150EBCF6CE87BE0AB
:100DC00085E290E20E945B0DC150E3CF820F931F3A
:100DD000DC01AB5ABE491196ED91FC91129702804D
:100DE000F381E02D1196ED93FC931297885A9E495A
:100DF000E817F90759F1868197818093796190937B
:100E00007A61C0931F61CF911F910F9108958481E2
:100E10009581A681B781853A954AA54AB54A09F0D8
:100E2000AACF80859185A285B385853A954AA54A42
:100E3000B54A09F0A0CF84859585A685B785853A02
:100E4000954AA54AB54A09F096CFA1CF0280F38111
:100E5000E02D1196ED93FC931297CDCF5F926F9298
:100E60007F928F929F92AF92BF92CF92DF92EF923A
:100E7000FF920F931F93CF93DF934C01EB015A0125
:100E80003901502ECA010E94DF028C01892B09F41E
:100E9000DCC08EE290E00E94DF026C01009709F452
:100EA000D1C0DC0157960D931C935897209709F4F5
:100EB000CEC0C801A50165EA70E00E940613F1E00A
:100EC000AF1AB108D60157968D919C915897A80EEC
:100ED000B91EF60179969E01285F3F4FDE01899188
:100EE00081938C91882319F0C217D307B9F7F601C3
:100EF00010A2052D043008F09FC0D60156960C9321
:100F0000569793960C93939794961C92E60122968B
:100F1000CE010E94B703C6010C960E94B703F601EA
:100F2000C086D18684E090E0801B910984879587F4
:100F3000C28AD38A15A216A217A210A611A612A6BB
:100F400013A614A615A6A301B401C5010E9433047B
:100F5000D6018D939C93E114F10419F0F701C0823E
:100F6000D1820FB6F8940F92809122618F5F8093A7
:100F700022618091796190917A61892B99F08091B9
:100F80001E61811118C0E0917961F0917A61D601FA
:100F900056968C919689891788F0C0927961D09283
:100FA0007A610CC0C0927961D0927A61809122619D
:100FB000813009F456C0D60156968C9190911A61F1
:100FC0009F5F90931A61F60191A390911F6198170A
:100FD00080F190E09C01220F331F220F331F220F5C
:100FE000331F820F931FBE018B5A9E490E94BB0381
:100FF0000F900FBE80911E61882351F0E0917961BE
:10100000F0917A619689D60156968C919817B0F036
:1010100081E0DF91CF911F910F91FF90EF90DF90D2
:10102000CF90BF90AF909F908F907F906F905F9088
:10103000089580931F61CDCF03E05FCF0E94D70456
:1010400081E0E7CFC8010E947E038FEFE2CF60E628
:1010500073E085E290E20E945B0DF6018789908D36
:1010600029CF85E591E60E94A9038EE591E60E94CD
:10107000A90387E691E60E94A90380E791E60E9412
:10108000A9038CE491E60E94A90383E491E60E94FF
:10109000A90386E391E60E94A9038DE291E60E94EE
:1010A000A90383E291E60E94A9038CE491E6809370
:1010B00041619093426183E491E680933F61909314
:1010C0004061F60186897ACFCF93DF93EC01892BBB
:1010D00009F43AC08091796190917A61C817D90773
:1010E00079F10FB6F8940F928A859B852091416122
:1010F0003091426140913F61509140610F900FBE2D
:1011000082179307A9F08417950791F021E683329F
:10111000920751F021E68D32920771F0892B61F030
:1011200081E0DF91CF9108958C899D89892B99F079
:1011300082E0DF91CF91089584E0DF91CF9108950F
:1011400080E0DF91CF9108956CE475E085E290E254
:101150000E945B0DBFCF8DA5813051F383E0E1CFBD
:10116000EF92FF920F9386E1E82E81E6F82E00E0E1
:1011700020E030E040E051E069E370E28EEA95E083
:101180000E942E07813079F08F3F21F00F91FF9060
:10119000EF90089567E078E085E290E20F91FF908C
:1011A000EF900C945B0DF8942FEF3FEF20931861B4
:1011B0003093196180931E61109220611092216119
:1011C0000E94A3050F91FF90EF900C94A1048091D1
:1011D00015618F5F809315610895DF92EF92FF9202
:1011E0000F931F93CF93DF93809115618111B9C045
:1011F000E0902061F09021618FEFE81AF80AE09208
:101200002061F0922161E114F10449F5E09141611E
:10121000F091426180818111ABC0809141619091D8
:10122000426120913F613091406120934161309350
:10123000426180933F619093406180911B618F5F19
:1012400080931B61E0914161F09142618081811145
:1012500096C08FEF9FEF80931861909319618091F2
:10126000186190911961D12CE816F90608F453C061
:10127000E0914161F09142618081882309F445C089
:10128000E0914161F09142610580F681E02DC681D7
:10129000D7818A819B81E816F90608F473C08E0114
:1012A0000E5F1F4FC8010E940D048C899D89892BF8
:1012B00021F0CE010C960E940D048E8990911F6141
:1012C000981710F480931F6190E09C01220F331F48
:1012D000220F331F220F331F820F931FB8018B5A27
:1012E0009E490E94BB03E0917961F0917A619E89E9
:1012F0008689981708F4BCCFDD24D394E09141612E
:10130000F091426180818111BBCF8FEF9FEF80937D
:10131000186190931961E0917961F0917A61868901
:1013200090E0FC01EE0FFF1FEE0FFF1FEE0FFF1FFF
:101330008E0F9F1FFC01EB5AFE498081823010F016
:10134000DD24D39480911C61882311F0DD24D39493
:101350008D2DDF91CF911F910F91FF90EF90DF9036
:10136000089580911D618F5F80931D61D12CEACF1C
:1013700066E67AE085E290E20E945B0D4ECF0E9425
:10138000FF056DCF8093186190931961C4CFFF92D0
:101390000F931F93CF93DF9380911561882309F4F6
:1013A00077C00FB6F8940F928091156181508093A9
:1013B000156180911561811162C08091226188233D
:1013C00009F45DC0C0E0D0E0FF24F3948091366161
:1013D0008823A1F1E0913B61F0913C61C681D78106
:1013E000CE010C960E940D048E010E5F1F4FC801A6
:1013F0000E940D048E8990911F61981710F48093BC
:101400001F6190E09C01220F331F220F331F220F18
:10141000331F820F931FB8018B5A9E490E94BB0352
:10142000E0917961F0917A619E898689981770F2CE
:10143000F0921C61809136618111CCCFCD2B69F087
:10144000E0914161F0914261808181112CC08FEF68
:101450009FEF8093186190931961C0911D61CC2317
:1014600051F0D1E00E94ED088111D0931C61C15070
:10147000C9F710921D6180911C61811110C080E03C
:101480000F900FBEDF91CF911F910F91FF900895A4
:101490006CE678E085E290E20E945B0D82CF0E94CC
:1014A000D70481E0EDCF0E94FF05D7CF0F931F93A4
:1014B000CF93DF938C01EB01892B09F446C0209771
:1014C000E9F180911561811132C0809115618F5FC2
:1014D000809315614091206150912161F801208134
:1014E0003181CE01820F931F4217530788F4821770
:1014F000930788F0F801808391830E94C7098111C6
:1015000002C00E94D704DF91CF911F910F910895DF
:101510008217930718F04817590760F7F80180837E
:10152000918360E0841B950B0E941006E6CF6CEC63
:1015300074E085E290E20E945B0DC7CF6BEC74E033
:1015400085E290E20E945B0DBCCF6AEC74E085E21C
:1015500090E20E945B0DB3CF80911561811102C0B2
:101560000C946C0681E080931C610895FF920F93A8
:101570001F93CF93DF938C01EB01F42E892B09F499
:1015800064C008831983C80149968A839B83D80164
:1015900056968C9156978E8357968D919C9158971D
:1015A0008C879D8791968C9191978C8393968C9143
:1015B00093978F8395968D919D910D90BC91A02DC1
:1015C00088879987AA87BB87253009F443C0809113
:1015D000796190917A610817190709F440C02D8349
:1015E000233021F1FF20D1F0D8015796ED91FC91E5
:1015F00058978081853AA9F5319680E090E0DC012A
:101600000196A11DB11D2191253AD1F38E879F87A7
:10161000DF91CF911F910F91FF9008951E861F8635
:10162000DF91CF911F910F91FF90089580911561E7
:101630008F5F80931561F80184899589892B11F05A
:1016400082E08D830E94C709CDCF0091796110910E
:101650007A6197CFC8010E9464088D83C3CF1D8231
:10166000C1CF80E090E0D2CF8F929F92AF92BF9295
:10167000CF92DF92EF92FF920F931F93CF93DF935E
:101680005C018B01D42FDB011196ED91FC91129737
:101690000280F381E02D1196ED93FC9312977B016C
:1016A000B3E0EB0EF11CEE15FF05E1F1C680D7802B
:1016B000C0E016C086809780B501B0E1CB9F600D79
:1016C000711D11242D2F41E0C4010E94B60ACF5F85
:1016D000C814D904C9F0D8011196ED91FC91129764
:1016E0000280F381E02DD8011196ED93FC931297BF
:1016F000EE16FF06F9F61596ED91FC9116971196E8
:10170000ED93FC931297D6CF8C2FDF91CF911F9141
:101710000F91FF90EF90DF90CF90BF90AF909F9090
:101720008F9008950280F381E02DC0CFEF92FF9259
:101730000F931F93CF93DF938C017A0180911561F2
:101740008F5F8093156180912261681708F463C0F0
:10175000C4E0D0E0C1506C2F70E0CB01880F991F1E
:10176000880F991F880F991F680F791FFB01EB5A8B
:10177000FE498081811144C080E0D80FC111EACFB9
:10178000E0914161F09142618081811146C080E029
:10179000D80FE0913F61F09140618081811150C08C
:1017A00080E0D80F80912D6181115AC080E0D80F60
:1017B00080912361811165C080E0D80FE114F104AC
:1017C000A9F0209120083091210880917B639091AD
:1017D0007C63A0917D63B0917E63820F931FA11DF6
:1017E000B11DF70180839183A283B3830E94C7094F
:1017F0008D2FDF91CF911F910F91FF90EF90089562
:1018000041E0BF01C80120E1D29F800D911D11244C
:101810000E94340BB2CFD0E0E9CF42E0BF01C80153
:10182000E0E1DE9F800D911D11240E94340BD80F42
:10183000E0913F61F09140618081882309F4B0CF4D
:1018400042E0BF01C801F0E1DF9F800D911D11242E
:101850000E94340BD80F80912D61882309F4A6CF04
:1018600044E06DE271E6C80120E1D29F800D911D38
:1018700011240E94340BD80F80912361882309F42E
:101880009BCF43E063E271E6C801E0E1DE9F800D9B
:10189000911D11240E94340B90CF2F923F924F92B2
:1018A0005F926F927F928F929F92AF92BF92CF92F0
:1018B000DF92EF92FF920F931F93CF93DF9300D0AD
:1018C0001F92CDB7DEB78C01FC011082F09022612F
:1018D00080912261F0E18F9FC00111240E94DF02FC
:1018E0005C01009709F479C0AE014F5F5F4F6F2D27
:1018F0000E94960B882E69817A818B819C8124E6D7
:1019000030E040E050E00E94011229833A834B838B
:101910005C83211531054105510509F45BC0882020
:1019200009F458C07501912C8BE5C82E80E2D82EA1
:101930009DE4292E90E2392E26C07F926F925F920D
:101940004F92F70183858F9382858F9381858F9343
:1019500080858F933F922F921F930F930E94DF13E6
:10196000CDBFDEBFF80101900020E9F78F010150E3
:101970001109939490E1E90EF11C891459F1298120
:101980003A814B815C81F701608571858285938501
:101990000E94011229013A01F70162817381C80195
:1019A0000E94DC058C01411451046104710429F684
:1019B000F70183858F9382858F9381858F938085AF
:1019C0008F93DF92CF921F930F930E94DF13CDBFAF
:1019D000DEBFC8CFC5010E947E032496CDBFDEBF07
:1019E000DF91CF911F910F91FF90EF90DF90CF90FB
:1019F000BF90AF909F908F907F906F905F904F902F
:101A00003F902F9008950895F89488E690E20E9400
:101A1000B40180E880930106809305062FEF33EC34
:101A200099E0215030409040E1F700C000008093E1
:101A300006062FEF33EC99E0215030409040E1F75B
:101A400000C00000E9CFCF93DF93CDB7DEB7C05819
:101A5000D109CDBFDEBFF89480E8809301067F9363
:101A60006F932AE830E23F932F931F928F938E015A
:101A70000F5F1F4F1F930F930E94A813C8010E946E
:101A8000B401CDBFDEBF80E8809305063FEF93ED44
:101A900020E3315090402040E1F700C000008093E7
:101AA00006063FEF93ED20E3315090402040E1F7F0
:101AB00000C00000E9CFCF93DF93CDB7DEB7C058A9
:101AC000D109CDBFDEBFF89420E8209301067F93B3
:101AD0006F939F938F9386EA90E29F938F931F92C9
:101AE0002F938E010F5F1F4F1F930F930E94A81318
:101AF000C8010E94B401CDBFDEBF80E88093050617
:101B00003FEF93EC29E0315090402040E1F700C0D6
:101B10000000809306063FEF93ED20E331509040A4
:101B20002040E1F700C00000E9CF0E94E9010E94D7
:101B3000C5020E9404020E94B3010E94D2010E94C9
:101B4000530E0E94B20181E00E94570E87E08093FD
:101B5000A20078942FEF89EF90E0215080409040D0
:101B6000E1F700C000000E94ED0D0E943F0E0E94B0
:101B7000B00880E090E00895CFE018E0D1E06091F7
:101B80001020709111208FE793E60E94560A8091F1
:101B900012200E94E0018091132090911420813046
:101BA000910529F0029759F0C0931220E8CF809157
:101BB0001220883061F0880F80931220E0CF80914E
:101BC0001220813039F0869580931220D8CFD0939F
:101BD0001220D5CF10931220D2CFEF92FF920F9305
:101BE000E12CF12C02E020E030E040E051E066EC36
:101BF00070E28CEB9DE00E942E070F91FF90EF901A
:101C0000089505E110E2C0EDD0E283E0A82EB12CEA
:101C100092E0C92ED12CEE24E394F12C08C0E0927E
:101C20001320F09214208BE791E60E9464131F9317
:101C30000F93DF93CF930E9494138BE791E60E945A
:101C40004D0C63ED70E285E190E20E940D130F9060
:101C50000F900F900F90892B11F363EE70E285E1E6
:101C600090E20E940D13892B29F4C0921320D09288
:101C70001420D9CFA0921320B0921420D4CFEF9289
:101C8000FF920F93E12CF12C01E020E030E040E0E6
:101C900053E064EF70E281E09EE00E942E070F9116
:101CA000FF90EF90089580E280934106089581119E
:101CB00004C080E280934606089580E28093450642
:101CC00008952F923F924F925F926F927F928F92E0
:101CD0009F92AF92BF92CF92DF92EF92FF920F93BB
:101CE0001F93CF93DF93CDB7DEB76097CDBFDEBF35
:101CF0007C011B016A01FC0116821782838181FF2E
:101D000044C39E012F5F3F4F3901F7019381F101D9
:101D100093FD859193FF81911F01882309F431C3BD
:101D2000853239F493FD859193FF81911F018532AE
:101D300039F4B70190E00E94281356016501E5CF00
:101D400010E0512C912CFFE1F915D8F08B3279F08D
:101D500038F4803279F08332A1F4F92DF0612EC08D
:101D60008D3261F0803369F4292D21602DC0392D29
:101D70003260932E892D8460982E2AC0E92DE86068
:101D800015C097FC2DC020ED280F2A3088F496FE50
:101D900006C03AE0139F200D1124122F19C08AE0CB
:101DA000589E200D1124522EE92DE0629E2E10C067
:101DB0008E3231F496FCE5C2F92DF0649F2E08C0F6
:101DC0008C3621F4292D2068922E02C0883641F4E9
:101DD000F10193FD859193FF81911F018111B3CF93
:101DE0009BEB980F933020F4992D9061805E07C093
:101DF0009BE9980F933008F066C1992D9F7E96FF5E
:101E000016E09F73992E853619F49064992E08C0B8
:101E1000863621F4392F3068932E02C011111150EB
:101E200097FE07C01C3350F444244394410E27E02E
:101E30000BC0183038F027E017E005C027E09CE31E
:101E4000492E02C0212F412C560184E0A80EB11C5E
:101E5000F6016081718182819381042DA3010E942A
:101E600023126C01F981FC87F0FF02C0F3FF06C06A
:101E700091FC06C092FE06C000E205C00DE203C060
:101E80000BE201C000E08C858C7019F001115AC280
:101E90009BC297FE10C04C0CFC85F4FF04C08A81E5
:101EA000813309F44A94141474F528E0241578F564
:101EB00088E0482E2CC096FC2AC0812F90E08C151B
:101EC0009D059CF03CEFC3163FEFD30674F0892DBF
:101ED0008068982E0AC0E2E0F0E0EC0FFD1FE10FF1
:101EE000F11D8081803319F411501111F4CF97FE48
:101EF0000EC044244394410E812F90E0C816D906A9
:101F00002CF41C1904C04424439401C010E097FE33
:101F100006C01C141D0434F4C601019605C085E0FA
:101F200090E002C081E090E001110196112331F0B0
:101F3000212F30E02F5F3F4F820F931F252D30E080
:101F40008217930714F4581A01C0512C892D8970F7
:101F500049F4552039F0B70180E290E00E9428133F
:101F60005A94F7CF002329F0B701802F90E00E9408
:101F7000281393FC09C0552039F0B70180E390E0A5
:101F80000E9428135A94F7CF97FE4CC04601D7FE03
:101F900002C0812C912CC60188199909F301E80F20
:101FA000F91FED87FE879601241931092F87388B99
:101FB000012F10E01195019511093FEF831693064B
:101FC00029F4B7018EE290E00E942813C814D904C6
:101FD0004CF08F8598898815990524F4ED85FE8548
:101FE000818101C080E3F1E08F1A91082D853E8543
:101FF0002F5F3F4F2D873E87801691062CF0B7014B
:1020000090E00E942813D9CFC814D90441F49A81D2
:10201000963320F4953319F43C8534FF81E3B701FE
:1020200090E04EC08A81813319F09C859F7E9C8709
:10203000B70190E00E942813111105C094FC18C04C
:1020400085E690E017C0B7018EE290E00E94281369
:102050001E5F82E001E0080FF301E80FF11D8081AF
:10206000B70190E00E942813802F0113F3CFE6CF31
:1020700085E490E0B7010E942813D7FC06C0C11484
:10208000D10441F4EC85E4FF05C0D194C194D1089A
:102090008DE201C08BE2B70190E00E94281380E33B
:1020A0002AE0C216D1042CF08F5FFAE0CF1AD108D3
:1020B000F7CFB70190E00E942813B701C601C09680
:1020C0000E94281354C1833631F0833779F0833569
:1020D00009F056C020C0560132E0A30EB11CF60133
:1020E0008081898301E010E0630112C05601F2E0B3
:1020F000AF0EB11CF601C080D18096FE03C0612FE7
:1021000070E002C06FEF7FEFC6010E941D138C01CB
:10211000F92DFF7714C0560122E0A20EB11CF60182
:10212000C080D18096FE03C0612F70E002C06FEFC7
:102130007FEFC6010E94FB128C01F92DF0689F2EE3
:10214000F3FD1AC0852D90E008171907A8F4B70110
:1021500080E290E00E9428135A94F4CFF60197FC95
:10216000859197FE81916F01B70190E00E9428133D
:1021700051105A94015011090115110579F7F7C052
:10218000843611F0893661F5560197FE09C024E0C6
:10219000A20EB11CF60160817181828193810AC017
:1021A000F2E0AF0EB11CF60160817181072E000CC8
:1021B000880B990BF92DFF769F2E97FF09C09095FC
:1021C0008095709561957F4F8F4F9F4FF0689F2E40
:1021D0002AE030E0A3010E940814C82EC6183FC0B0
:1021E000092D853721F40F7E2AE030E01DC0097FDC
:1021F0008F3691F018F4883559F0C3C0803719F044
:10220000883711F0BEC0006104FF09C0046007C038
:1022100094FE08C0066006C028E030E005C020E15A
:1022200030E002C020E132E0560107FF09C084E03F
:10223000A80EB11CF601608171818281938108C072
:10224000F2E0AF0EB11CF6016081718180E090E098
:10225000A3010E940814C82EC6180F77902E96FE70
:102260000BC0092D0E7FC11650F494FE0AC092FCDB
:1022700008C0092D0E7E05C0DC2C092D03C0DC2C06
:1022800001C0D12E04FF0DC0FE01EC0DF11D8081B7
:10229000803311F4097E09C002FF06C0D394D394A1
:1022A00004C0802F867809F0D39403FD11C000FF8D
:1022B00006C01C2DD51480F4150D1D190DC0D514A4
:1022C00058F4B70180E290E00E942813D394F7CF2E
:1022D000D51410F45D1801C0512C04FF10C0B701D3
:1022E00080E390E00E94281302FF17C001FD03C0A5
:1022F00088E790E002C088E590E0B7010CC0802F2D
:10230000867859F001FF02C08BE201C080E207FD30
:102310008DE2B70190E00E942813C11638F4B7018E
:1023200080E390E00E9428131150F7CFCA94F30184
:10233000EC0DF11D8081B70190E00E942813C110BF
:10234000F5CF15C0F4E0F51560F584E0581A93FE5A
:102350001FC0011127C02C8523FF2AC000E112E015
:10236000392D3071932EF8018491811124C05520AC
:1023700009F4E4CCB70180E290E00E9428135A945B
:10238000F6CFF7018681978126C08FEF9FEF23C09C
:10239000B70180E290E00E9428135A945110F8CFC0
:1023A000D8CF512CB701802F90E00E942813D3CFB3
:1023B00004E112E0D5CF91108052B70190E00E9465
:1023C00028130F5F1F4FCFCF23E0251510F483E0B4
:1023D000BDCF512CC0CF6096CDBFDEBFDF91CF9176
:1023E0001F910F91FF90EF90DF90CF90BF90AF9033
:1023F0009F908F907F906F905F904F903F902F9025
:102400000895A1E21A2EAA1BBB1BFD010DC0AA1F35
:10241000BB1FEE1FFF1FA217B307E407F50720F04D
:10242000A21BB30BE40BF50B661F771F881F991FC8
:102430001A9469F760957095809590959B01AC0111
:10244000BD01CF010895283008F027E03327DA01D5
:10245000990F311D87FD916000966105710539F472
:1024600032602E5F3D9330E32A95E1F708959F3F58
:1024700030F080387105610509F03C5F3C5F3D93A9
:10248000913008F08068911DDF93CF931F930F93D5
:10249000FF92EF92192F987F9695E92F9695969532
:1024A000E90FFF27EE58FD4F99273327EE24FF242D
:1024B000A701E70105900894079428F4360FE71E5A
:1024C000F81E491F511D660F771F881F991F06941C
:1024D000A1F70590079428F4E70EF81E491F561F30
:1024E000C11D770F881F991F661F0694A1F70590DD
:1024F000079428F4F80E491F561FC71FD11D880FD7
:10250000991F661F771F0694A1F70590079420F482
:10251000490F561FC71FD81F990F661F771F881FA7
:102520000694A9F784911095177041F0D695C79538
:1025300057954795F794E7941A95C1F7E8E1F2E0CB
:1025400068941590159135916591959105907FE26C
:102550007395E118F10A430B560BC90BD009C0F76C
:10256000E10CF11E431F561FC91FD01D7EF47033AE
:1025700011F48A95E6CFE894015030F0080F0AF480
:102580000027021708F4202F2395022F7A3328F012
:1025900079E37D932A95E9F710C07D932A9589F612
:1025A000069497956795379517951794E118F10A52
:1025B000430B560BC90BD00998F023957E91739568
:1025C0007A3308F070E37C932013B8F77E91706142
:1025D0007D9330F0839571E37D9370E32A95E1F765
:1025E0001124EF90FF900F911F91CF91DF919927C8
:1025F00087FD90950895FC01059061507040011091
:10260000D8F7809590958E0F9F1F0895DC0101C02B
:102610006D9341505040E0F70895FB01DC018D912E
:10262000019080190110D9F3990B0895FB01DC0189
:1026300001900D920020E1F70895FC016150704077
:1026400001900110D8F7809590958E0F9F1F0895E7
:102650000F931F93CF93DF93FB01238121FD03C0D1
:102660008FEF9FEF2CC022FF16C046815781248137
:1026700035814217530744F4A081B1819D012F5F3A
:102680003F4F208331838C93268137812F5F3F4FCB
:102690002683378314C08B01EC01FB010084F18594
:1026A000E02D1995892BE1F6D80116968D919C9114
:1026B0001797019616968D939C931797CE01DF91ED
:1026C000CF911F910F9108950F931F93CF93DF9395
:1026D000E0918363F0918463238121FF1BC08C010F
:1026E000D0E0C0E0F80181918F0160918363709127
:1026F0008463DB011896ED91FC911997882331F0E2
:102700001995892B79F3DFEFCFEFECCF8AE019959C
:10271000892B19F08FEF9FEF02C08D2F9C2FDF9137
:10272000CF911F910F910895CF93DF93CDB7DEB76F
:10273000AE014A5F5F4FFA0161917191AF018091E3
:102740008163909182630E941F16DF91CF9108955B
:102750000F931F93CF93DF93CDB7DEB72E97CDBFE7
:10276000DEBF0E891F89888D998D26E02C83098311
:102770001A8397FF02C080E090E801978D839E83C3
:10278000AE01445E5F4F6A8D7B8DCE0101960E9443
:10279000610E4D815E8157FD0AC02F813885421739
:1027A00053070CF49A01F801E20FF31F10822E96E2
:1027B000CDBFDEBFDF91CF911F910F9108950F9391
:1027C0001F93CF93DF93CDB7DEB72E97CDBFDEBF7C
:1027D0000E891F8986E08C8309831A838FEF9FE718
:1027E0008D839E83AE01465E5F4F688D798DCE01ED
:1027F00001960E94610EEF81F885E00FF11F1082B3
:102800002E96CDBFDEBFDF91CF911F910F9108951E
:10281000FA01AA27283051F1203181F1E8946F9311
:102820006E7F6E5F7F4F8F4F9F4FAF4FB1E03ED0B7
:10283000B4E03CD0670F781F891F9A1FA11D680F55
:10284000791F8A1F911DA11D6A0F711D811D911D88
:10285000A11D20D009F468943F912AE0269F1124FD
:102860003019305D3193DEF6CF010895462F477061
:10287000405D4193B3E00FD0C9F7F6CF462F4F70BC
:10288000405D4A3318F0495D31FD4052419302D01A
:10289000A9F7EACFB4E0A6959795879577956795C0
:1028A000BA95C9F700976105710508959B01AC01C0
:1028B0000A2E06945795479537952795BA95C9F7E7
:1028C000620F731F841F951FA01D089520FD09C06E
:1028D000FC0123FD05C022FF02C073836283518384
:1028E0004083089544FD17C046FD17C0AB01BC01ED
:1028F000DA01FB01AA0FBB1FEE1FFF1F1094D1F7D7
:102900004A0F5B1F6E1F7F1FCB01BA01660F771F37
:10291000881F991F09C033E001C034E0660F771F9C
:10292000881F991F3150D1F7620F711D811D911DB4
:1029300008950F931F93CF93DF938C01C8010E94DA
:102940005817EC0197FD08C00E944417892BB1F776
:10295000B801CE010E949617CE01DF91CF911F9151
:102960000F9108958F929F92AF92BF92EF92FF9234
:102970000F931F93CF93DF938C01D62F7A01B22E42
:102980000E9458179C0133272B32310531F02D322C
:10299000310561F48B2D8068B82ED15011F480E0A0
:1029A00068C0C8010E94581797FDF9CFCB2DCD7F85
:1029B0002B2D207309F58033F9F4AA24AA94AD0EC7
:1029C00009F443C0C8010E94581797FD3EC09C01FE
:1029D0002F7D33272835310549F4C264D250A9F13F
:1029E000C8010E94581797FF07C02FC0B6FE02C04B
:1029F000C26001C0C261DA2D812C912C540120EDFE
:102A0000280F283080F0C4FF04C0B8010E94961738
:102A100019C02A3040F0C6FFF8CF2F7D3FEE320FAD
:102A2000363098F727504C2FC501B4010E9472141C
:102A30004B015C01C260D15059F0C8010E94581787
:102A400097FFDDCFC1FD04C0AACF812C912C54018A
:102A5000C7FF08C0B094A09490948094811C911CEE
:102A6000A11CB11C2C2FB501A401C7010E94661442
:102A700081E0DF91CF911F910F91FF90EF90BF9078
:102A8000AF909F908F9008955F926F927F928F92F8
:102A90009F92AF92BF92CF92DF92EF92FF920F93ED
:102AA0001F93CF93DF93CDB7DEB7A097CDBFDEBF27
:102AB0005C01962E7A01F9018E010F5F1F4F6801AC
:102AC00080E2D8011D928A95E9F7D50113968C9082
:102AD00080E090E0612C712C30E061E070E083FCDC
:102AE000259183FE21918F01522E211103C080E098
:102AF00090E092C02E3511F4009751F1432F50E031
:102B0000481759073CF42D3559F12D3219F4772027
:102B100009F103C0772009F46AC0452D4695469512
:102B20004695D601A40FB11D452D47708B0102C0FB
:102B3000000F111F4A95E2F7A8015C91452B4C93B9
:102B4000651459F0561410F45394E7CF5A94E5CF16
:102B500031E004C07724739401C0712C0196BFCF7B
:102B6000772019F08E8180628E83311103C0882412
:102B7000839417C0F6019E012F5D3F4F80818095A1
:102B800081932E173F07D1F7F2CFE114F10429F01A
:102B9000D7018C93F70131967F019A94812C99206B
:102BA000F9F0C5010E94581797FD18C0FC01FF27D6
:102BB00023E0F595E7952A95E1F7EC0DFD1D2081C1
:102BC00030E0AC014770552702C0359527954A95EE
:102BD000E2F720FDDACFB5010E949617811087CF6A
:102BE000E114F10411F0D7011C92C80115C0422F65
:102BF000469546954695D601A40FB11D422F4770C4
:102C00008B0102C0000F111F4A95E2F7A8015C91E9
:102C1000452B4C93622EA2CFA096CDBFDEBFDF9195
:102C2000CF911F910F91FF90EF90DF90CF90BF90C9
:102C3000AF909F908F907F906F905F9008955F927C
:102C40006F927F928F929F92AF92BF92CF92DF92BC
:102C5000EF92FF920F931F93CF93DF936C01EB01E1
:102C60005A01FC0116821782512CF601E380FE0105
:102C7000E3FC8591E3FE8191182FEF01882309F48D
:102C8000EEC090E00E944417892B21F0C6010E94FB
:102C90009914EBCF153241F4FE01E3FC1591E3FEEC
:102CA0001191EF01153281F4C6010E94581797FD6A
:102CB000D4C0412F50E09C01332724173507A9F2D7
:102CC000B6010E949617CBC01A3239F4E3FC159175
:102CD000E3FE1191EF0101E001C000E0F12C20EDD5
:102CE000210F2A3080F402606F2D70E080E090E0C8
:102CF00040E20E947214F62EFE01E3FC1591E3FE01
:102D00001191EF01ECCF01FF03C0F11003C0A7C088
:102D1000FF24FA94183619F01C3651F010C0FE0149
:102D2000E3FC1591E3FE1191EF01183641F40860C0
:102D30000460FE01E3FC1591E3FE1191EF01112304
:102D400009F48DC0612F70E082E193E00E944D177D
:102D5000892B09F484C000FD07C0F50180809180B3
:102D6000C50102965C0102C0812C912C1E3651F4E3
:102D7000F6014681578160E070E0202FC4010E9477
:102D8000661473CF1336A9F401FD02C0FF24F39437
:102D9000C6010E94581797FD60C08114910429F064
:102DA000F4018083C40101964C01FA94F110F0CF34
:102DB00050C01B3559F49E01A4016F2DC6010E941D
:102DC0004415EC01892B09F044C03EC0C6010E94A5
:102DD000991497FD42C01F3661F128F4143639F179
:102DE000193651F128C0133771F0153701F123C09E
:102DF0008114910429F0F4016082C40101964C0110
:102E0000FA94FF2071F0C6010E9458173C0197FD0B
:102E100008C00E944417892B59F3B601C3010E94D0
:102E2000961781149104A9F0F401108212C0006277
:102E300003C0006101C00064202FA4016F2DC601F2
:102E40000E94B214811105C0F6018381807329F4B8
:102E500006C000FD0ACF539408CF552019F0852DE8
:102E600090E002C08FEF9FEFDF91CF911F910F9104
:102E7000FF90EF90DF90CF90BF90AF909F908F909A
:102E80007F906F905F90089591110C94AF178032EE
:102E900019F089508550C8F70895FC010590061671
:102EA00021F00020D9F7C00108953197CF0108958E
:102EB000CF93DF93EC012B8120FF33C026FF0AC0A4
:102EC0002F7B2B838E819F8101968E839F838A81A6
:102ED00090E029C022FF0FC0E881F9818081082E8F
:102EE000000C990B009719F420622B831AC03196BD
:102EF000E883F9830EC0EA85FB85199597FF09C021
:102F00002B81019611F080E201C080E1822B8B833E
:102F100008C02E813F812F5F3F4F2E833F8399272B
:102F200002C08FEF9FEFDF91CF910895FB012381C6
:102F300020FF12C026FD10C08F3F3FEF930761F0C6
:102F400082832F7D2064238326813781215031099C
:102F500026833783992708958FEF9FEF0895992748
:082F600088270895F894FFCFC3
:102F68000000000300000000B102BD020000FF3FA6
:102F7800F4010101006C6F6F706C696368745F6CB9
:102F8800696E6B73002E2E2F4672656552544F532F
:102F98002F7461736B732E630049444C45000925F7
:102FA800630925750925750925750D0A0009256C1C
:102FB800750909256C7525250D0A0009256C750903
:102FC800093C3125250D0A004552524F523A206DD1
:102FD800656D6F727920616C6C6F636174696F6E77
:102FE800206661696C65640D0A00535441434B20A7
:102FF8006F766572666C6F7720696E207461736B8B
:103008002025730D0A0041737365727420696E2060
:1030180066696C652025732C206C696E65206E725C
:103028002025640D0A006C6F6F706C69636874000A
:103038002573006C6F6F706C696368745F6C696E80
:103048006B73006C6F6F706C696368745F72656333
:0E305800687473007465726D696E616C0000BF
:00000001FF
