S01800004C696E65626F7454656D706C617465312E73726563D2
S11300000C9491010C94B2010C94B2010C94B201C1
S11300100C94B2010C94B2010C94B2010C94B20190
S11300200C94B2010C94B2010C94B2010C94B20180
S11300300C94B2010C94B2010C9479050C94B201A5
S11300400C94B2010C94B2010C94B2010C94B20160
S11300500C94ED050C94B2010C94B2010C94B20111
S11300600C94B2010C94B2010C94B2010C94B20140
S11300700C94B2010C94B2010C94B2010C94B20130
S11300800C94B2010C94B2010C94B2010C94B20120
S11300900C94B2010C94B2010C94B2010C94B20110
S11300A00C94B2010C94B2010C94B2010C94B20100
S11300B00C94B2010C94B2010C94B9020C94B201E8
S11300C00C94B2010C94B2010C94B2010C94B201E0
S11300D00C94B2010C94B2010C94B2010C94B201D0
S11300E00C94B2010C94B2010C94B2010C94B201C0
S11300F00C94B2010C94B2010C94B2010C94B201B0
S11301000C94B2010C94B2010C94B2010C94B2019F
S11301100C94B2010C94B2010C94B2010C94B2018F
S11301200C94B2010C94B2010C94B2010C94B2017F
S11301300C94B2010C94B2010C94B2010C94B2016F
S11301400C94B2010C94B2010C94B2010C94B2015F
S11301500C94B2010C94B2010C94B2010C94B2014F
S11301600C94B2010C94B2010C94B2010C94B2013F
S11301700C94B2010C94B2010C94B2010C94B2012F
S11301800C94B2010C94B2010C94B2010C94B2011F
S11301900C94B2010C94B2010C94B2010C94B2010F
S11301A00C94B2010C94B2010C94B2010C94B201FF
S11301B00C94B2010C94B2010C94B2010C94B201EF
S11301C00C94B2010C94B2010C94B2010C94B201DF
S11301D00C94B2010C94B2010C94B2010C94B201CF
S11301E00C94B2010C94B2010C94B2010C94B201BF
S11301F00C94B2010C94B2010C94B2010C94AF12A1
S11302000C941D120C94FA020C94D9080C946A12E2
S11302100C9406036E616E00696E660000407A10ED
S1130220F35A00A0724E18090010A5D4E80000E8A3
S11302307648170000E40B54020000CA9A3B000001
S113024000E1F505000080969800000040420F0090
S11302500000A08601000000102700000000E80351
S1130260000000006400000000000A00000000001C
S11302700100000000002C76D888DC674F0823DFDB
S1130280C1DFAE59E1B1B796E5E3E453C63AE651AE
S1130290997696E8E6C28426EB898C9B62ED407CD5
S11302A06FFCEFBC9C9F40F2BAA56FA5F490055A71
S11302B02AF75C936B6CF9676DC11BFCE0E40D4796
S11302C0FEF520E6B500D0ED902E030094357705B9
S11302D00080841E080000204E0A000000C80C3371
S11302E03333330F986E12831141EF8D2114893B00
S11302F0E65516CFFEE6DB18D1844B381BF77C1D80
S1130300901DA4BBE424203284725E228100C9F1D2
S113031024ECA1E53D276364696E6F7073757858AA
S11303205B0011241FBECFEFCDBFDFE9DEBF00E0CD
S11303300CBF11E2A0E0B0E2E8ECF8E300E00BBF90
S113034002C007900D92A832B107D9F723E6A8E2BC
S1130350B1E201C01D92A73BB207E1F70E94F4117C
S11303600C94621C0C9400000895E0E2F6E087E02F
S1130370828388E5838B848B858B868B878B08951A
S113038080912806887F803801F1803421F1803201
S113039071F18031A1F0883021F18091282190E021
S11303A09F938F938BE191E29F938F930E943018D8
S11303B00F900F900F900F9080912821089588E05E
S11303C08093282188E090E0EBCF81E0809328217E
S11303D081E090E0E5CF82E08093282182E090E004
S11303E0DFCF80E18093282180E190E0D9CF84E0C1
S11303F08093282184E090E0D3CFFC012091A30ACC
S11304003091A40A4091A50A9081992369F031960C
S113041080E49093A00A9091A10A96FFFCCF809368
S1130420A10A91919111F5CF2093A30A3093A40AC4
S11304304093A50A0895E0E2F6E087E0818380E432
S1130440808B818B828BE0E0F6E090E89183878B50
S11304500895982F977090932406829580788093BE
S1130460040608958BEC8093520088E0809350003A
S11304708091510083FFFCCF82EC8093550088E18A
S1130480809350008091510084FFFCCF88ED84BF9D
S113049084E08093400080E0089510922921E0E8F0
S11304A0F6E088E1808B818BE0EAF4E088E78183E1
S11304B083E2858381E08483089590912D212091A6
S11304C02C218091A40484FD08C080912B218917DC
S11304D050F080912A218217B8F083E08093A3041E
S11304E010922921089580912B21E0913021F091DF
S11304F03121E80FF11D80818093A70480912B2185
S11305008F5F80932B2108958091322181608093A5
S1130510A604089580912A218032E0F48091A704F2
S113052090912A21E0912E21F0912F21E90FF11DC4
S1130530808380912A218F5F80932A2190912C219E
S113054080912A21891788F087E08093A304109270
S11305502921089583E08093A30410922921909186
S11305602C2180912A21891778F782E08093A304B3
S113057008951F920F920FB60F9211240BB60F928B
S11305802F933F934F935F936F937F938F939F9397
S1130590AF93BF93EF93FF938091A404982F9C7023
S11305A039F486FD21C087FD22C01092292107C09D
S11305B08091A40488608093A404109229218091DE
S11305C02921FF91EF91BF91AF919F918F917F91DD
S11305D06F915F914F913F912F910F900BBE0F90B0
S11305E00FBE0F901F9018950E945D02E8CF0E94E5
S11305F08A02E5CF8093A00A8091A10A86FFFCCFEE
S113060080E48093A10A80E090E008958091A10A9B
S113061087FFFCCF8091A00A90E00895E0E8F6E01F
S113062088E0818384E08283E0EAFAE0138288E14F
S1130630848383E0858385EE86838CEB8783E1EB7B
S1130640F3E680E090E2828393838083918308952C
S11306500F931F93CF93DF93EC010E94120C8091B0
S11306603321811121C08DE391E28093382190934D
S1130670392110923A2110923B218FEF9FE380930E
S11306803621909337211092342110923521809392
S11306903F219093402184E391E280933D21909304
S11306A03E2181E080933321209709F464C0AE0198
S11306B04C5F5F4F2396CE3FDF4308F05CC0E09170
S11306C03821F0913921A8E3B1E206C080819181FB
S11306D0009739F0DF01FC012281338124173507AB
S11306E0A8F3C1E2E433FC0709F445C0CD91DC91E1
S11306F011978E010C5F1F4F808191818D939C9384
S1130700C901841B950B8930910500F1BF01640F69
S1130710751FDB0112968D939C9313974283538329
S113072012962D913C911397A8E3B1E201C0DF0129
S1130730ED91FC9111978281938182179307B8F30D
S1130740EB01E883F9836D937C939A0180910E20E9
S113075090910F20821B930B80930E2090930F2077
S11307600E94F20C0115110541F0C801DF91CF91EF
S11307701F910F9108950E94F20C0E94631100E0F2
S113078010E0C801DF91CF911F910F910895CF938D
S1130790DF93009721F1EC0124970E94120C4A8107
S11307A05B81A8E3B1E201C0DF01ED91FC911197F7
S11307B02281338124173507B8F3E883F983CD9375
S11307C0DC9380910E2090910F20480F591F409385
S11307D00E2050930F20DF91CF910C94F20CDF91F7
S11307E0CF910895FC010396818392832FEF3FEF0D
S11307F02383348385839683878390871082089527
S1130800FC01108611860895CF93DF939C01FB01B0
S1130810DC011196CD91DC911297C283D3838C8134
S11308209D81848395838C819D81DC0112966D93D7
S11308307C9313976C837D8320873187F9018081B2
S11308408F5F8083DF91CF910895CF93DF93EB0186
S1130850488159814F3F2FEF520701F1DC01139674
S113086001C0DF011296ED91FC9113972081318133
S113087042175307B0F7EA83FB83C483D583AC8361
S1130880BD831296CD93DC93139788879987FC01D7
S113089020812F5F2083DF91CF910895FC01A781F0
S11308A0B0851296ED91FC911397E5CFCF93DF932A
S11308B0FC01A085B1852281338184819581E90180
S11308C08C839D8384819581EC012A833B831196DB
S11308D02D913C911297E217F30749F01086118687
S11308E08C9181508C938C91DF91CF9108951196C6
S11308F08D939C931297F2CF31E1FC0130833197B1
S113090022E220833197A3E3A08331976083319758
S113091070833197108231971082319760E8608339
S113092031971082319762E06083319763E060838E
S1130930319764E06083319765E06083319766E0C6
S11309406083319767E06083319768E06083319713
S113095069E06083319760E1608331973083319738
S113096032E13083319733E13083319734E130839E
S1130970319735E13083319736E13083319737E170
S11309803083319738E13083319739E130833197BF
S113099030E23083319731E23083319720833197CD
S11309A023E220833197408331975083319726E2A5
S11309B02083319727E22083319728E220833197DF
S11309C029E22083319720E32083319721E3208398
S11309D087970895E0E0F8E081E08083868380E0F3
S11309E09DE786A397A3A091A461B091A561CD9141
S11309F0CDBFDD91DEBFFF91EF91DF91CF91BF912C
S1130A00AF919F918F917F916F915F914F913F91A2
S1130A102F911F910F91FF90EF90DF90CF90BF9097
S1130A20AF909F908F907F906F905F904F903F908A
S1130A302F901F900F900FBE0F90089581E008959E
S1130A400F920FB6F8940F921F9211242F923F9297
S1130A504F925F926F927F928F929F92AF92BF92CA
S1130A60CF92DF92EF92FF920F931F932F933F93B6
S1130A704F935F936F937F938F939F93AF93BF93A2
S1130A80CF93DF93EF93FF93A091A461B091A561FD
S1130A900DB60D920EB60D920E94D70DA091A461D1
S1130AA0B091A561CD91CDBFDD91DEBFFF91EF91F6
S1130AB0DF91CF91BF91AF919F918F917F916F9172
S1130AC05F914F913F912F911F910F91FF90EF9064
S1130AD0DF90CF90BF90AF909F908F907F906F905A
S1130AE05F904F903F902F901F900F900FBE0F90EC
S1130AF008950F920FB6F8940F921F9211242F921B
S1130B003F924F925F926F927F928F929F92AF9299
S1130B10BF92CF92DF92EF92FF920F931F932F9386
S1130B203F934F935F936F937F938F939F93AF9371
S1130B30BF93CF93DF93EF93FF93A091A461B09100
S1130B40A5610DB60D920EB60D9220912608309136
S1130B5027088091A7639091A863A091A963B0919D
S1130B60AA63820F931FA11DB11D8093A763909365
S1130B70A863A093A963B093AA630E94180C0E946F
S1130B80D70DA091A461B091A561CD91CDBFDD91A8
S1130B90DEBFFF91EF91DF91CF91BF91AF919F9114
S1130BA08F917F916F915F914F913F912F911F9101
S1130BB00F91FF90EF90DF90CF90BF90AF909F90F8
S1130BC08F907F906F905F904F903F902F901F90E9
S1130BD00F900FBE0F90189508951F920F920FB6A5
S1130BE00F9211240F900FBE0F901F9018950F9322
S1130BF01F93CF93DF93EC01042F1A8D4C8D411179
S1130C000DC088819981892B09F443C01F5F80E05E
S1130C101A8FDF91CF911F910F91089550E0011128
S1130C2015C08A819B810E94C9172C8D8A819B8162
S1130C30820F911D8A839B832C813D8182179307A8
S1130C4028F3888199818A839B83E0CF8E819F8159
S1130C500E94C9178C8D90E09195819591092E8100
S1130C603F81280F391F2E833F83488159812417E0
S1130C70350730F42C813D81820F931F8E839F832F
S1130C80023021F6112311F080E0C2CF11E080E0A0
S1130C90BFCF8C819D810E9455101C821D821F5FD5
S1130CA0B7CFFC01CB01448D442391F050E0668121
S1130CB07781640F751F668377832481358162177A
S1130CC0730720F060817181668377830C94C91760
S1130CD00895EF92FF920F931F93CF938C010FB659
S1130CE0F8940F92FC01C68D1C16C4F4FC01818992
S1130CF08823A1F07801F1E1EF0EF11C06C0C15088
S1130D0069F0F8018189882349F0C7010E94010E26
S1130D108823A9F30E94BA0EC15099F78FEFF80106
S1130D20868F0F900FBE0FB6F8940F92C58D1C16C8
S1130D30C4F4F80180858823A1F07801F8E0EF0E6F
S1130D40F11C06C0C15069F0F8018085882349F080
S1130D50C7010E94010E8823A9F30E94BA0EC15054
S1130D6099F78FEFF801858F0F900FBECF911F91E8
S1130D700F91FF90EF9008951F93CF93DF93EC01B1
S1130D80162F892B09F43EC00FB6F8940F924881B0
S1130D9059818B8D6C8D9A01869F200D311D1124F4
S1130DA02C833D831A8E4A835B8390E00197689F6E
S1130DB09001699F300D1124CA01820F931F8E8305
S1130DC09F838FEF8D8F8E8F111113C088858111B2
S1130DD007C00F900FBE81E0DF91CF911F9108955E
S1130DE0CE0108960E94010E882399F30E942005E3
S1130DF0F0CFCE0108960E94F203CE0141960E94E4
S1130E00F203E7CF63E071E087E290E20E94BA1157
S1130E10BBCFFF920F931F93CF93DF93182F062F0F
S1130E20F42E882399F10023D1F0109FC0011124DE
S1130E3081960E942803EC01009751F081968883E3
S1130E4099831B8F0C8F61E0CE010E94BC06F8A22F
S1130E50CE01DF91CF911F910F91FF90089581E210
S1130E6090E00E942803EC01892B91F3C883D98375
S1130E701B8F0C8F61E0CE010E94BC06F8A2CE014C
S1130E80DF91CF911F910F91FF90089566E771E074
S1130E9087E290E20E94BA11C6CFBF92CF92DF924E
S1130EA0EF92FF920F931F93CF93DF93CDB7DEB7EB
S1130EB02597CDBFDEBF8C016B014C835D83B22EC1
S1130EC0892B09F4B2C0C114D10409F4A2C0F2E020
S1130ED0BF1609F47DC0F801838D20E07801F8E0A5
S1130EE0EF0EF11C10C06C817D81C7010E94E10DE1
S1130EF0C8010E9469060E94F20C882309F44AC0C2
S1130F00F801838D21E00FB6F8940F92F801928DC9
S1130F10981708F442C0F2E0BF1609F43EC08C8171
S1130F209D81892B09F460C0222359F10F900FBED3
S1130F300E94120C0FB6F8940F92F801858D8F3F22
S1130F4039F1F801868D8F3F09F10F900FBEBE0174
S1130F506C5F7F4FCE0101960E94630E811148C0E1
S1130F600FB6F8940F92F801928D0F900FBE838DF7
S1130F70981709F4B8CFC8010E9469060E94F20CC0
S1130F80BFCFCE0101960E94580ED0CF168EDDCF72
S1130F90158ED7CF0E942005B3CF4B2DB601C801C3
S1130FA00E94F705F801918991112CC0811127C085
S1130FB00F900FBE81E02596CDBFDEBFDF91CF91AC
S1130FC01F910F91FF90EF90DF90CF90BF90089505
S1130FD0F801838D813009F480CF63EF72E087E2FA
S1130FE090E20E94BA1177CF0F900FBE80E0E3CF5A
S1130FF0C8010E9469060E94F20C80E0DCCF0E94C6
S11310002005D6CFC80141960E94010E882381F2A3
S1131010F6CFF801848D882309F459CF62EF72E08A
S113102087E290E20E94BA1152CF61EF72E087E248
S113103090E20E94BA1147CFAF92BF92CF92DF9253
S1131040FF920F931F93CF93DF93CDB7DEB725970E
S1131050CDBFDEBF8C015B014C835D83892B09F41A
S1131060A1C0A114B10409F491C020E06801F1E128
S1131070CF0ED11C0FB6F8940F92F801F28CF11038
S11310806AC08C819D81892B09F473C0222309F4E1
S113109059C00F900FBE0E94120C0FB6F8940F9215
S11310A0F801858D8F3F09F454C0F801868D8F3F78
S11310B009F44DC00F900FBEBE016C5F7F4FCE018F
S11310C001960E94630E811122C00FB6F8940F920C
S11310D0F801828D0F900FBE811112C06C817D8149
S11310E0C6010E94E10DC8010E9469060E94F20C2B
S11310F0882311F021E0BECF0E94200521E0BACF61
S1131100C8010E9469060E94F20C21E0B3CFC80115
S11311100E9469060E94F20C0FB6F8940F92F8012F
S1131120828D0F900FBE8111E5CF2596CDBFDEBF16
S1131130DF91CF911F910F91FF90DF90CF90BF90DF
S1131140AF900895CE0101960E94580EA2CF168E3C
S1131150B1CF158EAACFB501C8010E945106FA94E9
S1131160F801F28E8085811108C00F900FBE81E0D6
S1131170DCCF0F900FBE80E0D8CFC80108960E9444
S1131180010E882391F30E942005EFCFF801848D8E
S1131190882309F46ACF64E075E087E290E20E9454
S11311A0BA1163CF60E075E087E290E20E94BA1161
S11311B058CF20C00FB6F8940F92E0915D61F09182
S11311C05E61C681D781CE0102960E945604809149
S11311D04D61815080934D6180915761815080931E
S11311E057610F900FBE8F89988D0E94C703CE015F
S11311F00E94C703809157618111DCCF8091806187
S1131200823010F00E9420050E946211F3CFCF9328
S1131210DF93EC010E94E217FE0101900020E9F740
S11312203197EC1BFD0BE730F10560F4EC0FFD1F6B
S11312309E01295F3F4F80E28193E217F307E1F7B4
S1131240E7E0F0E0CE018E0F9F1FFC011082DF91DA
S1131250CF910895E0916C61F0916D610580F68104
S1131260E02D0680F781E02D828193818093436194
S1131270909344610895FF920F931F93CF93DF934C
S1131280EC01F62E00914B6110914C618091A461A8
S11312909091A56102960E945604CF3F8FEFD80724
S11312A0A9F1C00FD11FE091A461F091A561C2839F
S11312B0D3836091A4617091A561C017D107C8F070
S11312C080916C6190916D616E5F7F4F0E942504E7
S11312D08091436190914461C817D90720F4C09369
S11312E04361D0934461DF91CF911F910F91FF909F
S11312F0089580916A6190916B616E5F7F4FDF9179
S1131300CF911F910F91FF900C942504FF2049F277
S11313106091A4617091A5616E5F7F4F8EE491E648
S1131320DF91CF911F910F91FF900C9404040F93C0
S11313301F93CF9310924761209120083091210888
S11313408091A7639091A863A091A963B091AA63C7
S1131350820F931FA11DB11D00913C6110913D614D
S113136020913E6130913F61081719072A073B0716
S1131370A0F4E091A461F091A56145A156A167A1F3
S113138070A5401B510B620B730B480F591F6A1F4A
S11313907B1F45A356A367A370A780933C619093DA
S11313A03D61A0933E61B0933F61E091A461F091EF
S11313B0A5610788F08DE02D80819181A281B381A0
S11313C0853A954AA54AB54A09F44CC06091A4618E
S11313D07091A5618091A4619091A561675E7F4F32
S11313E00E948211C0914A618C2F90E09C01220FCF
S11313F0331F220F331F220F331FF901E80FF91F88
S1131400E058FE49408141110CC0CC2311F0C15079
S1131410EBCF6CE87BE08BE390E20E94BA11C15001
S1131420E3CF820F931FDC01A058BE491196ED91C2
S1131430FC9112970280F381E02D1196ED93FC93B9
S113144012978D579E49E817F90759F186819781BC
S11314508093A4619093A561C0934A61CF911F9139
S11314600F91089584819581A681B781853A954A23
S1131470A54AB54A09F0AACF80859185A285B3858E
S1131480853A954AA54AB54A09F0A0CF8485958541
S1131490A685B785853A954AA54AB54A09F096CFF7
S11314A0A1CF0280F381E02D1196ED93FC93129766
S11314B0CDCF5F926F927F928F929F92AF92BF92A5
S11314C0CF92DF92EF92FF920F931F93CF93DF930C
S11314D04C01EB015A013901502ECA010E94280324
S11314E08C01892B09F4DCC08EE290E00E94280371
S11314F06C01009709F4D1C0DC0157960D931C933D
S11315005897209709F4CEC0C801A50165EA70E098
S11315100E94D217F1E0AF1AB108D60157968D9107
S11315209C915897A80EB91EF60179969E01285FE2
S11315303F4FDE01899181938C91882319F0C21762
S1131540D307B9F7F60110A2052D043008F09FC0A7
S1131550D60156960C93569793960C93939794961C
S11315601C92E6012296CE010E940004C6010C964C
S11315700E940004F601C086D18684E090E0801BBE
S1131580910984879587C28AD38A15A216A217A2C5
S113159010A611A612A613A614A615A6A301B4019B
S11315A0C5010E947C04D6018D939C93E114F1043F
S11315B019F0F701C082D1820FB6F8940F9280918E
S11315C04D618F5F80934D618091A4619091A5617D
S11315D0892B99F080914961811118C0E091A4612F
S11315E0F091A561D60156968C919689891788F059
S11315F0C092A461D092A5610CC0C092A461D092A3
S1131600A56180914D61813009F456C0D60156968A
S11316108C91909145619F5F90934561F60191A3F0
S113162090914A61981780F190E09C01220F331F3A
S1131630220F331F220F331F820F931FBE018058C6
S11316409E490E9404040F900FBE80914961882333
S113165051F0E091A461F091A5619689D601569666
S11316608C919817B0F081E0DF91CF911F910F9189
S1131670FF90EF90DF90CF90BF90AF909F908F90AE
S11316807F906F905F90089580934A61CDCF03E07F
S11316905FCF0E94200581E0E7CFC8010E94C70305
S11316A08FEFE2CF60E673E08BE390E20E94BA1121
S11316B0F6018789908D29CF80E891E60E94F20394
S11316C089E891E60E94F20382E991E60E94F2031E
S11316D08BE991E60E94F20387E791E60E94F20308
S11316E08EE691E60E94F20381E691E60E94F203FF
S11316F088E591E60E94F2038EE491E60E94F203EB
S113170087E791E680936C6190936D618EE691E634
S113171080936A6190936B61F60186897ACFCF9347
S1131720DF93EC01892B09F43AC08091A461909174
S1131730A561C817D90779F10FB6F8940F928A8575
S11317409B8520916C6130916D6140916A615091EB
S11317506B610F900FBE82179307A9F0841795074A
S113176091F021E68E34920751F021E688359207F4
S113177071F0892B61F081E0DF91CF9108958C891C
S11317809D89892B99F082E0DF91CF91089584E0BF
S1131790DF91CF91089580E0DF91CF9108956CE4BB
S11317A075E08BE390E20E94BA11BFCF8DA5813022
S11317B051F383E0E1CFEF92FF920F9381E4E82E9F
S11317C081E6F82E00E020E030E040E051E06FE4F4
S11317D070E289ED98E00E94590A813079F08F3FD8
S11317E021F00F91FF90EF90089567E078E08BE38C
S11317F090E20F91FF90EF900C94BA11F8942FEFB0
S11318003FEF209343613093446180934961109288
S11318104B6110924C610E94EC050F91FF90EF9088
S11318200C94EA04809140618F5F80934061089535
S1131830DF92EF92FF920F931F93CF93DF938091E8
S113184040618111B9C0E0904B61F0904C618FEF21
S1131850E81AF80AE0924B61F0924C61E114F10449
S113186049F5E0916C61F0916D6180818111ABC0AB
S113187080916C6190916D6120916A6130916B618E
S113188020936C6130936D6180936A6190936B6176
S1131890809146618F5F80934661E0916C61F09125
S11318A06D618081811196C08FEF9FEF80934361BA
S11318B0909344618091436190914461D12CE816E6
S11318C0F90608F453C0E0916C61F0916D61808178
S11318D0882309F445C0E0916C61F0916D61058045
S11318E0F681E02DC681D7818A819B81E816F906AD
S11318F008F473C08E010E5F1F4FC8010E94560486
S11319008C899D89892B21F0CE010C960E94560466
S11319108E8990914A61981710F480934A6190E0FF
S11319209C01220F331F220F331F220F331F820FFC
S1131930931FB80180589E490E940404E091A46159
S1131940F091A5619E898689981708F4BCCFDD249F
S1131950D394E0916C61F0916D6180818111BBCF72
S11319608FEF9FEF8093436190934461E091A46172
S1131970F091A561868990E0FC01EE0FFF1FEE0F48
S1131980FF1FEE0FFF1F8E0F9F1FFC01E058FE4943
S11319908081823010F0DD24D394809147618823C4
S11319A011F0DD24D3948D2DDF91CF911F910F91F0
S11319B0FF90EF90DF900895809148618F5F80934E
S11319C04861D12CEACF66E67AE08BE390E20E948C
S11319D0BA114ECF0E942A096DCF80934361909330
S11319E04461C4CFFF920F931F93CF93DF938091F1
S11319F04061882309F477C00FB6F8940F92809160
S1131A00406181508093406180914061811162C046
S1131A1080914D61882309F45DC0C0E0D0E0FF24CB
S1131A20F394809161618823A1F1E0916661F09162
S1131A306761C681D781CE010C960E9456048E013F
S1131A400E5F1F4FC8010E9456048E8990914A610F
S1131A50981710F480934A6190E09C01220F331F81
S1131A60220F331F220F331F820F931FB801805898
S1131A709E490E940404E091A461F091A5619E89AD
S1131A808689981770F2F0924761809161618111A3
S1131A90CCCFCD2B69F0E0916C61F0916D618081C8
S1131AA081112CC08FEF9FEF809343619093446129
S1131AB0C0914861CC2351F0D1E00E94180C8111EF
S1131AC0D0934761C150C9F7109248618091476132
S1131AD0811110C080E00F900FBEDF91CF911F9154
S1131AE00F91FF9008956CE678E08BE390E20E94FA
S1131AF0BA1182CF0E94200581E0EDCF0E942A090D
S1131B00D7CF0F931F93CF93DF938C01EB01892BD6
S1131B1009F446C02097E9F180914061811132C0F7
S1131B20809140618F5F8093406140914B615091FF
S1131B304C61F80120813181CE01820F931F42173D
S1131B40530788F48217930788F0F8018083918300
S1131B500E94F20C811102C00E942005DF91CF91F6
S1131B601F910F9108958217930718F0481759078A
S1131B7060F7F8018083918360E0841B950B0E94D9
S1131B803B09E6CF6CEC74E08BE390E20E94BA115F
S1131B90C7CF6BEC74E08BE390E20E94BA11BCCF28
S1131BA06AEC74E08BE390E20E94BA11B3CF8091A7
S1131BB04061811102C00C94970981E080934761D0
S1131BC008950F931F93CF93DF93EC018B01892B1F
S1131BD089F06091A4617091A561645F7F4FCE012B
S1131BE00E94250461E0C801DF91CF911F910F91FC
S1131BF00C943B0963EA7BE08BE390E20E94BA1108
S1131C00E8CF0F931F93CF93DF93DC011596ED91EB
S1131C10FC911697C681D781209709F442C08E01A2
S1131C20045F1F4FC8010E945604809140618111D6
S1131C3029C00A501109C8010E9456048E89909146
S1131C404A61981728F190E09C01220F331F220F5C
S1131C50331F220F331F820F931FB80180589E49F0
S1131C600E940404E091A461F091A5619E89868993
S1131C70891788F481E080934761DF91CF911F91A8
S1131C800F910895B80181E691E60E940404EACF19
S1131C9080934A61D8CF80E0DF91CF911F910F915B
S1131CA008956EEF7BE08BE390E20E94BA11B7CF08
S1131CB020914661FC01208320914B6130914C615D
S1131CC02183328308950F931F93CF93DF93EC0105
S1131CD08B01892B09F440C00115110509F443C097
S1131CE00FB6F8940F9280914B6190914C61F8017A
S1131CF0208131812F3FFFEF3F0761F149815A81F4
S1131D00609146617881761719F08417950780F4FD
S1131D10841B950B8217930768F0F80110821182D7
S1131D2081E00F900FBEDF91CF911F910F91089525
S1131D3081E0F7CF281B390BF80120833183809190
S1131D404661888380914B6190914C6189839A8329
S1131D5080E0E7CF80E0E5CF69E67CE08BE390E2CA
S1131D600E94BA11B9CF6AE67CE08BE390E20E944C
S1131D70BA11B6CF81E0809347610895FF920F9323
S1131D801F93CF93DF938C01EB01F42E892B09F47D
S1131D9064C008831983C80149968A839B83D80148
S1131DA056968C9156978E8357968D919C91589701
S1131DB08C879D8791968C9191978C8393968C9127
S1131DC093978F8395968D919D910D90BC91A02DA5
S1131DD088879987AA87BB87253009F443C08091F7
S1131DE0A4619091A5610817190709F440C02D83D7
S1131DF0233021F1FF20D1F0D8015796ED91FC91C9
S1131E0058978081853AA9F5319680E090E0DC010D
S1131E100196A11DB11D2191253AD1F38E879F878B
S1131E20DF91CF911F910F91FF9008951E861F8619
S1131E30DF91CF911F910F91FF90089580914061A0
S1131E408F5F80934061F80184899589892B11F013
S1131E5082E08D830E94F20CCDCF0091A461109199
S1131E60A56197CFC8010E948F0B8D83C3CF1D82BC
S1131E70C1CF80E090E0D2CF8F929F92AF92BF9279
S1131E80CF92DF92EF92FF920F931F93CF93DF9342
S1131E905C018B01D42FDB011196ED91FC9112971B
S1131EA00280F381E02D1196ED93FC9312977B0150
S1131EB0B3E0EB0EF11CEE15FF05E1F1C680D7800F
S1131EC0C0E016C086809780B501B0E1CB9F600D5D
S1131ED0711D11242D2F41E0C4010E94BE0ECF5F5D
S1131EE0C814D904C9F0D8011196ED91FC91129748
S1131EF00280F381E02DD8011196ED93FC931297A3
S1131F00EE16FF06F9F61596ED91FC9116971196CB
S1131F10ED93FC931297D6CF8C2FDF91CF911F9125
S1131F200F91FF90EF90DF90CF90BF90AF909F9074
S1131F308F9008950280F381E02DC0CFEF92FF923D
S1131F400F931F93CF93DF938C017A0180914061AB
S1131F508F5F8093406180914D61681708F463C07E
S1131F60C4E0D0E0C1506C2F70E0CB01880F991F02
S1131F70880F991F880F991F680F791FFB01E0587C
S1131F80FE498081811144C080E0D80FC111EACF9D
S1131F90E0916C61F0916D618081811146C080E0B7
S1131FA0D80FE0916A61F0916B618081811150C01A
S1131FB080E0D80F8091586181115AC080E0D80F19
S1131FC080914E61811165C080E0D80FE114F10465
S1131FD0A9F020912008309121088091A763909165
S1131FE0A863A091A963B091AA63820F931FA11D56
S1131FF0B11DF70180839183A283B3830E94F20C05
S11320008D2FDF91CF911F910F91FF90EF90089545
S113201041E0BF01C80120E1D29F800D911D112430
S11320200E943C0FB2CFD0E0E9CF42E0BF01C8012B
S1132030E0E1DE9F800D911D11240E943C0FD80F1A
S1132040E0916A61F0916B618081882309F4B0CFDB
S113205042E0BF01C801F0E1DF9F800D911D112412
S11320600E943C0FD80F80915861882309F4A6CFB1
S113207044E068E571E6C80120E1D29F800D911D1E
S113208011240E943C0FD80F80914E61882309F4DB
S11320909BCF43E06EE471E6C801E0E1DE9F800D72
S11320A0911D11240E943C0F90CF0F931F93CF9347
S11320B0DF930097C9F0EC018091A4619091A56130
S11320C0C817D90731F06EE77FE08BE390E20E94F6
S11320D0BA118CA18823C1F181508CA32E899BA1B4
S11320E0291711F0882331F080E0DF91CF911F91FF
S11320F00F9108958E010E5F1F4FC8010E94560470
S11321002BA12E8B822F90E044E050E0481B590B0A
S11321104C875D8730914A61321710F420934A61ED
S11321209C01220F331F220F331F220F331F820FF4
S1132130931FB80180589E490E94040481E0DF91F6
S1132140CF911F910F9108956FE77FE08BE390E2A9
S11321500E94BA118CA1C0CF2F923F924F925F92EE
S11321606F927F928F929F92AF92BF92CF92DF92A3
S1132170EF92FF920F931F93CF93DF9300D01F92A0
S1132180CDB7DEB78C01FC011082F0904D618091D7
S11321904D61F0E18F9FC00111240E9428035C016E
S11321A0009709F479C0AE014F5F5F4F6F2D0E9415
S11321B09E0F882E69817A818B819C8124E630E090
S11321C040E050E00E94C41629833A834B835C8329
S11321D0211531054105510509F45BC0882009F436
S11321E058C07501912C81E7C82E80E2D82E93E661
S11321F0292E90E2392E26C07F926F925F924F92E1
S1132200F70183858F9382858F9381858F93808552
S11322108F933F922F921F930F930E948F18CDBFDD
S1132220DEBFF80101900020E9F78F010150110988
S1132230939490E1E90EF11C891459F129813A81B2
S11322404B815C81F70160857185828593850E944D
S1132250C41629013A01F70162817381C8010E9401
S113226007098C01411451046104710429F6F70132
S113227083858F9382858F9381858F9380858F93B8
S1132280DF92CF921F930F930E948F18CDBFDEBFB2
S1132290C8CFC5010E94C7032496CDBFDEBFDF911E
S11322A0CF911F910F91FF90EF90DF90CF90BF904F
S11322B0AF909F908F907F906F905F904F903F90E2
S11322C02F9008950895F8948EE790E20E94FD01FE
S11322D080E880930106809305062FEF33EC99E0A4
S11322E0215030409040E1F700C000008093060682
S11322F02FEF33EC99E0215030409040E1F700C0DB
S11323000000E9CFCF93DF93CDB7DEB7C058D10932
S1132310CDBFDEBFF89480E8809301067F936F936E
S113232020EA30E23F932F931F928F938E010F5F29
S11323301F4F1F930F930E945818C8010E94FD015C
S1132340CDBFDEBF80E8809305063FEF93ED20E329
S1132350315090402040E1F700C000008093060611
S11323603FEF93ED20E3315090402040E1F700C06F
S11323700000E9CFCF93DF93CDB7DEB7C058D109C2
S1132380CDBFDEBFF89420E8209301067F936F93BE
S11323909F938F938CEB90E29F938F931F922F9335
S11323A08E010F5F1F4F1F930F930E945818C8018F
S11323B00E94FD01CDBFDEBF80E8809305063FEF9C
S11323C093EC29E0315090402040E1F700C0000038
S11323D0809306063FEF93ED20E331509040204078
S11323E0E1F700C00000E9CF0E9432020E940E0310
S11323F00E944D020E94B5010E941B020E94161306
S11324000E94B40181E00E941A1387E08093A20025
S113241078942FEF89EF90E0215080409040E1F7CD
S113242000C000000E949B120E9402130E943D12F1
S11324300E94DB0B80E090E0089560911020709181
S113244011208FEA93E60E94810D0E94C0018093BF
S1132450AC639091A661891769F020E04FEF5FEFBC
S11324606CEA73E68091AD639091AE630E944D0770
S11324709091AC639093A661E0CFEF92FF920F939B
S1132480E12CF12C01E020E030E040E051E06CED83
S113249070E28DE192E10E94590A40E061E085E03A
S11324A00E9409078093AD639093AE630F91FF90F0
S11324B0EF90089540E050E06BEA73E68091AD63DD
S11324C09091AE630E941C08813009F008958091B8
S11324D0AB630895CFE018E0D1E0609112207091D1
S11324E013208FEA93E60E94810D809114200E94AC
S11324F0290280911520909116208130910529F0B0
S1132500029759F0C0931420E8CF809114208830AA
S113251061F0880F80931420E0CF809114208130E3
S113252039F0869580931420D8CFD0931420D5CF3A
S113253010931420D2CFEF92FF920F93E12CF12C41
S113254001E020E030E040E051E061EE70E28AE634
S113255092E10E94590A0F91FF90EF90089507E1CC
S113256010E2CBEED0E283E0A82EB12C9FE0892EBE
S113257091E2992E22E0C22ED12CEE24E394F12C88
S11325801F930F93DF93CF930E94441887EA91E639
S11325900E94AC106EEE70E287E190E20E94D917BF
S11325A00F900F900F900F90892B29F4E092152033
S11325B0F0921620E5CF6EEF70E287E190E20E9480
S11325C0D917892B29F4C0921520D0921620D8CF80
S11325D06CED70E287E190E20E94D917892B29F013
S11325E0A0921520B0921620CBCF0E945A121F92AF
S11325F08F939F928F920E9430180F900F900F909C
S11326000F90BECFEF92FF920F93E12CF12C01E0DB
S113261020E030E040E053E06FE171E28FEA92E1C4
S11326200E94590A0F91FF90EF90089580E28093E1
S113263041060895811104C080E2809346060895FE
S113264080E28093450608952F923F924F925F92C5
S11326506F927F928F929F92AF92BF92CF92DF92AE
S1132660EF92FF920F931F93CF93DF93CDB7DEB713
S11326706097CDBFDEBF7C011B016A01FC0116829D
S11326801782838181FF44C39E012F5F3F4F39012D
S1132690F7019381F10193FD859193FF81911F01CE
S11326A0882309F431C3853239F493FD859193FF6E
S11326B081911F01853239F4B70190E00E94F4172B
S11326C056016501E5CF10E0512C912CFFE1F9157D
S11326D0D8F08B3279F038F4803279F08332A1F477
S11326E0F92DF0612EC08D3261F0803369F4292D0B
S11326F021602DC0392D3260932E892D8460982E4F
S11327002AC0E92DE86015C097FC2DC020ED280FE4
S11327102A3088F496FE06C03AE0139F200D112457
S1132720122F19C08AE0589E200D1124522EE92D33
S1132730E0629E2E10C08E3231F496FCE5C2F92D73
S1132740F0649F2E08C08C3621F4292D2068922E27
S113275002C0883641F4F10193FD859193FF819184
S11327601F018111B3CF9BEB980F933020F4992D67
S11327709061805E07C09BE9980F933008F066C1B2
S1132780992D9F7E96FF16E09F73992E853619F436
S11327909064992E08C0863621F4392F3068932E20
S11327A002C01111115097FE07C01C3350F4442489
S11327B04394410E27E00BC0183038F027E017E0AF
S11327C005C027E09CE3492E02C0212F412C56016D
S11327D084E0A80EB11CF60160817181828193812D
S11327E0042DA3010E94E6166C01F981FC87F0FF19
S11327F002C0F3FF06C091FC06C092FE06C000E2D0
S113280005C00DE203C00BE201C000E08C858C70B2
S113281019F001115AC29BC297FE10C04C0CFC85E2
S1132820F4FF04C08A81813309F44A94141474F5C2
S113283028E0241578F588E0482E2CC096FC2AC0A0
S1132840812F90E08C159D059CF03CEFC3163FEF63
S1132850D30674F0892D8068982E0AC0E2E0F0E077
S1132860EC0FFD1FE10FF11D8081803319F411502D
S11328701111F4CF97FE0EC044244394410E812FCE
S113288090E0C816D9062CF41C1904C044244394BF
S113289001C010E097FE06C01C141D0434F4C601E8
S11328A0019605C085E090E002C081E090E001114E
S11328B00196112331F0212F30E02F5F3F4F820F1B
S11328C0931F252D30E08217930714F4581A01C082
S11328D0512C892D897049F4552039F0B70180E2D3
S11328E090E00E94F4175A94F7CF002329F0B7011F
S11328F0802F90E00E94F41793FC09C0552039F012
S1132900B70180E390E00E94F4175A94F7CF97FE42
S11329104CC04601D7FE02C0812C912CC6018819F7
S11329209909F301E80FF91FED87FE879601241931
S113293031092F87388B012F10E01195019511096A
S11329403FEF8316930629F4B7018EE290E00E94CC
S1132950F417C814D9044CF08F8598898815990503
S113296024F4ED85FE85818101C080E3F1E08F1AB6
S113297091082D853E852F5F3F4F2D873E8780161A
S113298091062CF0B70190E00E94F417D9CFC81437
S1132990D90441F49A81963320F4953319F43C8593
S11329A034FF81E3B70190E04EC08A81813319F08E
S11329B09C859F7E9C87B70190E00E94F4171111BB
S11329C005C094FC18C085E690E017C0B7018EE2FC
S11329D090E00E94F4171E5F82E001E0080FF3010B
S11329E0E80FF11D8081B70190E00E94F417802F59
S11329F00113F3CFE6CF85E490E0B7010E94F4170A
S1132A00D7FC06C0C114D10441F4EC85E4FF05C031
S1132A10D194C194D1088DE201C08BE2B70190E05A
S1132A200E94F41780E32AE0C216D1042CF08F5FD1
S1132A30FAE0CF1AD108F7CFB70190E00E94F4175B
S1132A40B701C601C0960E94F41754C1833631F011
S1132A50833779F0833509F056C020C0560132E03F
S1132A60A30EB11CF6018081898301E010E06301AB
S1132A7012C05601F2E0AF0EB11CF601C080D18045
S1132A8096FE03C0612F70E002C06FEF7FEFC601B6
S1132A900E94E9178C01F92DFF7714C0560122E03A
S1132AA0A20EB11CF601C080D18096FE03C0612F36
S1132AB070E002C06FEF7FEFC6010E94BE178C0169
S1132AC0F92DF0689F2EF3FD1AC0852D90E00817AC
S1132AD01907A8F4B70180E290E00E94F4175A9411
S1132AE0F4CFF60197FC859197FE81916F01B701B0
S1132AF090E00E94F41751105A94015011090115E5
S1132B00110579F7F7C0843611F0893661F556015D
S1132B1097FE09C024E0A20EB11CF6016081718108
S1132B20828193810AC0F2E0AF0EB11CF60160818C
S1132B307181072E000C880B990BF92DFF769F2EBF
S1132B4097FF09C090958095709561957F4F8F4F41
S1132B509F4FF0689F2E2AE030E0A3010E94B8182E
S1132B60C82EC6183FC0092D853721F40F7E2AE0F0
S1132B7030E01DC0097F8F3691F018F4883559F084
S1132B80C3C0803719F0883711F0BEC0006104FF5C
S1132B9009C0046007C094FE08C0066006C028E0AF
S1132BA030E005C020E130E002C020E132E056010F
S1132BB007FF09C084E0A80EB11CF6016081718191
S1132BC08281938108C0F2E0AF0EB11CF6016081EE
S1132BD0718180E090E0A3010E94B818C82EC61845
S1132BE00F77902E96FE0BC0092D0E7FC11650F460
S1132BF094FE0AC092FC08C0092D0E7E05C0DC2C90
S1132C00092D03C0DC2C01C0D12E04FF0DC0FE0130
S1132C10EC0DF11D8081803311F4097E09C002FF9F
S1132C2006C0D394D39404C0802F867809F0D3943B
S1132C3003FD11C000FF06C01C2DD51480F4150D32
S1132C401D190DC0D51458F4B70180E290E00E941C
S1132C50F417D394F7CFD51410F45D1801C0512C98
S1132C6004FF10C0B70180E390E00E94F41702FF54
S1132C7017C001FD03C088E790E002C088E590E03A
S1132C80B7010CC0802F867859F001FF02C08BE297
S1132C9001C080E207FD8DE2B70190E00E94F417C5
S1132CA0C11638F4B70180E390E00E94F417115084
S1132CB0F7CFCA94F301EC0DF11D8081B70190E0C8
S1132CC00E94F417C110F5CF15C0F4E0F51560F5B6
S1132CD084E0581A93FE1FC0011127C02C8523FFDE
S1132CE02AC004E112E0392D3071932EF801849149
S1132CF0811124C0552009F4E4CCB70180E290E0AE
S1132D000E94F4175A94F6CFF7018681978126C062
S1132D108FEF9FEF23C0B70180E290E00E94F41789
S1132D205A945110F8CFD8CF512CB701802F90E08E
S1132D300E94F417D3CF08E112E0D5CF911080524E
S1132D40B70190E00E94F4170F5F1F4FCFCF23E02D
S1132D50251510F483E0BDCF512CC0CF6096CDBFB4
S1132D60DEBFDF91CF911F910F91FF90EF90DF9025
S1132D70CF90BF90AF909F908F907F906F905F9017
S1132D804F903F902F900895A1E21A2EAA1BBB1BCF
S1132D90FD010DC0AA1FBB1FEE1FFF1FA217B30723
S1132DA0E407F50720F0A21BB30BE40BF50B661F39
S1132DB0771F881F991F1A9469F7609570958095FD
S1132DC090959B01AC01BD01CF010895283008F016
S1132DD027E03327DA01990F311D87FD91600096B2
S1132DE06105710539F432602E5F3D9330E32A9515
S1132DF0E1F708959F3F30F080387105610509F0CF
S1132E003C5F3C5F3D93913008F08068911DDF93F7
S1132E10CF931F930F93FF92EF92192F987F96955C
S1132E20E92F96959695E90FFF27EA58FD4F9927C4
S1132E303327EE24FF24A701E701059008940794A3
S1132E4028F4360FE71EF81E491F511D660F771F21
S1132E50881F991F0694A1F70590079428F4E70E9C
S1132E60F81E491F561FC11D770F881F991F661F23
S1132E700694A1F70590079428F4F80E491F561FED
S1132E80C71FD11D880F991F661F771F0694A1F7CE
S1132E900590079420F4490F561FC71FD81F990F98
S1132EA0661F771F881F0694A9F7849110951770E1
S1132EB041F0D695C79557954795F794E7941A9599
S1132EC0C1F7ECE1F2E068941590159135916591A4
S1132ED0959105907FE27395E118F10A430B560B27
S1132EE0C90BD009C0F7E10CF11E431F561FC91FBF
S1132EF0D01D7EF4703311F48A95E6CFE894015026
S1132F0030F0080F0AF40027021708F4202F239545
S1132F10022F7A3328F079E37D932A95E9F710C0DC
S1132F207D932A9589F60694979567953795179515
S1132F301794E118F10A430B560BC90BD00998F00A
S1132F4023957E9173957A3308F070E37C93201374
S1132F50B8F77E9170617D9330F0839571E37D9332
S1132F6070E32A95E1F71124EF90FF900F911F91E0
S1132F70CF91DF91992787FD90950895FC010590E5
S1132F80615070400110D8F7809590958E0F9F1F67
S1132F900895FB01DC0102C001900D9241505040A4
S1132FA0D8F70895DC0101C06D9341505040E0F71B
S1132FB00895FB01DC018D91019080190110D9F372
S1132FC0990B0895FB01DC0101900D920020E1F7BB
S1132FD00895FC016150704001900110D8F780956C
S1132FE090958E0F9F1F08950F931F93CF93DF9398
S1132FF0FB01238121FD03C08FEF9FEF2CC022FF33
S113300016C046815781248135814217530744F401
S1133010A081B1819D012F5F3F4F208331838C9329
S1133020268137812F5F3F4F2683378314C08B015E
S1133030EC01FB010084F185E02D1995892BE1F663
S1133040D80116968D919C911797019616968D939B
S11330509C931797CE01DF91CF911F910F91089503
S1133060CF93DF93CDB7DEB7AE014A5F5F4FFA016E
S113307061917191AF018091B3639091B4630E94A7
S11330802413DF91CF910895CF93DF93CDB7DEB7AB
S1133090AE014A5F5F4FFA0161917191AF01809176
S11330A0B1639091B2630E94CF1ADF91CF910895DA
S11330B00F931F93CF93DF93CDB7DEB72E97CDBF7A
S11330C0DEBF0E891F89888D998D26E02C830983A4
S11330D01A8397FF02C080E090E801978D839E8356
S11330E0AE01445E5F4F6A8D7B8DCE0101960E94D6
S11330F024134D815E8157FD0AC02F813885421704
S113310053070CF49A01F801E20FF31F10822E9674
S1133110CDBFDEBFDF91CF911F910F9108950F9323
S11331201F93CF93DF93CDB7DEB72E97CDBFDEBF0E
S11331300E891F8986E08C8309831A838FEF9FE7AA
S11331408D839E83AE01465E5F4F688D798DCE017F
S113315001960E942413EF81F885E00FF11F10827D
S11331602E96CDBFDEBFDF91CF911F910F910895B1
S1133170FA01AA27283051F1203181F1E8946F93A4
S11331806E7F6E5F7F4F8F4F9F4FAF4FB1E03ED04A
S1133190B4E03CD0670F781F891F9A1FA11D680FE8
S11331A0791F8A1F911DA11D6A0F711D811D911D1B
S11331B0A11D20D009F468943F912AE0269F112490
S11331C03019305D3193DEF6CF010895462F4770F4
S11331D0405D4193B3E00FD0C9F7F6CF462F4F704F
S11331E0405D4A3318F0495D31FD4052419302D0AD
S11331F0A9F7EACFB4E0A695979587957795679553
S1133200BA95C9F700976105710508959B01AC0152
S11332100A2E06945795479537952795BA95C9F779
S1133220620F731F841F951FA01D089520FD09C000
S1133230FC0123FD05C022FF02C073836283518316
S11332404083089544FD17C046FD17C0AB01BC017F
S1133250DA01FB01AA0FBB1FEE1FFF1F1094D1F769
S11332604A0F5B1F6E1F7F1FCB01BA01660F771FCA
S1133270881F991F09C033E001C034E0660F771F2F
S1133280881F991F3150D1F7620F711D811D911D47
S113329008950F931F93CF93DF938C01C8010E946D
S11332A0081CEC0197FD08C00E94F41B892BB1F7A0
S11332B0B801CE010E94461CCE01DF91CF911F912F
S11332C00F9108958F929F92AF92BF92EF92FF92C7
S11332D00F931F93CF93DF938C01D62F7A01B22ED5
S11332E00E94081C9C0133272B32310531F02D320A
S11332F0310561F48B2D8068B82ED15011F480E033
S113330068C0C8010E94081C97FDF9CFCB2DCD7F62
S11333102B2D207309F58033F9F4AA24AA94AD0E59
S113332009F443C0C8010E94081C97FD3EC09C01DB
S11333302F7D33272835310549F4C264D250A9F1D1
S1133340C8010E94081C97FF07C02FC0B6FE02C028
S1133350C26001C0C261DA2D812C912C540120ED90
S1133360280F283080F0C4FF04C0B8010E94461C16
S113337019C02A3040F0C6FFF8CF2F7D3FEE320F40
S1133380363098F727504C2FC501B4010E942219FA
S11333904B015C01C260D15059F0C8010E94081C65
S11333A097FFDDCFC1FD04C0AACF812C912C54011D
S11333B0C7FF08C0B094A09490948094811C911C81
S11333C0A11CB11C2C2FB501A401C7010E94161920
S11333D081E0DF91CF911F910F91FF90EF90BF900B
S11333E0AF909F908F9008955F926F927F928F928B
S11333F09F92AF92BF92CF92DF92EF92FF920F9380
S11334001F93CF93DF93CDB7DEB7A097CDBFDEBFB9
S11334105C01962E7A01F9018E010F5F1F4F68013E
S113342080E2D8011D928A95E9F7D50113968C9014
S113343080E090E0612C712C30E061E070E083FC6E
S1133440259183FE21918F01522E211103C080E02A
S113345090E092C02E3511F4009751F1432F50E0C3
S1133460481759073CF42D3559F12D3219F47720BA
S113347009F103C0772009F46AC0452D46954695A5
S11334804695D601A40FB11D452D47708B0102C08E
S1133490000F111F4A95E2F7A8015C91452B4C934C
S11334A0651459F0561410F45394E7CF5A94E5CFA9
S11334B031E004C07724739401C0712C0196BFCF0E
S11334C0772019F08E8180628E83311103C08824A5
S11334D0839417C0F6019E012F5D3F4F8081809534
S11334E081932E173F07D1F7F2CFE114F10429F0AD
S11334F0D7018C93F70131967F019A94812C9920FE
S1133500F9F0C5010E94081C97FD18C0FC01FF27B3
S113351023E0F595E7952A95E1F7EC0DFD1D208153
S113352030E0AC014770552702C0359527954A9580
S1133530E2F720FDDACFB5010E94461C811087CF47
S1133540E114F10411F0D7011C92C80115C0422FF7
S1133550469546954695D601A40FB11D422F477056
S11335608B0102C0000F111F4A95E2F7A8015C917C
S1133570452B4C93622EA2CFA096CDBFDEBFDF9128
S1133580CF911F910F91FF90EF90DF90CF90BF905C
S1133590AF909F908F907F906F905F9008955F920F
S11335A06F927F928F929F92AF92BF92CF92DF924F
S11335B0EF92FF920F931F93CF93DF936C01EB0174
S11335C05A01FC0116821782512CF601E380FE0198
S11335D0E3FC8591E3FE8191182FEF01882309F420
S11335E0EEC090E00E94F41B892B21F0C6010E94DA
S11335F04919EBCF153241F4FE01E3FC1591E3FECA
S11336001191EF01153281F4C6010E94081C97FD47
S1133610D4C0412F50E09C01332724173507A9F269
S1133620B6010E94461CCBC01A3239F4E3FC159152
S1133630E3FE1191EF0101E001C000E0F12C20ED67
S1133640210F2A3080F402606F2D70E080E090E05A
S113365040E20E942219F62EFE01E3FC1591E3FEDE
S11336601191EF01ECCF01FF03C0F11003C0A7C01B
S1133670FF24FA94183619F01C3651F010C0FE01DC
S1133680E3FC1591E3FE1191EF01183641F4086053
S11336900460FE01E3FC1591E3FE1191EF01112397
S11336A009F48DC0612F70E086E193E00E94FD1B58
S11336B0892B09F484C000FD07C0F5018080918046
S11336C0C50102965C0102C0812C912C1E3651F476
S11336D0F6014681578160E070E0202FC4010E940A
S11336E0161973CF1336A9F401FD02C0FF24F39415
S11336F0C6010E94081C97FD60C08114910429F042
S1133700F4018083C40101964C01FA94F110F0CFC6
S113371050C01B3559F49E01A4016F2DC6010E94AF
S1133720F419EC01892B09F044C03EC0C6010E9483
S1133730491997FD42C01F3661F128F4143639F156
S1133740193651F128C0133771F0153701F123C030
S11337508114910429F0F4016082C40101964C01A2
S1133760FA94FF2071F0C6010E94081C3C0197FDE9
S113377008C00E94F41B892B59F3B601C3010E94AF
S1133780461C81149104A9F0F401108212C0006255
S113379003C0006101C00064202FA4016F2DC60185
S11337A00E946219811105C0F6018381807329F496
S11337B006C000FD0ACF539408CF552019F0852D7B
S11337C090E002C08FEF9FEFDF91CF911F910F9197
S11337D0FF90EF90DF90CF90BF90AF909F908F902D
S11337E07F906F905F90089591110C945F1C8032CC
S11337F019F089508550C8F70895FC010590061604
S113380021F00020D9F7C00108953197CF01089520
S1133810CF93DF93EC012B8120FF33C026FF0AC036
S11338202F7B2B838E819F8101968E839F838A8138
S113383090E029C022FF0FC0E881F9818081082E21
S1133840000C990B009719F420622B831AC031964F
S1133850E883F9830EC0EA85FB85199597FF09C0B3
S11338602B81019611F080E201C080E1822B8B83D1
S113387008C02E813F812F5F3F4F2E833F839927BE
S113388002C08FEF9FEFDF91CF910895FB01238159
S113389020FF12C026FD10C08F3F3FEF930761F059
S11338A082832F7D2064238326813781215031092F
S11338B026833783992708958FEF9FEF08959927DB
S10B38C088270895F894FFCF56
S11338C80000000300000000FA0206030000FF3FA6
S11338D86400F4010101006C6F6F706C69636874B3
S11338E85F6C696E6B73002E2E2F46726565525499
S11338F84F532F71756575652E63002E2E2F4672F2
S1133908656552544F532F7461736B732E6300496A
S1133918444C45000925630925750925750925754C
S11339280D0A0009256C750909256C7525250D0AEC
S11339380009256C7509093C3125250D0A004552F5
S1133948524F523A206D656D6F727920616C6C6FBD
S1133958636174696F6E206661696C65640D0A0041
S1133968535441434B206F766572666C6F772069B8
S11339786E207461736B2025730D0A00417373659F
S1133988727420696E2066696C652025732C206C1E
S1133998696E65206E722025640D0A006669666F7B
S11339A8006C6F6F706C69636874002573006C6FCA
S11339B86F706C696368745F6C696E6B73006C6FAD
S11339C86F706C696368745F7265636874730046CA
S11339D849464F2071756575653A2025700D007448
S10B39E865726D696E616C00EB
S9030000FC
