:100000000C9489010C94AA010C94AA010C94AA01E5
:100010000C94AA010C94AA010C94AA010C94AA01B4
:100020000C94AA010C94AA010C94AA010C94AA01A4
:100030000C94AA010C94AA010C94DC040C94AA015F
:100040000C94AA010C94AA010C94AA010C94AA0184
:100050000C94AA010C94AA010C94AA010C94AA0174
:100060000C94AA010C94AA010C94AA010C94AA0164
:100070000C94AA010C94AA010C94AA010C94AA0154
:100080000C94AA010C94AA010C94AA010C94AA0144
:100090000C94AA010C94AA010C94AA010C94AA0134
:1000A0000C94AA010C94AA010C94AA010C94AA0124
:1000B0000C94AA010C94AA010C941A030C94AA01A2
:1000C0000C94AA010C94AA010C94AA010C94AA0104
:1000D0000C94AA010C94AA010C94AA010C94AA01F4
:1000E0000C94AA010C94AA010C94AA010C94AA01E4
:1000F0000C94AA010C94AA010C94AA010C94AA01D4
:100100000C94AA010C94AA010C94AA010C94AA01C3
:100110000C94AA010C94AA010C94AA010C94AA01B3
:100120000C94AA010C94AA010C94AA010C94AA01A3
:100130000C94AA010C94AA010C94AA010C94AA0193
:100140000C94AA010C94AA010C94AA010C94AA0183
:100150000C94AA010C94AA010C94AA010C94AA0173
:100160000C94AA010C94AA010C94AA010C94AA0163
:100170000C94AA010C94AA010C94AA010C94AA0153
:100180000C94AA010C94AA010C94AA010C94AA0143
:100190000C94AA010C94AA010C94AA010C94AA0133
:1001A0000C94AA010C94AA010C94AA010C94AA0123
:1001B0000C94AA010C94AA010C94AA010C94AA0113
:1001C0000C94AA010C94AA010C94AA010C94AA0103
:1001D0000C94AA010C94AA010C94AA010C94AA01F3
:1001E0000C94AA010C94AA010C94AA010C94AA01E3
:1001F0000C94AA010C94AA010C94AA010C94AE03CD
:100200000C94D3036E616E00696E660000407A1034
:10021000F35A00A0724E18090010A5D4E80000E8B7
:100220007648170000E40B54020000CA9A3B000015
:1002300000E1F505000080969800000040420F00A4
:100240000000A08601000000102700000000E80365
:10025000000000006400000000000A000000000030
:100260000100000000002C76D888DC674F0823DFEF
:10027000C1DFAE59E1B1B796E5E3E453C63AE651C2
:10028000997696E8E6C28426EB898C9B62ED407CE9
:100290006FFCEFBC9C9F40F2BAA56FA5F490055A85
:1002A0002AF75C936B6CF9676DC11BFCE0E40D47AA
:1002B000FEF520E6B500D0ED902E030094357705CD
:1002C0000080841E080000204E0A000000C80C3385
:1002D0003333330F986E12831141EF8D2114893B14
:1002E000E65516CFFEE6DB18D1844B381BF77C1D94
:1002F000901DA4BBE424203284725E228100C9F1E7
:1003000024ECA1E53D276364696E6F7073757858BE
:100310005B0011241FBECFEFCDBFDFE9DEBF00E0E1
:100320000CBF10E2A0E0B0E2E0EFFDE100E00BBFA7
:1003300002C007900D92A235B107D9F720E2A2E5DD
:10034000B0E201C01D92A336B207E1F70E94ED03AF
:100350000C94F60E0C940000CF93DF93CDB7DEB76C
:100360000000DF91CF910895CF93DF93CDB7DEB733
:100370000000DF91CF910895CF93DF93CDB7DEB723
:1003800080E296E027E0FC01218380E296E020E411
:10039000FC01208B80E296E020E4FC01218B80E2CE
:1003A00096E020E4FC01228B80E096E020E8FC014E
:1003B000218380E096E020E4FC01278B0000DF91A0
:1003C000CF910895CF93DF931F92CDB7DEB7898386
:1003D00080E296E029812770FC012483898182953F
:1003E000807F898380E096E029812078FC01248346
:1003F00000000F90DF91CF910895CF93DF93CDB799
:10040000DEB70000DF91CF9108958BEC809352000E
:1004100088E0809350008091510083FFFCCF82ECF4
:100420008093550088E1809350008091510084FFB3
:10043000FCCF88ED84BF84E08093400080E0089585
:10044000CF93DF93CDB7DEB710925B2080E896E0C4
:1004500028E1FC01208B80E896E028E1FC01218B5B
:1004600080EA94E028E7FC01218380EA94E023E21B
:10047000FC01258380EA94E021E0FC012483000054
:10048000DF91CF910895CF93DF931F92CDB7DEB761
:1004900080EA94E0FC01848189838981882F90E03F
:1004A00084709927892B21F084E080935C2003C01D
:1004B00083E080935C2080EA94E029812860FC013D
:1004C000248310925B2000000F90DF91CF9108955C
:1004D000CF93DF9300D01F92CDB7DEB78091572026
:1004E0008983809158208A8380EA94E0FC0184818A
:1004F000882F90E080719927892B59F080EA94E049
:1005000023E0FC01238385E080935C2010925B2034
:1005100034C09091592089819817C0F420915320BC
:100520003091542080915920882F90E0820F931FA2
:10053000FC0180818B8380EA94E02B81FC0127837E
:10054000809159208F5F8093592017C090915A2035
:100550008A81981750F48091522081608C8380EAC0
:1005600094E02C81FC01268308C080EA94E023E01B
:10057000FC01238381E00E940A0300002496CDBF82
:10058000DEBFDF91CF910895CF93DF931F921F922B
:10059000CDB7DEB780915A208032C0F480EA94E073
:1005A000FC018781898320915520309156208091CC
:1005B0005A20882F90E0820F931F2981FC0120830D
:1005C00080915A208F5F80935A2008C080EA94E07F
:1005D00023E0FC01238382E00E940A0380915820DB
:1005E0008A8390915A208A81981730F480EA94E0A7
:1005F00022E0FC01238308C080EA94E027E0FC01AC
:10060000238381E00E940A0300000F900F90DF9186
:10061000CF910895CF93DF931F92CDB7DEB7898333
:10062000898180935C2010925B2000000F90DF9105
:10063000CF9108951F920F9200903F000F921124C6
:1006400000903B000F922F933F934F935F936F93D4
:100650007F938F939F93AF93BF93EF93FF93CF932A
:10066000DF931F92CDB7DEB780EA94E0FC0184816E
:1006700089838981882F90E088709927892B39F4A4
:100680008981882F90E084709927892B19F00E9426
:10069000430213C08981882F90E080749927892BA9
:1006A00019F00E94680209C0898188231CF40E9405
:1006B000C40203C086E00E940A0380915B20000010
:1006C0000F90DF91CF91FF91EF91BF91AF919F91EB
:1006D0008F917F916F915F914F913F912F910F90EB
:1006E00000923B000F9000923F000F901F901895D2
:1006F000CF93DF93CDB7DEB780E896E028E0FC012A
:10070000218380E896E024E0FC01228380EA9AE0DD
:10071000FC01138280EA9AE028E1FC01248380EA4C
:100720009AE023E0FC01258380EA9AE025EEFC01B3
:10073000268380EA9AE02CEBFC01278380E090E29C
:1007400080935F209093602080E090E280935D2012
:1007500090935E200000DF91CF910895CF93DF93B7
:1007600000D0CDB7DEB789836A837B8380EA9AE0C5
:100770002981FC012083000080EA9AE0FC0181814C
:10078000882F90E080749927892BB1F380EA9AE052
:1007900020E4FC01218380E090E02396CDBFDEBF02
:1007A000DF91CF910895CF93DF931F921F92CDB722
:1007B000DEB789839A83000080EA9AE0FC01818198
:1007C0008823D4F780EA9AE0FC018081882F90E0AA
:1007D0000F900F90DF91CF910895CF93DF93CDB716
:1007E000DEB72E97CDBFDEBF0E9405020E947803C0
:1007F0000E9420020E94B4010E94BC010E94570680
:100800000E94AC010E94FD0181E00E945B0680E035
:1008100090E0AAEFB3E489839A83AB83BC8320E0A2
:1008200030E04AEF55E469817A818B819C810E9496
:10083000C205DC01CB018D839E83AF83B88720E0A6
:1008400030E040E85FE36D817E818F8198850E9472
:100850003C0588232CF481E090E089879A873FC08B
:1008600020E03FEF4FE757E46D817E818F819885CF
:100870000E94BD0518164CF520E030E040E251E43E
:1008800069817A818B819C810E94C205DC01CB0148
:10089000BC01CD010E944105DC01CB0189879A870B
:1008A0000FC080E293E08B879C878B859C850197A6
:1008B000F1F78B879C8789859A85019789879A8725
:1008C00089859A85892B69F714C06D817E818F8116
:1008D00098850E944105DC01CB0189879A8789852B
:1008E0009A858D879E878D859E850197F1F78D87E7
:1008F0009E878FE390E020E8FC01208380EA90E06F
:1009000027E0FC01228380E098E027E0FC012083BF
:1009100080E098E0FC01118280E098E0FC01138205
:1009200080E098E023E0FC01268380E098E029E065
:100930003DE3FC0126A337A30E949F04FDCFCF9384
:10094000DF93CDB7DEB78EE090E2892F8F938EE0F4
:1009500090E28F938DE290E2892F8F938DE290E267
:100960008F930E94380B0F900F900F900F9060E3C1
:1009700070E28EE090E20E94E80A892B39F481E06F
:1009800090E080931E2090931F20DDCF60E470E202
:100990008EE090E20E94E80A892B39F482E090E030
:1009A00080931E2090931F20CECF83E090E0809311
:1009B0001E2090931F20C7CF1F920F9200903F00E0
:1009C0000F92112400903B000F922F933F934F936F
:1009D0005F936F937F938F939F93AF93BF93EF93A7
:1009E000FF93CF93DF93CDB7DEB7809120200E9495
:1009F000E20180911E2090911F20019771F4809157
:100A00002020883021F481E0809320201DC0809137
:100A10002020880F8093202017C080911E20909165
:100A20001F20029771F480912020813021F488E00A
:100A30008093202009C080912020869580932020DB
:100A400003C08FE0809320200000DF91CF91FF91C1
:100A5000EF91BF91AF919F918F917F916F915F9136
:100A60004F913F912F910F9000923B000F90009279
:100A70003F000F901F9018950E94700508F481E0C8
:100A800008950E949C0588F09F5798F0B92F9927E8
:100A9000B751B0F0E1F0660F771F881F991F1AF069
:100AA000BA95C9F714C0B13091F00E94B605B1E013
:100AB00008950C94B605672F782F8827B85F39F012
:100AC000B93FCCF3869577956795B395D9F73EF402
:100AD00090958095709561957F4F8F4F9F4F0895AA
:100AE000990F0008550FAA0BE0E8FEEF161617063F
:100AF000E807F907C0F012161306E407F50798F0A7
:100B0000621B730B840B950B39F40A2661F0232BBF
:100B1000242B252B21F408950A2609F4A140A6953B
:100B20008FEF811D811D089557FD9058440F551F6B
:100B300059F05F3F71F04795880F97FB991F61F05F
:100B40009F3F79F087950895121613061406551FD6
:100B5000F2CF4695F1DF08C0161617061806991F42
:100B6000F1CF86957105610508940895E894BB2737
:100B700066277727CB0197F908950E94700508F43E
:100B80008FEF08950E94D5050C9446060E94380602
:100B900038F00E943F0620F0952311F00C942F06A8
:100BA0000C94350611240C94B7050E94940570F33B
:100BB000959FC1F3950F50E0551F629FF001729F02
:100BC000BB27F00DB11D639FAA27F00DB11DAA1F11
:100BD000649F6627B00DA11D661F829F2227B00D5E
:100BE000A11D621F739FB00DA11D621F839FA00DE9
:100BF000611D221F749F3327A00D611D231F849F39
:100C0000600D211D822F762F6A2F11249F5750408F
:100C10009AF0F1F088234AF0EE0FFF1FBB1F661F0A
:100C2000771F881F91505040A9F79E3F510580F0D3
:100C30000C942F060C94B7055F3FE4F3983ED4F371
:100C4000869577956795B795F795E7959F5FC1F777
:100C5000FE2B880F911D9695879597F9089597F922
:100C60009F6780E870E060E008959FEF80EC089552
:100C700000240A941616170618060906089500247B
:100C80000A9412161306140605060895092E0394F5
:100C9000000C11F4882352F0BB0F40F4BF2B11F469
:100CA00060FF04C06F5F7F4F8F4F9F4F089580E2BA
:100CB000809341060895811104C080E28093460626
:100CC000089580E28093450608952F923F924F92B7
:100CD0005F926F927F928F929F92AF92BF92CF92CC
:100CE000DF92EF92FF920F931F93CF93DF93CDB7D5
:100CF000DEB76097CDBFDEBF7C011B016A01FC013E
:100D000016821782838181FF44C39E012F5F3F4F6C
:100D10003901F7019381F10193FD859193FF819151
:100D20001F01882309F431C3853239F493FD85917D
:100D300093FF81911F01853239F4B70190E00E9441
:100D4000FC0A56016501E5CF10E0512C912CFFE122
:100D5000F915D8F08B3279F038F4803279F083329B
:100D6000A1F4F92DF0612EC08D3261F0803369F469
:100D7000292D21602DC0392D3260932E892D84605C
:100D8000982E2AC0E92DE86015C097FC2DC020EDF3
:100D9000280F2A3088F496FE06C03AE0139F200DF3
:100DA0001124122F19C08AE0589E200D1124522EB2
:100DB000E92DE0629E2E10C08E3231F496FCE5C221
:100DC000F92DF0649F2E08C08C3621F4292D20685F
:100DD000922E02C0883641F4F10193FD859193FF74
:100DE00081911F018111B3CF9BEB980F933020F4B9
:100DF000992D9061805E07C09BE9980F933008F0B1
:100E000066C1992D9F7E96FF16E09F73992E8536B9
:100E100019F49064992E08C0863621F4392F306871
:100E2000932E02C01111115097FE07C01C3350F4CD
:100E300044244394410E27E00BC0183038F027E0DB
:100E400017E005C027E09CE3492E02C0212F412C6A
:100E5000560184E0A80EB11CF60160817181828187
:100E60009381042DA3010E94050A6C01F981FC877E
:100E7000F0FF02C0F3FF06C091FC06C092FE06C060
:100E800000E205C00DE203C00BE201C000E08C856A
:100E90008C7019F001115AC29BC297FE10C04C0C05
:100EA000FC85F4FF04C08A81813309F44A94141448
:100EB00074F528E0241578F588E0482E2CC096FCBF
:100EC0002AC0812F90E08C159D059CF03CEFC31645
:100ED0003FEFD30674F0892D8068982E0AC0E2E0B7
:100EE000F0E0EC0FFD1FE10FF11D8081803319F45C
:100EF00011501111F4CF97FE0EC044244394410EBB
:100F0000812F90E0C816D9062CF41C1904C0442483
:100F1000439401C010E097FE06C01C141D0434F475
:100F2000C601019605C085E090E002C081E090E036
:100F300001110196112331F0212F30E02F5F3F4F37
:100F4000820F931F252D30E08217930714F4581A4F
:100F500001C0512C892D897049F4552039F0B70111
:100F600080E290E00E94FC0A5A94F7CF002329F017
:100F7000B701802F90E00E94FC0A93FC09C0552025
:100F800039F0B70180E390E00E94FC0A5A94F7CF51
:100F900097FE4CC04601D7FE02C0812C912CC601A1
:100FA00088199909F301E80FF91FED87FE8796016B
:100FB000241931092F87388B012F10E011950195E5
:100FC00011093FEF8316930629F4B7018EE290E0F2
:100FD0000E94FC0AC814D9044CF08F8598898815A2
:100FE000990524F4ED85FE85818101C080E3F1E05F
:100FF0008F1A91082D853E852F5F3F4F2D873E87A5
:10100000801691062CF0B70190E00E94FC0AD9CF1F
:10101000C814D90441F49A81963320F4953319F415
:101020003C8534FF81E3B70190E04EC08A81813373
:1010300019F09C859F7E9C87B70190E00E94FC0A76
:10104000111105C094FC18C085E690E017C0B701E7
:101050008EE290E00E94FC0A1E5F82E001E0080F31
:10106000F301E80FF11D8081B70190E00E94FC0AB6
:10107000802F0113F3CFE6CF85E490E0B7010E9403
:10108000FC0AD7FC06C0C114D10441F4EC85E4FF8E
:1010900005C0D194C194D1088DE201C08BE2B701A3
:1010A00090E00E94FC0A80E32AE0C216D1042CF0F2
:1010B0008F5FFAE0CF1AD108F7CFB70190E00E9416
:1010C000FC0AB701C601C0960E94FC0A54C18336CF
:1010D00031F0833779F0833509F056C020C05601CE
:1010E00032E0A30EB11CF6018081898301E010E09B
:1010F000630112C05601F2E0AF0EB11CF601C080D0
:10110000D18096FE03C0612F70E002C06FEF7FEFC9
:10111000C6010E94F10A8C01F92DFF7714C0560117
:1011200022E0A20EB11CF601C080D18096FE03C061
:10113000612F70E002C06FEF7FEFC6010E94DD0AF1
:101140008C01F92DF0689F2EF3FD1AC0852D90E0DB
:1011500008171907A8F4B70180E290E00E94FC0A82
:101160005A94F4CFF60197FC859197FE81916F0117
:10117000B70190E00E94FC0A51105A9401501109E5
:101180000115110579F7F7C0843611F0893661F53C
:10119000560197FE09C024E0A20EB11CF601608141
:1011A0007181828193810AC0F2E0AF0EB11CF60119
:1011B00060817181072E000C880B990BF92DFF7649
:1011C0009F2E97FF09C090958095709561957F4FF0
:1011D0008F4F9F4FF0689F2E2AE030E0A3010E94BE
:1011E0004C0BC82EC6183FC0092D853721F40F7E41
:1011F0002AE030E01DC0097F8F3691F018F4883561
:1012000059F0C3C0803719F0883711F0BEC00061B3
:1012100004FF09C0046007C094FE08C0066006C051
:1012200028E030E005C020E130E002C020E132E0FB
:10123000560107FF09C084E0A80EB11CF6016081C9
:1012400071818281938108C0F2E0AF0EB11CF6017A
:101250006081718180E090E0A3010E944C0BC82E58
:10126000C6180F77902E96FE0BC0092D0E7FC11663
:1012700050F494FE0AC092FC08C0092D0E7E05C0F1
:10128000DC2C092D03C0DC2C01C0D12E04FF0DC0C5
:10129000FE01EC0DF11D8081803311F4097E09C03F
:1012A00002FF06C0D394D39404C0802F867809F03F
:1012B000D39403FD11C000FF06C01C2DD51480F48B
:1012C000150D1D190DC0D51458F4B70180E290E03A
:1012D0000E94FC0AD394F7CFD51410F45D1801C016
:1012E000512C04FF10C0B70180E390E00E94FC0A7B
:1012F00002FF17C001FD03C088E790E002C088E547
:1013000090E0B7010CC0802F867859F001FF02C031
:101310008BE201C080E207FD8DE2B70190E00E9400
:10132000FC0AC11638F4B70180E390E00E94FC0A81
:101330001150F7CFCA94F301EC0DF11D8081B70174
:1013400090E00E94FC0AC110F5CF15C0F4E0F5153D
:1013500060F584E0581A93FE1FC0011127C02C8548
:1013600023FF2AC004E012E0392D3071932EF801DA
:101370008491811124C0552009F4E4CCB70180E2A6
:1013800090E00E94FC0A5A94F6CFF701868197817B
:1013900026C08FEF9FEF23C0B70180E290E00E944C
:1013A000FC0A5A945110F8CFD8CF512CB701802F96
:1013B00090E00E94FC0AD3CF08E012E0D5CF911054
:1013C0008052B70190E00E94FC0A0F5F1F4FCFCF01
:1013D00023E0251510F483E0BDCF512CC0CF6096DB
:1013E000CDBFDEBFDF91CF911F910F91FF90EF90A6
:1013F000DF90CF90BF90AF909F908F907F906F9035
:101400005F904F903F902F900895283008F027E08C
:101410003327DA01990F311D87FD91600096610530
:10142000710539F432602E5F3D9330E32A95E1F780
:1014300008959F3F30F080387105610509F03C5FE9
:101440003C5F3D93913008F08068911DDF93CF930E
:101450001F930F93FF92EF92192F987F9695E92F84
:1014600096959695E90FFF27EA59FD4F992733275F
:10147000EE24FF24A701E70105900894079428F4BF
:10148000360FE71EF81E491F511D660F771F881F74
:10149000991F0694A1F70590079428F4E70EF81E0B
:1014A000491F561FC11D770F881F991F661F06947D
:1014B000A1F70590079428F4F80E491F561FC71F7F
:1014C000D11D880F991F661F771F0694A1F70590FD
:1014D000079420F4490F561FC71FD81F990F661F86
:1014E000771F881F0694A9F784911095177041F013
:1014F000D695C79557954795F794E7941A95C1F7F0
:10150000ECE0F2E068941590159135916591959114
:1015100005907FE27395E118F10A430B560BC90B56
:10152000D009C0F7E10CF11E431F561FC91FD01D83
:101530007EF4703311F48A95E6CFE894015030F0D0
:10154000080F0AF40027021708F4202F2395022F12
:101550007A3328F079E37D932A95E9F710C07D93DB
:101560002A9589F606949795679537951795179458
:10157000E118F10A430B560BC90BD00998F02395DB
:101580007E9173957A3308F070E37C932013B8F75B
:101590007E9170617D9330F0839571E37D9370E36C
:1015A0002A95E1F71124EF90FF900F911F91CF91B1
:1015B000DF91992787FD90950895FC010590615072
:1015C00070400110D8F7809590958E0F9F1F089559
:1015D000FB01DC018D91019080190110D9F3990B69
:1015E0000895FC016150704001900110D8F780957A
:1015F00090958E0F9F1F08950F931F93CF93DF93A6
:10160000FB01238121FD03C08FEF9FEF2CC022FF40
:1016100016C046815781248135814217530744F40F
:10162000A081B1819D012F5F3F4F208331838C9337
:10163000268137812F5F3F4F2683378314C08B016C
:10164000EC01FB010084F185E02D1995892BE1F671
:10165000D80116968D919C911797019616968D93A9
:101660009C931797CE01DF91CF911F910F91089511
:10167000CF93DF93CDB7DEB7AE014A5F5F4FFA017C
:1016800061917191AF0180915D2090915E200E94E7
:10169000630DDF91CF910895FA01AA27283051F107
:1016A000203181F1E8946F936E7F6E5F7F4F8F4F93
:1016B0009F4FAF4FB1E03ED0B4E03CD0670F781FF2
:1016C000891F9A1FA11D680F791F8A1F911DA11DD7
:1016D0006A0F711D811D911DA11D20D009F4689410
:1016E0003F912AE0269F11243019305D3193DEF6B8
:1016F000CF010895462F4770405D4193B3E00FD06E
:10170000C9F7F6CF462F4F70405D4A3318F0495D58
:1017100031FD4052419302D0A9F7EACFB4E0A6953B
:101720009795879577956795BA95C9F7009761055D
:10173000710508959B01AC010A2E069457954795B3
:1017400037952795BA95C9F7620F731F841F951FA8
:10175000A01D089520FD09C0FC0123FD05C022FF46
:1017600002C07383628351834083089544FD17C090
:1017700046FD17C0AB01BC01DA01FB01AA0FBB1F7C
:10178000EE1FFF1F1094D1F74A0F5B1F6E1F7F1FC4
:10179000CB01BA01660F771F881F991F09C033E07C
:1017A00001C034E0660F771F881F991F3150D1F7B1
:1017B000620F711D811D911D08950F931F93CF938B
:1017C000DF938C01C8010E949C0EEC0197FD08C0BC
:1017D0000E94880E892BB1F7B801CE010E94DA0E63
:1017E000CE01DF91CF911F910F9108958F929F921B
:1017F000AF92BF92EF92FF920F931F93CF93DF931D
:101800008C01D62F7A01B22E0E949C0E9C013327A8
:101810002B32310531F02D32310561F48B2D80688A
:10182000B82ED15011F480E068C0C8010E949C0E0F
:1018300097FDF9CFCB2DCD7F2B2D207309F580336C
:10184000F9F4AA24AA94AD0E09F443C0C8010E9479
:101850009C0E97FD3EC09C012F7D33272835310516
:1018600049F4C264D250A9F1C8010E949C0E97FFAE
:1018700007C02FC0B6FE02C0C26001C0C261DA2D2F
:10188000812C912C540120ED280F283080F0C4FFCA
:1018900004C0B8010E94DA0E19C02A3040F0C6FF19
:1018A000F8CF2F7D3FEE320F363098F727504C2F70
:1018B000C501B4010E94B60B4B015C01C260D1505E
:1018C00059F0C8010E949C0E97FFDDCFC1FD04C0F6
:1018D000AACF812C912C5401C7FF08C0B094A094CA
:1018E00090948094811C911CA11CB11C2C2FB501DB
:1018F000A401C7010E94AA0B81E0DF91CF911F9143
:101900000F91FF90EF90BF90AF909F908F900895B0
:101910005F926F927F928F929F92AF92BF92CF927F
:10192000DF92EF92FF920F931F93CF93DF93CDB788
:10193000DEB7A097CDBFDEBF5C01962E7A01F9011C
:101940008E010F5F1F4F680180E2D8011D928A95BA
:10195000E9F7D50113968C9080E090E0612C712C12
:1019600030E061E070E083FC259183FE21918F01DE
:10197000522E211103C080E090E092C02E3511F468
:10198000009751F1432F50E0481759073CF42D358B
:1019900059F12D3219F4772009F103C0772009F4A9
:1019A0006AC0452D469546954695D601A40FB11DB2
:1019B000452D47708B0102C0000F111F4A95E2F7B9
:1019C000A8015C91452B4C93651459F0561410F402
:1019D0005394E7CF5A94E5CF31E004C07724739451
:1019E00001C0712C0196BFCF772019F08E818062E3
:1019F0008E83311103C08824839417C0F6019E01A1
:101A00002F5D3F4F8081809581932E173F07D1F73F
:101A1000F2CFE114F10429F0D7018C93F70131964C
:101A20007F019A94812C9920F9F0C5010E949C0EA7
:101A300097FD18C0FC01FF2723E0F595E7952A954F
:101A4000E1F7EC0DFD1D208130E0AC01477055271A
:101A500002C0359527954A95E2F720FDDACFB5010A
:101A60000E94DA0E811087CFE114F10411F0D70142
:101A70001C92C80115C0422F469546954695D60141
:101A8000A40FB11D422F47708B0102C0000F111F20
:101A90004A95E2F7A8015C91452B4C93622EA2CFA8
:101AA000A096CDBFDEBFDF91CF911F910F91FF9028
:101AB000EF90DF90CF90BF90AF909F908F907F90EE
:101AC0006F905F9008955F926F927F928F929F9236
:101AD000AF92BF92CF92DF92EF92FF920F931F933C
:101AE000CF93DF936C01EB015A01FC011682178240
:101AF000512CF601E380FE01E3FC8591E3FE819128
:101B0000182FEF01882309F4EEC090E00E94880EA0
:101B1000892B21F0C6010E94DD0BEBCF153241F479
:101B2000FE01E3FC1591E3FE1191EF01153281F402
:101B3000C6010E949C0E97FDD4C0412F50E09C012D
:101B4000332724173507A9F2B6010E94DA0ECBC05D
:101B50001A3239F4E3FC1591E3FE1191EF0101E033
:101B600001C000E0F12C20ED210F2A3080F402604A
:101B70006F2D70E080E090E040E20E94B60BF62E00
:101B8000FE01E3FC1591E3FE1191EF01ECCF01FFA3
:101B900003C0F11003C0A7C0FF24FA94183619F04F
:101BA0001C3651F010C0FE01E3FC1591E3FE1191CB
:101BB000EF01183641F408600460FE01E3FC159162
:101BC000E3FE1191EF01112309F48DC0612F70E044
:101BD00086E093E00E94910E892B09F484C000FDF9
:101BE00007C0F50180809180C50102965C0102C0AA
:101BF000812C912C1E3651F4F6014681578160E00C
:101C000070E0202FC4010E94AA0B73CF1336A9F4F1
:101C100001FD02C0FF24F394C6010E949C0E97FDB3
:101C200060C08114910429F0F4018083C4010196FD
:101C30004C01FA94F110F0CF50C01B3559F49E01BD
:101C4000A4016F2DC6010E94880CEC01892B09F0BC
:101C500044C03EC0C6010E94DD0B97FD42C01F3646
:101C600061F128F4143639F1193651F128C01337CF
:101C700071F0153701F123C08114910429F0F401AA
:101C80006082C40101964C01FA94FF2071F0C601F4
:101C90000E949C0E3C0197FD08C00E94880E892B73
:101CA00059F3B601C3010E94DA0E81149104A9F020
:101CB000F401108212C0006203C0006101C0006420
:101CC000202FA4016F2DC6010E94F60B811105C0C3
:101CD000F6018381807329F406C000FD0ACF539476
:101CE00008CF552019F0852D90E002C08FEF9FEFAF
:101CF000DF91CF911F910F91FF90EF90DF90CF90E8
:101D0000BF90AF909F908F907F906F905F9008955D
:101D100091110C94F30E803219F089508550C8F758
:101D20000895FC010590061621F00020D9F7C001A6
:101D300008953197CF010895CF93DF93EC012B8164
:101D400020FF33C026FF0AC02F7B2B838E819F810B
:101D500001968E839F838A8190E029C022FF0FC065
:101D6000E881F9818081082E000C990B009719F405
:101D700020622B831AC03196E883F9830EC0EA856E
:101D8000FB85199597FF09C02B81019611F080E220
:101D900001C080E1822B8B8308C02E813F812F5FA1
:101DA0003F4F2E833F83992702C08FEF9FEFDF9134
:101DB000CF910895FB01238120FF12C026FD10C0A2
:101DC0008F3F3FEF930761F082832F7D2064238351
:101DD0002681378121503109268337839927089539
:101DE0008FEF9FEF0895992788270895F894FFCFE4
:101DF0000000000300000000AE03D30300006C6F7E
:101E00006F706C696368745F6C696E6B730001005E
:101E100001436F756E7465723A25640D0025730079
:101E20006C6F6F706C696368745F6C696E6B730064
:101E30006C6F6F706C696368745F726563687473EC
:021E40000000A0
:00000001FF
